{
  "_format": "hh-sol-artifact-1",
  "contractName": "SafeToken",
  "sourceName": "contracts/SafeToken.sol",
  "abi": [
    {
      "inputs": [
        {
          "internalType": "address",
          "name": "_usdToken",
          "type": "address"
        },
        {
          "internalType": "address",
          "name": "_safeVault",
          "type": "address"
        },
        {
          "internalType": "address[2]",
          "name": "_wallets",
          "type": "address[2]"
        },
        {
          "internalType": "uint256[2]",
          "name": "_taxDistributionOnMintAndBurn",
          "type": "uint256[2]"
        },
        {
          "internalType": "uint256",
          "name": "_buyTaxPercent",
          "type": "uint256"
        },
        {
          "internalType": "uint256",
          "name": "_sellTaxPercent",
          "type": "uint256"
        }
      ],
      "stateMutability": "nonpayable",
      "type": "constructor"
    },
    {
      "anonymous": false,
      "inputs": [
        {
          "indexed": true,
          "internalType": "address",
          "name": "owner",
          "type": "address"
        },
        {
          "indexed": true,
          "internalType": "address",
          "name": "spender",
          "type": "address"
        },
        {
          "indexed": false,
          "internalType": "uint256",
          "name": "value",
          "type": "uint256"
        }
      ],
      "name": "Approval",
      "type": "event"
    },
    {
      "anonymous": false,
      "inputs": [
        {
          "indexed": false,
          "internalType": "address",
          "name": "account",
          "type": "address"
        }
      ],
      "name": "Paused",
      "type": "event"
    },
    {
      "anonymous": false,
      "inputs": [
        {
          "indexed": true,
          "internalType": "address",
          "name": "from",
          "type": "address"
        },
        {
          "indexed": true,
          "internalType": "address",
          "name": "to",
          "type": "address"
        },
        {
          "indexed": false,
          "internalType": "uint256",
          "name": "value",
          "type": "uint256"
        }
      ],
      "name": "Transfer",
      "type": "event"
    },
    {
      "anonymous": false,
      "inputs": [
        {
          "indexed": false,
          "internalType": "address",
          "name": "account",
          "type": "address"
        }
      ],
      "name": "Unpaused",
      "type": "event"
    },
    {
      "inputs": [],
      "name": "BUY_TAX_PERCENT",
      "outputs": [
        {
          "internalType": "uint256",
          "name": "",
          "type": "uint256"
        }
      ],
      "stateMutability": "view",
      "type": "function"
    },
    {
      "inputs": [],
      "name": "SELL_TAX_PERCENT",
      "outputs": [
        {
          "internalType": "uint256",
          "name": "",
          "type": "uint256"
        }
      ],
      "stateMutability": "view",
      "type": "function"
    },
    {
      "inputs": [],
      "name": "WALLETS",
      "outputs": [
        {
          "internalType": "uint256",
          "name": "",
          "type": "uint256"
        }
      ],
      "stateMutability": "view",
      "type": "function"
    },
    {
      "inputs": [
        {
          "internalType": "address",
          "name": "",
          "type": "address"
        }
      ],
      "name": "admin",
      "outputs": [
        {
          "internalType": "uint256",
          "name": "",
          "type": "uint256"
        }
      ],
      "stateMutability": "view",
      "type": "function"
    },
    {
      "inputs": [
        {
          "internalType": "address",
          "name": "",
          "type": "address"
        },
        {
          "internalType": "address",
          "name": "",
          "type": "address"
        }
      ],
      "name": "allowance",
      "outputs": [
        {
          "internalType": "uint256",
          "name": "",
          "type": "uint256"
        }
      ],
      "stateMutability": "view",
      "type": "function"
    },
    {
      "inputs": [
        {
          "internalType": "address",
          "name": "usr",
          "type": "address"
        },
        {
          "internalType": "uint256",
          "name": "wad",
          "type": "uint256"
        }
      ],
      "name": "approve",
      "outputs": [
        {
          "internalType": "bool",
          "name": "",
          "type": "bool"
        }
      ],
      "stateMutability": "nonpayable",
      "type": "function"
    },
    {
      "inputs": [
        {
          "internalType": "address",
          "name": "",
          "type": "address"
        }
      ],
      "name": "balanceOf",
      "outputs": [
        {
          "internalType": "uint256",
          "name": "",
          "type": "uint256"
        }
      ],
      "stateMutability": "view",
      "type": "function"
    },
    {
      "inputs": [
        {
          "internalType": "address",
          "name": "",
          "type": "address"
        }
      ],
      "name": "blacklist",
      "outputs": [
        {
          "internalType": "bool",
          "name": "",
          "type": "bool"
        }
      ],
      "stateMutability": "view",
      "type": "function"
    },
    {
      "inputs": [
        {
          "internalType": "address",
          "name": "_user",
          "type": "address"
        },
        {
          "internalType": "uint256",
          "name": "_amount",
          "type": "uint256"
        }
      ],
      "name": "burn",
      "outputs": [],
      "stateMutability": "nonpayable",
      "type": "function"
    },
    {
      "inputs": [
        {
          "internalType": "uint256",
          "name": "_safeTokensToBuy",
          "type": "uint256"
        }
      ],
      "name": "buyExactAmountOfSafe",
      "outputs": [],
      "stateMutability": "nonpayable",
      "type": "function"
    },
    {
      "inputs": [
        {
          "internalType": "uint256",
          "name": "_usdToSpend",
          "type": "uint256"
        }
      ],
      "name": "buySafeForExactAmountOfUSD",
      "outputs": [
        {
          "internalType": "uint256",
          "name": "",
          "type": "uint256"
        }
      ],
      "stateMutability": "nonpayable",
      "type": "function"
    },
    {
      "inputs": [],
      "name": "decimals",
      "outputs": [
        {
          "internalType": "uint8",
          "name": "",
          "type": "uint8"
        }
      ],
      "stateMutability": "view",
      "type": "function"
    },
    {
      "inputs": [
        {
          "internalType": "address",
          "name": "guy",
          "type": "address"
        }
      ],
      "name": "deny",
      "outputs": [],
      "stateMutability": "nonpayable",
      "type": "function"
    },
    {
      "inputs": [
        {
          "internalType": "uint256",
          "name": "_safeTokensToBuy",
          "type": "uint256"
        }
      ],
      "name": "estimateBuyExactAmountOfSafe",
      "outputs": [],
      "stateMutability": "nonpayable",
      "type": "function"
    },
    {
      "inputs": [],
      "name": "getUsdReserves",
      "outputs": [
        {
          "internalType": "uint256",
          "name": "",
          "type": "uint256"
        }
      ],
      "stateMutability": "view",
      "type": "function"
    },
    {
      "inputs": [],
      "name": "getWallets",
      "outputs": [
        {
          "internalType": "address[2]",
          "name": "",
          "type": "address[2]"
        }
      ],
      "stateMutability": "view",
      "type": "function"
    },
    {
      "inputs": [
        {
          "internalType": "address",
          "name": "_usdToken",
          "type": "address"
        },
        {
          "internalType": "address",
          "name": "_safeVault",
          "type": "address"
        },
        {
          "internalType": "address[2]",
          "name": "_wallets",
          "type": "address[2]"
        },
        {
          "internalType": "uint256[2]",
          "name": "_taxDistributionOnMintAndBurn",
          "type": "uint256[2]"
        },
        {
          "internalType": "uint256",
          "name": "_buyTaxPercent",
          "type": "uint256"
        },
        {
          "internalType": "uint256",
          "name": "_sellTaxPercent",
          "type": "uint256"
        }
      ],
      "name": "initialize",
      "outputs": [],
      "stateMutability": "nonpayable",
      "type": "function"
    },
    {
      "inputs": [
        {
          "internalType": "address",
          "name": "_user",
          "type": "address"
        },
        {
          "internalType": "uint256",
          "name": "_amount",
          "type": "uint256"
        }
      ],
      "name": "mint",
      "outputs": [],
      "stateMutability": "nonpayable",
      "type": "function"
    },
    {
      "inputs": [],
      "name": "name",
      "outputs": [
        {
          "internalType": "string",
          "name": "",
          "type": "string"
        }
      ],
      "stateMutability": "view",
      "type": "function"
    },
    {
      "inputs": [],
      "name": "paused",
      "outputs": [
        {
          "internalType": "bool",
          "name": "",
          "type": "bool"
        }
      ],
      "stateMutability": "view",
      "type": "function"
    },
    {
      "inputs": [],
      "name": "price",
      "outputs": [
        {
          "internalType": "uint256",
          "name": "",
          "type": "uint256"
        }
      ],
      "stateMutability": "view",
      "type": "function"
    },
    {
      "inputs": [
        {
          "internalType": "address",
          "name": "guy",
          "type": "address"
        }
      ],
      "name": "rely",
      "outputs": [],
      "stateMutability": "nonpayable",
      "type": "function"
    },
    {
      "inputs": [],
      "name": "safeVault",
      "outputs": [
        {
          "internalType": "contract ISafeVault",
          "name": "",
          "type": "address"
        }
      ],
      "stateMutability": "view",
      "type": "function"
    },
    {
      "inputs": [
        {
          "internalType": "uint256",
          "name": "_safeTokensToSell",
          "type": "uint256"
        }
      ],
      "name": "sellExactAmountOfSafe",
      "outputs": [],
      "stateMutability": "nonpayable",
      "type": "function"
    },
    {
      "inputs": [
        {
          "internalType": "uint256",
          "name": "_usdToGet",
          "type": "uint256"
        }
      ],
      "name": "sellSafeForExactAmountOfUSD",
      "outputs": [],
      "stateMutability": "nonpayable",
      "type": "function"
    },
    {
      "inputs": [],
      "name": "symbol",
      "outputs": [
        {
          "internalType": "string",
          "name": "",
          "type": "string"
        }
      ],
      "stateMutability": "view",
      "type": "function"
    },
    {
      "inputs": [
        {
          "internalType": "uint256",
          "name": "",
          "type": "uint256"
        }
      ],
      "name": "taxDistributionOnMintAndBurn",
      "outputs": [
        {
          "internalType": "uint256",
          "name": "",
          "type": "uint256"
        }
      ],
      "stateMutability": "view",
      "type": "function"
    },
    {
      "inputs": [],
      "name": "totalSupply",
      "outputs": [
        {
          "internalType": "uint256",
          "name": "",
          "type": "uint256"
        }
      ],
      "stateMutability": "view",
      "type": "function"
    },
    {
      "inputs": [
        {
          "internalType": "address",
          "name": "dst",
          "type": "address"
        },
        {
          "internalType": "uint256",
          "name": "wad",
          "type": "uint256"
        }
      ],
      "name": "transfer",
      "outputs": [
        {
          "internalType": "bool",
          "name": "",
          "type": "bool"
        }
      ],
      "stateMutability": "nonpayable",
      "type": "function"
    },
    {
      "inputs": [
        {
          "internalType": "address",
          "name": "src",
          "type": "address"
        },
        {
          "internalType": "address",
          "name": "dst",
          "type": "address"
        },
        {
          "internalType": "uint256",
          "name": "wad",
          "type": "uint256"
        }
      ],
      "name": "transferFrom",
      "outputs": [
        {
          "internalType": "bool",
          "name": "",
          "type": "bool"
        }
      ],
      "stateMutability": "nonpayable",
      "type": "function"
    },
    {
      "inputs": [],
      "name": "usd",
      "outputs": [
        {
          "internalType": "contract IERC20",
          "name": "",
          "type": "address"
        }
      ],
      "stateMutability": "view",
      "type": "function"
    },
    {
      "inputs": [],
      "name": "version",
      "outputs": [
        {
          "internalType": "string",
          "name": "",
          "type": "string"
        }
      ],
      "stateMutability": "view",
      "type": "function"
    },
    {
      "inputs": [
        {
          "internalType": "uint256",
          "name": "",
          "type": "uint256"
        }
      ],
      "name": "wallets",
      "outputs": [
        {
          "internalType": "address",
          "name": "",
          "type": "address"
        }
      ],
      "stateMutability": "view",
      "type": "function"
    }
  ],
  "bytecode": "0x60806040523480156200001157600080fd5b5060405162001f1438038062001f14833981016040819052620000349162000310565b6002805460ff191690556001600355620000538686868686866200005f565b505050505050620003f6565b60006200007960008051602062001ef48339815191525490565b90506001600160a01b038116620000a9576001600160a01b0360008051602062001ef483398151915255620000bf565b336001600160a01b03821614620000bf57600080fd5b33600090815260066020526040902060019055600c80546001600160a01b038881166001600160a01b031992831617909255600b8054928a16929091169190911790556200010d85620001ae565b6200011c600d856002620001c1565b506009839055600a829055600b54600c5460405163095ea7b360e01b81526001600160a01b039182166004820152600019602482015291169063095ea7b3906044016020604051808303816000875af11580156200017e573d6000803e3d6000fd5b505050506040513d601f19601f82011682018060405250810190620001a49190620003cb565b5050505050505050565b620001bd600082600262000204565b5050565b8260028101928215620001f2579160200282015b82811115620001f2578251825591602001919060010190620001d5565b50620002009291506200024f565b5090565b8260028101928215620001f2579160200282015b82811115620001f257825182546001600160a01b0319166001600160a01b0390911617825560209092019160019091019062000218565b5b8082111562000200576000815560010162000250565b80516001600160a01b03811681146200027e57600080fd5b919050565b604080519081016001600160401b0381118282101715620002b457634e487b7160e01b600052604160045260246000fd5b60405290565b600082601f830112620002cc57600080fd5b620002d662000283565b806040840185811115620002e957600080fd5b845b8181101562000305578051845260209384019301620002eb565b509095945050505050565b60008060008060008061010087890312156200032b57600080fd5b620003368762000266565b955060206200034781890162000266565b955088605f8901126200035957600080fd5b6200036362000283565b8060808a018b8111156200037657600080fd5b60408b015b818110156200039d576200038f8162000266565b84529284019284016200037b565b50819750620003ad8c82620002ba565b96505050505060c0870151915060e087015190509295509295509295565b600060208284031215620003de57600080fd5b81518015158114620003ef57600080fd5b9392505050565b611aee80620004066000396000f3fe608060405234801561001057600080fd5b50600436106101fb5760003560e01c80638ce8e9d71161011a578063a9059cbb116100ad578063db7a46051161007c578063db7a460514610474578063dd62ed3e14610489578063deef94de146104b4578063f7e0ba5f146104c7578063f9f92be4146104da57600080fd5b8063a9059cbb14610432578063b416d1a314610445578063ba69c3581461044e578063d63a6ccd1461046157600080fd5b80639c52a7f1116100e95780639c52a7f1146103f15780639dc29fac14610404578063a035b1fe14610417578063a634755e1461041f57600080fd5b80638ce8e9d7146103b55780638d3bd55b146103be57806395d89b41146103c65780639baaa20f146103e957600080fd5b80635c975abb1161019257806370a082311161016157806370a08231146103445780637ad71f7214610364578063889a52401461038f57806389d1cabc146103a257600080fd5b80635c975abb146102f5578063624e5b051461030057806363a846f81461031157806365fae35e1461033157600080fd5b8063313ce567116101ce578063313ce5671461029357806340c10f19146102ad57806349da8288146102c257806354fd4d50146102d557600080fd5b806306fdde0314610200578063095ea7b31461024657806318160ddd1461026957806323b872dd14610280575b600080fd5b6102306040518060400160405280601181526020017029b0b332902cb4b2b63239902a37b5b2b760791b81525081565b60405161023d9190611703565b60405180910390f35b610259610254366004611768565b6104fd565b604051901515815260200161023d565b61027260045481565b60405190815260200161023d565b61025961028e366004611792565b610565565b61029b600681565b60405160ff909116815260200161023d565b6102c06102bb366004611768565b6108ef565b005b6102c06102d0366004611855565b61092c565b610230604051806040016040528060018152602001603160f81b81525081565b60025460ff16610259565b6102c061030e366004611901565b50565b61027261031f36600461191a565b60066020526000908152604090205481565b6102c061033f36600461191a565b610a92565b61027261035236600461191a565b60076020526000908152604090205481565b610377610372366004611901565b610ade565b6040516001600160a01b03909116815260200161023d565b61027261039d366004611901565b610afe565b6102c06103b0366004611901565b610b15565b610272600a5481565b610272600281565b610230604051806040016040528060048152602001635341464560e01b81525081565b610272610cad565b6102c06103ff36600461191a565b610d20565b6102c0610412366004611768565b610d69565b610272610da2565b6102c061042d366004611901565b610dd8565b610259610440366004611768565b610f70565b61027260095481565b6102c061045c366004611901565b610f7d565b600b54610377906001600160a01b031681565b61047c611019565b60405161023d9190611935565b61027261049736600461196f565b600860209081526000928352604080842090915290825290205481565b600c54610377906001600160a01b031681565b6102726104d5366004611901565b61105d565b6102596104e836600461191a565b60056020526000908152604090205460ff1681565b3360008181526008602090815260408083206001600160a01b03871680855290835281842086905590518581529293909290917f8c5be1e5ebec7d5bd14f71427d1e84f3dd0314c0f7b2291e5b200ac8c7c3b925910160405180910390a35060015b92915050565b600061056f611223565b60025460ff16156105ba5760405162461bcd60e51b815260206004820152601060248201526f14d85999551bdad95b8e9c185d5cd95960821b60448201526064015b60405180910390fd5b6001600160a01b03841615806105d757506001600160a01b038316155b806105fa57506001600160a01b0384166000908152600660205260409020546001145b8061061d57506001600160a01b0383166000908152600660205260409020546001145b6106695760405162461bcd60e51b815260206004820152601e60248201527f53616665546f6b656e3a207472616e736665722d70726f68696269746564000060448201526064016105b1565b6001600160a01b0384166000908152600760205260409020548211156106d15760405162461bcd60e51b815260206004820152601e60248201527f53616665546f6b656e3a696e73756666696369656e742d62616c616e6365000060448201526064016105b1565b6001600160a01b03841660009081526005602052604090205460ff1615801561071357506001600160a01b03831660009081526005602052604090205460ff16155b6107575760405162461bcd60e51b815260206004820152601560248201527414d85999551bdad95b8e989b1858dadb1a5cdd1959605a1b60448201526064016105b1565b6001600160a01b038416331461082d576001600160a01b03841660009081526008602090815260408083203384529091529020548211156107da5760405162461bcd60e51b815260206004820181905260248201527f53616665546f6b656e3a696e73756666696369656e742d616c6c6f77616e636560448201526064016105b1565b6001600160a01b0384166000908152600860209081526040808320338452909152902054610808908361127c565b6001600160a01b03851660009081526008602090815260408083203384529091529020555b6001600160a01b038416600090815260076020526040902054610850908361127c565b6001600160a01b03808616600090815260076020526040808220939093559085168152205461087f9083611297565b6001600160a01b0380851660008181526007602052604090819020939093559151908616907fddf252ad1be2c89b69c2b068fc378daa952ba7f163c4a11628f55a4df523b3ef906108d39086815260200190565b60405180910390a35060016108e86001600355565b9392505050565b3360009081526006602052604090205460011461091e5760405162461bcd60e51b81526004016105b1906119a2565b61092882826112b2565b5050565b60006109567fb53127684a568b3173ae13b9f8a6016e243e63b6e8ee1178d6a717850b5d61035490565b90506001600160a01b038116610995576001600160a01b037fb53127684a568b3173ae13b9f8a6016e243e63b6e8ee1178d6a717850b5d6103556109aa565b336001600160a01b038216146109aa57600080fd5b33600090815260066020526040902060019055600c80546001600160a01b038881166001600160a01b031992831617909255600b8054928a16929091169190911790556109f685611344565b610a03600d85600261164a565b506009839055600a829055600b54600c5460405163095ea7b360e01b81526001600160a01b039182166004820152600019602482015291169063095ea7b3906044016020604051808303816000875af1158015610a64573d6000803e3d6000fd5b505050506040513d601f19601f82011682018060405250810190610a8891906119d9565b5050505050505050565b33600090815260066020526040902054600114610ac15760405162461bcd60e51b81526004016105b1906119a2565b6001600160a01b0316600090815260066020526040902060019055565b60008160028110610aee57600080fd5b01546001600160a01b0316905081565b600d8160028110610b0e57600080fd5b0154905081565b610b1d611223565b6000620f4240610b2b610da2565b610b359084611a11565b610b3f9190611a28565b905060006305f5e10060095483610b569190611a11565b610b609190611a28565b90506000610b6e8284611a4a565b9050610b7a33856112b2565b600b546001600160a01b03166323b872dd336040516001600160e01b031960e084901b1681526001600160a01b039091166004820152306024820152604481018490526064016020604051808303816000875af1158015610bdf573d6000803e3d6000fd5b505050506040513d601f19601f82011682018060405250810190610c0391906119d9565b50600b54600090610c1f906001600160a01b031684600d611351565b90506000610c2d8285611a5d565b1115610c9f57600c546001600160a01b031663b6b55f25610c4e8385611a5d565b6040518263ffffffff1660e01b8152600401610c6c91815260200190565b600060405180830381600087803b158015610c8657600080fd5b505af1158015610c9a573d6000803e3d6000fd5b505050505b5050505061030e6001600355565b600c54604080516318160ddd60e01b815290516000926001600160a01b0316916318160ddd9160048083019260209291908290030181865afa158015610cf7573d6000803e3d6000fd5b505050506040513d601f19601f82011682018060405250810190610d1b9190611a70565b905090565b33600090815260066020526040902054600114610d4f5760405162461bcd60e51b81526004016105b1906119a2565b6001600160a01b0316600090815260066020526040812055565b33600090815260066020526040902054600114610d985760405162461bcd60e51b81526004016105b1906119a2565b610928828261144f565b6000600454600014610dd057600454610db9610cad565b610dc690620f4240611a11565b610d1b9190611a28565b50620f424090565b610de0611223565b60006305f5e100600a546305f5e100610df99190611a4a565b610e039084611a11565b610e0d9190611a28565b905060006305f5e100600a5483610e249190611a11565b610e2e9190611a28565b90506000610e3a610da2565b610e4784620f4240611a11565b610e519190611a28565b9050610e5d338261144f565b600c5460405163f3fef3a360e01b8152336004820152602481018690526001600160a01b039091169063f3fef3a3906044015b600060405180830381600087803b158015610eaa57600080fd5b505af1158015610ebe573d6000803e3d6000fd5b5050600c5460405163f3fef3a360e01b8152306004820152602481018690526001600160a01b03909116925063f3fef3a39150604401600060405180830381600087803b158015610f0e57600080fd5b505af1158015610f22573d6000803e3d6000fd5b5050600b5460009250610f4191506001600160a01b031684600d611351565b90506000610f4f8285611a5d565b1115610c9f57600c546001600160a01b031663b6b55f25610c4e8386611a5d565b60006108e8338484610565565b610f85611223565b6000620f4240610f93610da2565b610f9d9084611a11565b610fa79190611a28565b905060006305f5e100600a5483610fbe9190611a11565b610fc89190611a28565b90506000610fd68284611a5d565b9050610fe2338561144f565b600c5460405163f3fef3a360e01b8152336004820152602481018390526001600160a01b039091169063f3fef3a390604401610e90565b611021611688565b60408051808201918290529060009060029082845b81546001600160a01b03168152600190910190602001808311611036575050505050905090565b6000611067611223565b60006305f5e1006009546305f5e1006110809190611a5d565b61108a9085611a11565b6110949190611a28565b905060006305f5e100600954856110ab9190611a11565b6110b59190611a28565b905060006110c1610da2565b6110ce84620f4240611a11565b6110d89190611a28565b90506110e433826112b2565b600b546001600160a01b03166323b872dd336040516001600160e01b031960e084901b1681526001600160a01b039091166004820152306024820152604481018890526064016020604051808303816000875af1158015611149573d6000803e3d6000fd5b505050506040513d601f19601f8201168201806040525081019061116d91906119d9565b50600b54600090611189906001600160a01b031684600d611351565b600c549091506001600160a01b031663b6b55f25826111a88688611a4a565b6111b29190611a5d565b6040518263ffffffff1660e01b81526004016111d091815260200190565b600060405180830381600087803b1580156111ea57600080fd5b505af11580156111fe573d6000803e3d6000fd5b50505050828461120e9190611a4a565b94505050505061121e6001600355565b919050565b6002600354036112755760405162461bcd60e51b815260206004820152601f60248201527f5265656e7472616e637947756172643a207265656e7472616e742063616c6c0060448201526064016105b1565b6002600355565b6000826112898382611a5d565b915081111561055f57600080fd5b6000826112a48382611a4a565b915081101561055f57600080fd5b6001600160a01b0382166000908152600760205260409020546112d59082611297565b6001600160a01b0383166000908152600760205260409020556004546112fb9082611297565b6004556040518181526001600160a01b038316906000907fddf252ad1be2c89b69c2b068fc378daa952ba7f163c4a11628f55a4df523b3ef906020015b60405180910390a35050565b61092860008260026116a6565b600080805b60028110156114465760006305f5e10085836002811061137857611378611a89565b01546113849088611a11565b61138e9190611a28565b9050866001600160a01b031663a9059cbb600084600281106113b2576113b2611a89565b015460405160e083901b6001600160e01b03191681526001600160a01b039091166004820152602481018490526044016020604051808303816000875af1158015611401573d6000803e3d6000fd5b505050506040513d601f19601f8201168201806040525081019061142591906119d9565b506114308184611a4a565b925050808061143e90611a9f565b915050611356565b50949350505050565b6001600160a01b0382166000908152600760205260409020548111156114b75760405162461bcd60e51b815260206004820152601e60248201527f53616665546f6b656e3a696e73756666696369656e742d62616c616e6365000060448201526064016105b1565b6001600160a01b03821633148015906114f557506001600160a01b038216600090815260086020908152604080832033845290915290205460001914155b156115c0576001600160a01b038216600090815260086020908152604080832033845290915290205481111561156d5760405162461bcd60e51b815260206004820181905260248201527f53616665546f6b656e3a696e73756666696369656e742d616c6c6f77616e636560448201526064016105b1565b6001600160a01b038216600090815260086020908152604080832033845290915290205461159b908261127c565b6001600160a01b03831660009081526008602090815260408083203384529091529020555b6001600160a01b0382166000908152600760205260409020546115e3908261127c565b6001600160a01b038316600090815260076020526040902055600454611609908261127c565b6004556040518181526000906001600160a01b038416907fddf252ad1be2c89b69c2b068fc378daa952ba7f163c4a11628f55a4df523b3ef90602001611338565b8260028101928215611678579160200282015b8281111561167857825182559160200191906001019061165d565b506116849291506116ee565b5090565b60405180604001604052806002906020820280368337509192915050565b8260028101928215611678579160200282015b8281111561167857825182546001600160a01b0319166001600160a01b039091161782556020909201916001909101906116b9565b5b8082111561168457600081556001016116ef565b600060208083528351808285015260005b8181101561173057858101830151858201604001528201611714565b506000604082860101526040601f19601f8301168501019250505092915050565b80356001600160a01b038116811461121e57600080fd5b6000806040838503121561177b57600080fd5b61178483611751565b946020939093013593505050565b6000806000606084860312156117a757600080fd5b6117b084611751565b92506117be60208501611751565b9150604084013590509250925092565b6040805190810167ffffffffffffffff811182821017156117ff57634e487b7160e01b600052604160045260246000fd5b60405290565b600082601f83011261181657600080fd5b61181e6117ce565b80604084018581111561183057600080fd5b845b8181101561184a578035845260209384019301611832565b509095945050505050565b600080600080600080610100878903121561186f57600080fd5b61187887611751565b95506020611887818901611751565b955088605f89011261189857600080fd5b6118a06117ce565b8060808a018b8111156118b257600080fd5b60408b015b818110156118d5576118c881611751565b84529284019284016118b7565b508197506118e38c82611805565b96505050505060c0870135915060e087013590509295509295509295565b60006020828403121561191357600080fd5b5035919050565b60006020828403121561192c57600080fd5b6108e882611751565b60408101818360005b60028110156119665781516001600160a01b031683526020928301929091019060010161193e565b50505092915050565b6000806040838503121561198257600080fd5b61198b83611751565b915061199960208401611751565b90509250929050565b60208082526018908201527f53616665546f6b656e3a6e6f742d617574686f72697a65640000000000000000604082015260600190565b6000602082840312156119eb57600080fd5b815180151581146108e857600080fd5b634e487b7160e01b600052601160045260246000fd5b808202811582820484141761055f5761055f6119fb565b600082611a4557634e487b7160e01b600052601260045260246000fd5b500490565b8082018082111561055f5761055f6119fb565b8181038181111561055f5761055f6119fb565b600060208284031215611a8257600080fd5b5051919050565b634e487b7160e01b600052603260045260246000fd5b600060018201611ab157611ab16119fb565b506001019056fea2646970667358221220222c43c116c5951c863a0db2d63beb4d4d52bff435e48f61221a4d81cc2558ce64736f6c63430008110033b53127684a568b3173ae13b9f8a6016e243e63b6e8ee1178d6a717850b5d6103",
  "linkReferences": {},
  "deployedLinkReferences": {}
}