{
  "_format": "hh-sol-artifact-1",
  "contractName": "SafeRouter",
  "sourceName": "contracts/SafeRouter.sol",
  "abi": [
    {
      "inputs": [
        {
          "internalType": "address",
          "name": "_allowedContract",
          "type": "address"
        },
        {
          "internalType": "address",
          "name": "_usd",
          "type": "address"
        },
        {
          "internalType": "address",
          "name": "_safeToken",
          "type": "address"
        }
      ],
      "stateMutability": "nonpayable",
      "type": "constructor"
    },
    {
      "inputs": [],
      "name": "allowedFunctionSignature",
      "outputs": [
        {
          "internalType": "bytes4",
          "name": "",
          "type": "bytes4"
        }
      ],
      "stateMutability": "view",
      "type": "function"
    },
    {
      "inputs": [
        {
          "internalType": "address",
          "name": "_allowedContract",
          "type": "address"
        },
        {
          "internalType": "address",
          "name": "_usd",
          "type": "address"
        },
        {
          "internalType": "address",
          "name": "_safeToken",
          "type": "address"
        }
      ],
      "name": "initialize",
      "outputs": [],
      "stateMutability": "nonpayable",
      "type": "function"
    },
    {
      "inputs": [],
      "name": "kyberSwapRouterContract",
      "outputs": [
        {
          "internalType": "address",
          "name": "",
          "type": "address"
        }
      ],
      "stateMutability": "view",
      "type": "function"
    },
    {
      "inputs": [
        {
          "internalType": "bytes",
          "name": "data",
          "type": "bytes"
        }
      ],
      "name": "proxyAndBuy",
      "outputs": [],
      "stateMutability": "nonpayable",
      "type": "function"
    },
    {
      "inputs": [],
      "name": "safeTokenContract",
      "outputs": [
        {
          "internalType": "contract ISafeToken",
          "name": "",
          "type": "address"
        }
      ],
      "stateMutability": "view",
      "type": "function"
    },
    {
      "inputs": [
        {
          "internalType": "bytes",
          "name": "data",
          "type": "bytes"
        },
        {
          "internalType": "uint256",
          "name": "safeAmount",
          "type": "uint256"
        }
      ],
      "name": "sellAndProxy",
      "outputs": [],
      "stateMutability": "nonpayable",
      "type": "function"
    },
    {
      "inputs": [
        {
          "internalType": "address",
          "name": "_allowedContract",
          "type": "address"
        }
      ],
      "name": "updateAllowedContract",
      "outputs": [],
      "stateMutability": "nonpayable",
      "type": "function"
    },
    {
      "inputs": [
        {
          "internalType": "bytes4",
          "name": "_allowedFunctionSignature",
          "type": "bytes4"
        }
      ],
      "name": "updateAllowedFunctionSignature",
      "outputs": [],
      "stateMutability": "nonpayable",
      "type": "function"
    },
    {
      "inputs": [],
      "name": "usd",
      "outputs": [
        {
          "internalType": "contract IERC20",
          "name": "",
          "type": "address"
        }
      ],
      "stateMutability": "view",
      "type": "function"
    }
  ],
  "bytecode": "0x60806040526002805463ffffffff60a01b191663e21fd0e960a01b1790553480156200002a57600080fd5b5060405162000fdf38038062000fdf8339810160408190526200004d9162000212565b60016000556200005f83838362000068565b50505062000287565b60006200008260008051602062000fbf8339815191525490565b90506001600160a01b038116620000b2576001600160a01b0360008051602062000fbf83398151915255620000c8565b336001600160a01b03821614620000c857600080fd5b600180546001600160a01b038681166001600160a01b0319928316179092556003805486841690831681179091556002805493861693909216831790915560405163095ea7b360e01b8152600481019290925260001960248301529063095ea7b3906044016020604051808303816000875af11580156200014d573d6000803e3d6000fd5b505050506040513d601f19601f820116820180604052508101906200017391906200025c565b5060025460405163095ea7b360e01b81526001600160a01b039091166004820181905260001960248301529063095ea7b3906044016020604051808303816000875af1158015620001c8573d6000803e3d6000fd5b505050506040513d601f19601f82011682018060405250810190620001ee91906200025c565b5050505050565b80516001600160a01b03811681146200020d57600080fd5b919050565b6000806000606084860312156200022857600080fd5b6200023384620001f5565b92506200024360208501620001f5565b91506200025360408501620001f5565b90509250925092565b6000602082840312156200026f57600080fd5b815180151581146200028057600080fd5b9392505050565b610d2880620002976000396000f3fe608060405234801561001057600080fd5b50600436106100935760003560e01c8063b0f8f7d311610066578063b0f8f7d314610103578063c0c53b8b14610130578063c72adad814610143578063d63a6ccd14610156578063e75875fc1461016957600080fd5b8063255345e414610098578063584710d9146100ad57806391acb848146100c0578063a40dcb2f146100f0575b600080fd5b6100ab6100a6366004610b23565b61017c565b005b6100ab6100bb366004610b65565b6103fc565b6001546100d3906001600160a01b031681565b6040516001600160a01b0390911681526020015b60405180910390f35b6100ab6100fe366004610bb1565b61077a565b60025461011790600160a01b900460e01b81565b6040516001600160e01b031990911681526020016100e7565b6100ab61013e366004610bfe565b610808565b6100ab610151366004610c41565b6109ad565b6003546100d3906001600160a01b031681565b6002546100d3906001600160a01b031681565b610184610a2f565b60006101c583838080601f016020809104026020016040519081016040528093929190818152602001838380828437600092019190915250610a8892505050565b6002549091506001600160e01b0319808316600160a01b90920460e01b161461022c5760405162461bcd60e51b81526020600482015260146024820152732737ba1030b63637bbb2b210333ab731ba34b7b760611b60448201526064015b60405180910390fd5b60015460405160009182916001600160a01b03909116906102509087908790610c5c565b600060405180830381855af49150503d806000811461028b576040519150601f19603f3d011682016040523d82523d6000602084013e610290565b606091505b5091509150816102e25760405162461bcd60e51b815260206004820152601a60248201527f4b796265725377617020657865637574696f6e206661696c65640000000000006044820152606401610223565b600080828060200190518101906102f99190610c6c565b60025460405163f7e0ba5f60e01b8152600481018490529294509092506000916001600160a01b039091169063f7e0ba5f906024016020604051808303816000875af115801561034d573d6000803e3d6000fd5b505050506040513d601f19601f820116820180604052508101906103719190610c90565b60025460405163a9059cbb60e01b8152336004820152602481018390529192506001600160a01b03169063a9059cbb906044016020604051808303816000875af11580156103c3573d6000803e3d6000fd5b505050506040513d601f19601f820116820180604052508101906103e79190610ca9565b505050505050506103f86001600055565b5050565b610404610a2f565b600061044584848080601f016020809104026020016040519081016040528093929190818152602001838380828437600092019190915250610a8892505050565b6002549091506001600160e01b0319808316600160a01b90920460e01b16146104a75760405162461bcd60e51b81526020600482015260146024820152732737ba1030b63637bbb2b210333ab731ba34b7b760611b6044820152606401610223565b6003546040516370a0823160e01b81523060048201526000916001600160a01b0316906370a0823190602401602060405180830381865afa1580156104f0573d6000803e3d6000fd5b505050506040513d601f19601f820116820180604052508101906105149190610c90565b60025460405163174d386b60e31b8152600481018690529192506000916001600160a01b039091169063ba69c358906024016020604051808303816000875af1158015610565573d6000803e3d6000fd5b505050506040513d601f19601f820116820180604052508101906105899190610c90565b60015460405191925060009182916001600160a01b0316906105ae908a908a90610c5c565b600060405180830381855af49150503d80600081146105e9576040519150601f19603f3d011682016040523d82523d6000602084013e6105ee565b606091505b5091509150816106405760405162461bcd60e51b815260206004820152601a60248201527f4b796265725377617020657865637574696f6e206661696c65640000000000006044820152606401610223565b600080828060200190518101906106579190610c6c565b6003546040516370a0823160e01b81523060048201529294509092506000916001600160a01b03909116906370a0823190602401602060405180830381865afa1580156106a8573d6000803e3d6000fd5b505050506040513d601f19601f820116820180604052508101906106cc9190610c90565b905086811115610763576003546001600160a01b031663a9059cbb336106f28a85610ccb565b6040516001600160e01b031960e085901b1681526001600160a01b03909216600483015260248201526044016020604051808303816000875af115801561073d573d6000803e3d6000fd5b505050506040513d601f19601f820116820180604052508101906107619190610ca9565b505b50505050505050506107756001600055565b505050565b3332146107e45760405162461bcd60e51b815260206004820152603260248201527f4f6e6c7920454f412063616e207570646174652074686520616c6c6f7765642060448201527166756e6374696f6e207369676e617475726560701b6064820152608401610223565b6002805460e09290921c600160a01b0263ffffffff60a01b19909216919091179055565b60006108327fb53127684a568b3173ae13b9f8a6016e243e63b6e8ee1178d6a717850b5d61035490565b90506001600160a01b038116610871576001600160a01b037fb53127684a568b3173ae13b9f8a6016e243e63b6e8ee1178d6a717850b5d610355610886565b336001600160a01b0382161461088657600080fd5b600180546001600160a01b038681166001600160a01b0319928316179092556003805486841690831681179091556002805493861693909216831790915560405163095ea7b360e01b8152600481019290925260001960248301529063095ea7b3906044016020604051808303816000875af115801561090a573d6000803e3d6000fd5b505050506040513d601f19601f8201168201806040525081019061092e9190610ca9565b5060025460405163095ea7b360e01b81526001600160a01b039091166004820181905260001960248301529063095ea7b3906044016020604051808303816000875af1158015610982573d6000803e3d6000fd5b505050506040513d601f19601f820116820180604052508101906109a69190610ca9565b5050505050565b333214610a0d5760405162461bcd60e51b815260206004820152602860248201527f4f6e6c7920454f412063616e207570646174652074686520616c6c6f7765642060448201526718dbdb9d1c9858dd60c21b6064820152608401610223565b600180546001600160a01b0319166001600160a01b0392909216919091179055565b600260005403610a815760405162461bcd60e51b815260206004820152601f60248201527f5265656e7472616e637947756172643a207265656e7472616e742063616c6c006044820152606401610223565b6002600055565b6000600482511015610ad25760405162461bcd60e51b8152602060048201526013602482015272092dcecc2d8d2c840c8c2e8c240d8cadccee8d606b1b6044820152606401610223565b506020015190565b60008083601f840112610aec57600080fd5b50813567ffffffffffffffff811115610b0457600080fd5b602083019150836020828501011115610b1c57600080fd5b9250929050565b60008060208385031215610b3657600080fd5b823567ffffffffffffffff811115610b4d57600080fd5b610b5985828601610ada565b90969095509350505050565b600080600060408486031215610b7a57600080fd5b833567ffffffffffffffff811115610b9157600080fd5b610b9d86828701610ada565b909790965060209590950135949350505050565b600060208284031215610bc357600080fd5b81356001600160e01b031981168114610bdb57600080fd5b9392505050565b80356001600160a01b0381168114610bf957600080fd5b919050565b600080600060608486031215610c1357600080fd5b610c1c84610be2565b9250610c2a60208501610be2565b9150610c3860408501610be2565b90509250925092565b600060208284031215610c5357600080fd5b610bdb82610be2565b8183823760009101908152919050565b60008060408385031215610c7f57600080fd5b505080516020909101519092909150565b600060208284031215610ca257600080fd5b5051919050565b600060208284031215610cbb57600080fd5b81518015158114610bdb57600080fd5b81810381811115610cec57634e487b7160e01b600052601160045260246000fd5b9291505056fea264697066735822122092dc33bf8f5b90dd27b55d196ec251cb4c538064e132c15dca484c57ef4178c764736f6c63430008110033b53127684a568b3173ae13b9f8a6016e243e63b6e8ee1178d6a717850b5d6103",
  "linkReferences": {},
  "deployedLinkReferences": {}
}