{
  "_format": "hh-sol-artifact-1",
  "contractName": "Wallets",
  "sourceName": "contracts/Wallets.sol",
  "abi": [
    {
      "inputs": [],
      "name": "HUNDRED_PERCENT",
      "outputs": [
        {
          "internalType": "uint256",
          "name": "",
          "type": "uint256"
        }
      ],
      "stateMutability": "view",
      "type": "function"
    },
    {
      "inputs": [],
      "name": "WALLETS",
      "outputs": [
        {
          "internalType": "uint256",
          "name": "",
          "type": "uint256"
        }
      ],
      "stateMutability": "view",
      "type": "function"
    },
    {
      "inputs": [
        {
          "internalType": "uint256",
          "name": "",
          "type": "uint256"
        }
      ],
      "name": "wallets",
      "outputs": [
        {
          "internalType": "address",
          "name": "",
          "type": "address"
        }
      ],
      "stateMutability": "view",
      "type": "function"
    }
  ],
  "bytecode": "0x608060405234801561001057600080fd5b5060f88061001f6000396000f3fe6080604052348015600f57600080fd5b5060043610603c5760003560e01c80636ed93dd01460415780637ad71f7214605e5780638d3bd55b146084575b600080fd5b604b6305f5e10081565b6040519081526020015b60405180910390f35b606d606936600460aa565b608b565b6040516001600160a01b0390911681526020016055565b604b600281565b60008160028110609a57600080fd5b01546001600160a01b0316905081565b60006020828403121560bb57600080fd5b503591905056fea26469706673582212203960b3d11571c79223cfd97c29a49a7c21202d7b3e5092ceb657a3a5eff1cf6a64736f6c63430008110033",
  "linkReferences": {},
  "deployedLinkReferences": {}
}