{
  "_format": "hh-sol-artifact-1",
  "contractName": "Wallets",
  "sourceName": "contracts/Wallets.sol",
  "abi": [
    {
      "inputs": [],
      "name": "WALLETS",
      "outputs": [
        {
          "internalType": "uint256",
          "name": "",
          "type": "uint256"
        }
      ],
      "stateMutability": "view",
      "type": "function"
    },
    {
      "inputs": [
        {
          "internalType": "uint256",
          "name": "",
          "type": "uint256"
        }
      ],
      "name": "wallets",
      "outputs": [
        {
          "internalType": "address",
          "name": "",
          "type": "address"
        }
      ],
      "stateMutability": "view",
      "type": "function"
    }
  ],
  "bytecode": "0x608060405234801561001057600080fd5b5060e48061001f6000396000f3fe6080604052348015600f57600080fd5b506004361060325760003560e01c80637ad71f721460375780638d3bd55b146063575b600080fd5b604660423660046096565b6077565b6040516001600160a01b0390911681526020015b60405180910390f35b606a600281565b604051908152602001605a565b60008160028110608657600080fd5b01546001600160a01b0316905081565b60006020828403121560a757600080fd5b503591905056fea26469706673582212201f525a96c9281004524bd0f48f037abc84acf893faad229d8238101e68bf7d6064736f6c63430008110033",
  "linkReferences": {},
  "deployedLinkReferences": {}
}