{
  "_format": "hh-sol-artifact-1",
  "contractName": "SafeNFT",
  "sourceName": "contracts/SafeNFT.sol",
  "abi": [
    {
      "inputs": [
        {
          "internalType": "string",
          "name": "_uri",
          "type": "string"
        },
        {
          "internalType": "uint256[4]",
          "name": "_price",
          "type": "uint256[4]"
        },
        {
          "internalType": "uint256[4]",
          "name": "_maxSupply",
          "type": "uint256[4]"
        },
        {
          "internalType": "contract ISafeToken",
          "name": "_safeToken",
          "type": "address"
        },
        {
          "internalType": "uint256[2]",
          "name": "_priceDistributionOnMint",
          "type": "uint256[2]"
        },
        {
          "internalType": "uint256",
          "name": "_referralShareForNFTPurchase",
          "type": "uint256"
        },
        {
          "internalType": "uint256[2]",
          "name": "_profitDistribution",
          "type": "uint256[2]"
        },
        {
          "internalType": "address",
          "name": "_stabilizerWallet",
          "type": "address"
        }
      ],
      "stateMutability": "nonpayable",
      "type": "constructor"
    },
    {
      "anonymous": false,
      "inputs": [
        {
          "indexed": true,
          "internalType": "address",
          "name": "account",
          "type": "address"
        },
        {
          "indexed": true,
          "internalType": "address",
          "name": "operator",
          "type": "address"
        },
        {
          "indexed": false,
          "internalType": "bool",
          "name": "approved",
          "type": "bool"
        }
      ],
      "name": "ApprovalForAll",
      "type": "event"
    },
    {
      "anonymous": false,
      "inputs": [
        {
          "indexed": false,
          "internalType": "address",
          "name": "account",
          "type": "address"
        }
      ],
      "name": "Paused",
      "type": "event"
    },
    {
      "anonymous": false,
      "inputs": [
        {
          "indexed": true,
          "internalType": "bytes32",
          "name": "role",
          "type": "bytes32"
        },
        {
          "indexed": true,
          "internalType": "bytes32",
          "name": "previousAdminRole",
          "type": "bytes32"
        },
        {
          "indexed": true,
          "internalType": "bytes32",
          "name": "newAdminRole",
          "type": "bytes32"
        }
      ],
      "name": "RoleAdminChanged",
      "type": "event"
    },
    {
      "anonymous": false,
      "inputs": [
        {
          "indexed": true,
          "internalType": "bytes32",
          "name": "role",
          "type": "bytes32"
        },
        {
          "indexed": true,
          "internalType": "address",
          "name": "account",
          "type": "address"
        },
        {
          "indexed": true,
          "internalType": "address",
          "name": "sender",
          "type": "address"
        }
      ],
      "name": "RoleGranted",
      "type": "event"
    },
    {
      "anonymous": false,
      "inputs": [
        {
          "indexed": true,
          "internalType": "bytes32",
          "name": "role",
          "type": "bytes32"
        },
        {
          "indexed": true,
          "internalType": "address",
          "name": "account",
          "type": "address"
        },
        {
          "indexed": true,
          "internalType": "address",
          "name": "sender",
          "type": "address"
        }
      ],
      "name": "RoleRevoked",
      "type": "event"
    },
    {
      "anonymous": false,
      "inputs": [
        {
          "indexed": false,
          "internalType": "bool",
          "name": "_status",
          "type": "bool"
        }
      ],
      "name": "TogglePresale",
      "type": "event"
    },
    {
      "anonymous": false,
      "inputs": [
        {
          "indexed": true,
          "internalType": "address",
          "name": "operator",
          "type": "address"
        },
        {
          "indexed": true,
          "internalType": "address",
          "name": "from",
          "type": "address"
        },
        {
          "indexed": true,
          "internalType": "address",
          "name": "to",
          "type": "address"
        },
        {
          "indexed": false,
          "internalType": "uint256[]",
          "name": "ids",
          "type": "uint256[]"
        },
        {
          "indexed": false,
          "internalType": "uint256[]",
          "name": "values",
          "type": "uint256[]"
        }
      ],
      "name": "TransferBatch",
      "type": "event"
    },
    {
      "anonymous": false,
      "inputs": [
        {
          "indexed": true,
          "internalType": "address",
          "name": "operator",
          "type": "address"
        },
        {
          "indexed": true,
          "internalType": "address",
          "name": "from",
          "type": "address"
        },
        {
          "indexed": true,
          "internalType": "address",
          "name": "to",
          "type": "address"
        },
        {
          "indexed": false,
          "internalType": "uint256",
          "name": "id",
          "type": "uint256"
        },
        {
          "indexed": false,
          "internalType": "uint256",
          "name": "value",
          "type": "uint256"
        }
      ],
      "name": "TransferSingle",
      "type": "event"
    },
    {
      "anonymous": false,
      "inputs": [
        {
          "indexed": false,
          "internalType": "string",
          "name": "value",
          "type": "string"
        },
        {
          "indexed": true,
          "internalType": "uint256",
          "name": "id",
          "type": "uint256"
        }
      ],
      "name": "URI",
      "type": "event"
    },
    {
      "anonymous": false,
      "inputs": [
        {
          "indexed": false,
          "internalType": "address",
          "name": "account",
          "type": "address"
        }
      ],
      "name": "Unpaused",
      "type": "event"
    },
    {
      "inputs": [],
      "name": "DEFAULT_ADMIN_ROLE",
      "outputs": [
        {
          "internalType": "bytes32",
          "name": "",
          "type": "bytes32"
        }
      ],
      "stateMutability": "view",
      "type": "function"
    },
    {
      "inputs": [],
      "name": "MINTER_ROLE",
      "outputs": [
        {
          "internalType": "bytes32",
          "name": "",
          "type": "bytes32"
        }
      ],
      "stateMutability": "view",
      "type": "function"
    },
    {
      "inputs": [],
      "name": "PAUSER_ROLE",
      "outputs": [
        {
          "internalType": "bytes32",
          "name": "",
          "type": "bytes32"
        }
      ],
      "stateMutability": "view",
      "type": "function"
    },
    {
      "inputs": [],
      "name": "TIERS",
      "outputs": [
        {
          "internalType": "uint256",
          "name": "",
          "type": "uint256"
        }
      ],
      "stateMutability": "view",
      "type": "function"
    },
    {
      "inputs": [],
      "name": "WALLETS",
      "outputs": [
        {
          "internalType": "uint256",
          "name": "",
          "type": "uint256"
        }
      ],
      "stateMutability": "view",
      "type": "function"
    },
    {
      "inputs": [],
      "name": "WEEKS",
      "outputs": [
        {
          "internalType": "uint256",
          "name": "",
          "type": "uint256"
        }
      ],
      "stateMutability": "view",
      "type": "function"
    },
    {
      "inputs": [
        {
          "internalType": "uint256",
          "name": "",
          "type": "uint256"
        },
        {
          "internalType": "uint256",
          "name": "",
          "type": "uint256"
        },
        {
          "internalType": "address",
          "name": "",
          "type": "address"
        }
      ],
      "name": "alreadyDistributedAmount",
      "outputs": [
        {
          "internalType": "uint256",
          "name": "",
          "type": "uint256"
        }
      ],
      "stateMutability": "view",
      "type": "function"
    },
    {
      "inputs": [
        {
          "internalType": "uint256",
          "name": "",
          "type": "uint256"
        },
        {
          "internalType": "uint256",
          "name": "",
          "type": "uint256"
        }
      ],
      "name": "alreadyDistributedAmountByTier",
      "outputs": [
        {
          "internalType": "uint256",
          "name": "",
          "type": "uint256"
        }
      ],
      "stateMutability": "view",
      "type": "function"
    },
    {
      "inputs": [
        {
          "internalType": "address",
          "name": "account",
          "type": "address"
        },
        {
          "internalType": "uint256",
          "name": "id",
          "type": "uint256"
        }
      ],
      "name": "balanceOf",
      "outputs": [
        {
          "internalType": "uint256",
          "name": "",
          "type": "uint256"
        }
      ],
      "stateMutability": "view",
      "type": "function"
    },
    {
      "inputs": [
        {
          "internalType": "address[]",
          "name": "accounts",
          "type": "address[]"
        },
        {
          "internalType": "uint256[]",
          "name": "ids",
          "type": "uint256[]"
        }
      ],
      "name": "balanceOfBatch",
      "outputs": [
        {
          "internalType": "uint256[]",
          "name": "",
          "type": "uint256[]"
        }
      ],
      "stateMutability": "view",
      "type": "function"
    },
    {
      "inputs": [
        {
          "internalType": "address",
          "name": "account",
          "type": "address"
        },
        {
          "internalType": "uint256",
          "name": "id",
          "type": "uint256"
        },
        {
          "internalType": "uint256",
          "name": "value",
          "type": "uint256"
        }
      ],
      "name": "burn",
      "outputs": [],
      "stateMutability": "nonpayable",
      "type": "function"
    },
    {
      "inputs": [
        {
          "internalType": "address",
          "name": "account",
          "type": "address"
        },
        {
          "internalType": "uint256[]",
          "name": "ids",
          "type": "uint256[]"
        },
        {
          "internalType": "uint256[]",
          "name": "values",
          "type": "uint256[]"
        }
      ],
      "name": "burnBatch",
      "outputs": [],
      "stateMutability": "nonpayable",
      "type": "function"
    },
    {
      "inputs": [
        {
          "internalType": "enum ISafeNFT.Tiers",
          "name": "_tier",
          "type": "uint8"
        },
        {
          "internalType": "uint256",
          "name": "_amount",
          "type": "uint256"
        },
        {
          "internalType": "address",
          "name": "_referral",
          "type": "address"
        }
      ],
      "name": "buy",
      "outputs": [],
      "stateMutability": "nonpayable",
      "type": "function"
    },
    {
      "inputs": [
        {
          "internalType": "enum ISafeNFT.Tiers",
          "name": "_tier",
          "type": "uint8"
        },
        {
          "internalType": "uint256",
          "name": "_distributionId",
          "type": "uint256"
        }
      ],
      "name": "claimReward",
      "outputs": [],
      "stateMutability": "nonpayable",
      "type": "function"
    },
    {
      "inputs": [],
      "name": "claimRewardsTotal",
      "outputs": [],
      "stateMutability": "nonpayable",
      "type": "function"
    },
    {
      "inputs": [],
      "name": "currentDistributionId",
      "outputs": [
        {
          "internalType": "uint256",
          "name": "",
          "type": "uint256"
        }
      ],
      "stateMutability": "view",
      "type": "function"
    },
    {
      "inputs": [
        {
          "internalType": "uint256",
          "name": "_amountUSD",
          "type": "uint256"
        }
      ],
      "name": "distributeProfit",
      "outputs": [],
      "stateMutability": "nonpayable",
      "type": "function"
    },
    {
      "inputs": [
        {
          "internalType": "uint256",
          "name": "",
          "type": "uint256"
        },
        {
          "internalType": "uint256",
          "name": "",
          "type": "uint256"
        }
      ],
      "name": "distributionByTier",
      "outputs": [
        {
          "internalType": "uint256",
          "name": "",
          "type": "uint256"
        }
      ],
      "stateMutability": "view",
      "type": "function"
    },
    {
      "inputs": [
        {
          "internalType": "uint256",
          "name": "",
          "type": "uint256"
        }
      ],
      "name": "distributionOfProfit",
      "outputs": [
        {
          "internalType": "uint256",
          "name": "",
          "type": "uint256"
        }
      ],
      "stateMutability": "view",
      "type": "function"
    },
    {
      "inputs": [
        {
          "internalType": "uint256",
          "name": "",
          "type": "uint256"
        },
        {
          "internalType": "uint256",
          "name": "",
          "type": "uint256"
        }
      ],
      "name": "distributionTotalSupplySnapshot",
      "outputs": [
        {
          "internalType": "uint256",
          "name": "",
          "type": "uint256"
        }
      ],
      "stateMutability": "view",
      "type": "function"
    },
    {
      "inputs": [
        {
          "internalType": "uint256",
          "name": "id",
          "type": "uint256"
        }
      ],
      "name": "exists",
      "outputs": [
        {
          "internalType": "bool",
          "name": "",
          "type": "bool"
        }
      ],
      "stateMutability": "view",
      "type": "function"
    },
    {
      "inputs": [
        {
          "internalType": "address",
          "name": "_user",
          "type": "address"
        }
      ],
      "name": "getBalanceTable",
      "outputs": [
        {
          "internalType": "uint256[]",
          "name": "",
          "type": "uint256[]"
        }
      ],
      "stateMutability": "view",
      "type": "function"
    },
    {
      "inputs": [],
      "name": "getCurrentPresaleWeek",
      "outputs": [
        {
          "internalType": "uint256",
          "name": "",
          "type": "uint256"
        }
      ],
      "stateMutability": "view",
      "type": "function"
    },
    {
      "inputs": [
        {
          "internalType": "enum ISafeNFT.Tiers",
          "name": "_tier",
          "type": "uint8"
        }
      ],
      "name": "getFairPrice",
      "outputs": [
        {
          "internalType": "uint256",
          "name": "",
          "type": "uint256"
        }
      ],
      "stateMutability": "view",
      "type": "function"
    },
    {
      "inputs": [],
      "name": "getFairPriceTable",
      "outputs": [
        {
          "internalType": "uint256[]",
          "name": "",
          "type": "uint256[]"
        }
      ],
      "stateMutability": "view",
      "type": "function"
    },
    {
      "inputs": [],
      "name": "getMyBalanceTable",
      "outputs": [
        {
          "internalType": "uint256[]",
          "name": "",
          "type": "uint256[]"
        }
      ],
      "stateMutability": "view",
      "type": "function"
    },
    {
      "inputs": [],
      "name": "getMyPendingRewardsTotal",
      "outputs": [
        {
          "internalType": "uint256",
          "name": "",
          "type": "uint256"
        }
      ],
      "stateMutability": "view",
      "type": "function"
    },
    {
      "inputs": [],
      "name": "getMyShareOfTreasury",
      "outputs": [
        {
          "internalType": "uint256",
          "name": "",
          "type": "uint256"
        }
      ],
      "stateMutability": "view",
      "type": "function"
    },
    {
      "inputs": [
        {
          "internalType": "address",
          "name": "_user",
          "type": "address"
        },
        {
          "internalType": "enum ISafeNFT.Tiers",
          "name": "_tier",
          "type": "uint8"
        },
        {
          "internalType": "uint256",
          "name": "_distributionId",
          "type": "uint256"
        }
      ],
      "name": "getPendingRewards",
      "outputs": [
        {
          "internalType": "uint256",
          "name": "",
          "type": "uint256"
        }
      ],
      "stateMutability": "view",
      "type": "function"
    },
    {
      "inputs": [
        {
          "internalType": "enum ISafeNFT.Tiers",
          "name": "_tier",
          "type": "uint8"
        }
      ],
      "name": "getPrice",
      "outputs": [
        {
          "internalType": "uint256",
          "name": "",
          "type": "uint256"
        }
      ],
      "stateMutability": "view",
      "type": "function"
    },
    {
      "inputs": [],
      "name": "getPriceTable",
      "outputs": [
        {
          "internalType": "uint256[]",
          "name": "",
          "type": "uint256[]"
        }
      ],
      "stateMutability": "view",
      "type": "function"
    },
    {
      "inputs": [
        {
          "internalType": "bytes32",
          "name": "role",
          "type": "bytes32"
        }
      ],
      "name": "getRoleAdmin",
      "outputs": [
        {
          "internalType": "bytes32",
          "name": "",
          "type": "bytes32"
        }
      ],
      "stateMutability": "view",
      "type": "function"
    },
    {
      "inputs": [
        {
          "internalType": "bytes32",
          "name": "role",
          "type": "bytes32"
        },
        {
          "internalType": "uint256",
          "name": "index",
          "type": "uint256"
        }
      ],
      "name": "getRoleMember",
      "outputs": [
        {
          "internalType": "address",
          "name": "",
          "type": "address"
        }
      ],
      "stateMutability": "view",
      "type": "function"
    },
    {
      "inputs": [
        {
          "internalType": "bytes32",
          "name": "role",
          "type": "bytes32"
        }
      ],
      "name": "getRoleMemberCount",
      "outputs": [
        {
          "internalType": "uint256",
          "name": "",
          "type": "uint256"
        }
      ],
      "stateMutability": "view",
      "type": "function"
    },
    {
      "inputs": [],
      "name": "getTotalSupplyAllTiers",
      "outputs": [
        {
          "internalType": "uint256",
          "name": "",
          "type": "uint256"
        }
      ],
      "stateMutability": "view",
      "type": "function"
    },
    {
      "inputs": [],
      "name": "getTreasuryCost",
      "outputs": [
        {
          "internalType": "uint256",
          "name": "",
          "type": "uint256"
        }
      ],
      "stateMutability": "view",
      "type": "function"
    },
    {
      "inputs": [],
      "name": "getUnclaimedRewards",
      "outputs": [
        {
          "internalType": "uint256",
          "name": "",
          "type": "uint256"
        }
      ],
      "stateMutability": "view",
      "type": "function"
    },
    {
      "inputs": [
        {
          "internalType": "bytes32",
          "name": "role",
          "type": "bytes32"
        },
        {
          "internalType": "address",
          "name": "account",
          "type": "address"
        }
      ],
      "name": "grantRole",
      "outputs": [],
      "stateMutability": "nonpayable",
      "type": "function"
    },
    {
      "inputs": [
        {
          "internalType": "bytes32",
          "name": "role",
          "type": "bytes32"
        },
        {
          "internalType": "address",
          "name": "account",
          "type": "address"
        }
      ],
      "name": "hasRole",
      "outputs": [
        {
          "internalType": "bool",
          "name": "",
          "type": "bool"
        }
      ],
      "stateMutability": "view",
      "type": "function"
    },
    {
      "inputs": [
        {
          "internalType": "string",
          "name": "_uri",
          "type": "string"
        },
        {
          "internalType": "uint256[4]",
          "name": "_price",
          "type": "uint256[4]"
        },
        {
          "internalType": "uint256[4]",
          "name": "_maxSupply",
          "type": "uint256[4]"
        },
        {
          "internalType": "contract ISafeToken",
          "name": "_safeToken",
          "type": "address"
        },
        {
          "internalType": "uint256[2]",
          "name": "_priceDistributionOnMint",
          "type": "uint256[2]"
        },
        {
          "internalType": "uint256",
          "name": "_referralShareForNFTPurchase",
          "type": "uint256"
        },
        {
          "internalType": "uint256[2]",
          "name": "_profitDistribution",
          "type": "uint256[2]"
        },
        {
          "internalType": "address",
          "name": "_stabilizerWallet",
          "type": "address"
        }
      ],
      "name": "initialize",
      "outputs": [],
      "stateMutability": "nonpayable",
      "type": "function"
    },
    {
      "inputs": [
        {
          "internalType": "address",
          "name": "account",
          "type": "address"
        },
        {
          "internalType": "address",
          "name": "operator",
          "type": "address"
        }
      ],
      "name": "isApprovedForAll",
      "outputs": [
        {
          "internalType": "bool",
          "name": "",
          "type": "bool"
        }
      ],
      "stateMutability": "view",
      "type": "function"
    },
    {
      "inputs": [
        {
          "internalType": "uint256",
          "name": "",
          "type": "uint256"
        }
      ],
      "name": "maxSupply",
      "outputs": [
        {
          "internalType": "uint256",
          "name": "",
          "type": "uint256"
        }
      ],
      "stateMutability": "view",
      "type": "function"
    },
    {
      "inputs": [
        {
          "internalType": "address",
          "name": "to",
          "type": "address"
        },
        {
          "internalType": "uint256",
          "name": "id",
          "type": "uint256"
        },
        {
          "internalType": "uint256",
          "name": "amount",
          "type": "uint256"
        },
        {
          "internalType": "bytes",
          "name": "data",
          "type": "bytes"
        }
      ],
      "name": "mint",
      "outputs": [],
      "stateMutability": "nonpayable",
      "type": "function"
    },
    {
      "inputs": [
        {
          "internalType": "address",
          "name": "to",
          "type": "address"
        },
        {
          "internalType": "uint256[]",
          "name": "ids",
          "type": "uint256[]"
        },
        {
          "internalType": "uint256[]",
          "name": "amounts",
          "type": "uint256[]"
        },
        {
          "internalType": "bytes",
          "name": "data",
          "type": "bytes"
        }
      ],
      "name": "mintBatch",
      "outputs": [],
      "stateMutability": "nonpayable",
      "type": "function"
    },
    {
      "inputs": [],
      "name": "name",
      "outputs": [
        {
          "internalType": "string",
          "name": "",
          "type": "string"
        }
      ],
      "stateMutability": "view",
      "type": "function"
    },
    {
      "inputs": [],
      "name": "pause",
      "outputs": [],
      "stateMutability": "nonpayable",
      "type": "function"
    },
    {
      "inputs": [],
      "name": "paused",
      "outputs": [
        {
          "internalType": "bool",
          "name": "",
          "type": "bool"
        }
      ],
      "stateMutability": "view",
      "type": "function"
    },
    {
      "inputs": [],
      "name": "presale",
      "outputs": [
        {
          "internalType": "bool",
          "name": "",
          "type": "bool"
        }
      ],
      "stateMutability": "view",
      "type": "function"
    },
    {
      "inputs": [
        {
          "internalType": "uint256",
          "name": "",
          "type": "uint256"
        },
        {
          "internalType": "uint256",
          "name": "",
          "type": "uint256"
        }
      ],
      "name": "presalePrice",
      "outputs": [
        {
          "internalType": "uint256",
          "name": "",
          "type": "uint256"
        }
      ],
      "stateMutability": "view",
      "type": "function"
    },
    {
      "inputs": [],
      "name": "presaleStartDate",
      "outputs": [
        {
          "internalType": "uint256",
          "name": "",
          "type": "uint256"
        }
      ],
      "stateMutability": "view",
      "type": "function"
    },
    {
      "inputs": [
        {
          "internalType": "uint256",
          "name": "",
          "type": "uint256"
        }
      ],
      "name": "price",
      "outputs": [
        {
          "internalType": "uint256",
          "name": "",
          "type": "uint256"
        }
      ],
      "stateMutability": "view",
      "type": "function"
    },
    {
      "inputs": [
        {
          "internalType": "uint256",
          "name": "",
          "type": "uint256"
        }
      ],
      "name": "priceDistributionOnMint",
      "outputs": [
        {
          "internalType": "uint256",
          "name": "",
          "type": "uint256"
        }
      ],
      "stateMutability": "view",
      "type": "function"
    },
    {
      "inputs": [
        {
          "internalType": "uint256",
          "name": "",
          "type": "uint256"
        }
      ],
      "name": "profitDistribution",
      "outputs": [
        {
          "internalType": "uint256",
          "name": "",
          "type": "uint256"
        }
      ],
      "stateMutability": "view",
      "type": "function"
    },
    {
      "inputs": [],
      "name": "referralShareForNFTPurchase",
      "outputs": [
        {
          "internalType": "uint256",
          "name": "",
          "type": "uint256"
        }
      ],
      "stateMutability": "view",
      "type": "function"
    },
    {
      "inputs": [
        {
          "internalType": "bytes32",
          "name": "role",
          "type": "bytes32"
        },
        {
          "internalType": "address",
          "name": "account",
          "type": "address"
        }
      ],
      "name": "renounceRole",
      "outputs": [],
      "stateMutability": "nonpayable",
      "type": "function"
    },
    {
      "inputs": [
        {
          "internalType": "bytes32",
          "name": "role",
          "type": "bytes32"
        },
        {
          "internalType": "address",
          "name": "account",
          "type": "address"
        }
      ],
      "name": "revokeRole",
      "outputs": [],
      "stateMutability": "nonpayable",
      "type": "function"
    },
    {
      "inputs": [
        {
          "internalType": "address",
          "name": "from",
          "type": "address"
        },
        {
          "internalType": "address",
          "name": "to",
          "type": "address"
        },
        {
          "internalType": "uint256[]",
          "name": "ids",
          "type": "uint256[]"
        },
        {
          "internalType": "uint256[]",
          "name": "amounts",
          "type": "uint256[]"
        },
        {
          "internalType": "bytes",
          "name": "data",
          "type": "bytes"
        }
      ],
      "name": "safeBatchTransferFrom",
      "outputs": [],
      "stateMutability": "nonpayable",
      "type": "function"
    },
    {
      "inputs": [],
      "name": "safeToken",
      "outputs": [
        {
          "internalType": "contract ISafeToken",
          "name": "",
          "type": "address"
        }
      ],
      "stateMutability": "view",
      "type": "function"
    },
    {
      "inputs": [
        {
          "internalType": "address",
          "name": "from",
          "type": "address"
        },
        {
          "internalType": "address",
          "name": "to",
          "type": "address"
        },
        {
          "internalType": "uint256",
          "name": "id",
          "type": "uint256"
        },
        {
          "internalType": "uint256",
          "name": "amount",
          "type": "uint256"
        },
        {
          "internalType": "bytes",
          "name": "data",
          "type": "bytes"
        }
      ],
      "name": "safeTransferFrom",
      "outputs": [],
      "stateMutability": "nonpayable",
      "type": "function"
    },
    {
      "inputs": [],
      "name": "safeVault",
      "outputs": [
        {
          "internalType": "contract ISafeVault",
          "name": "",
          "type": "address"
        }
      ],
      "stateMutability": "view",
      "type": "function"
    },
    {
      "inputs": [
        {
          "internalType": "address",
          "name": "operator",
          "type": "address"
        },
        {
          "internalType": "bool",
          "name": "approved",
          "type": "bool"
        }
      ],
      "name": "setApprovalForAll",
      "outputs": [],
      "stateMutability": "nonpayable",
      "type": "function"
    },
    {
      "inputs": [
        {
          "internalType": "uint256[][]",
          "name": "_presalePrice",
          "type": "uint256[][]"
        }
      ],
      "name": "setDiscountedPriceTable",
      "outputs": [],
      "stateMutability": "nonpayable",
      "type": "function"
    },
    {
      "inputs": [
        {
          "internalType": "uint256",
          "name": "_launchDate",
          "type": "uint256"
        }
      ],
      "name": "setPresaleStartDate",
      "outputs": [],
      "stateMutability": "nonpayable",
      "type": "function"
    },
    {
      "inputs": [],
      "name": "stabilizerWallet",
      "outputs": [
        {
          "internalType": "address",
          "name": "",
          "type": "address"
        }
      ],
      "stateMutability": "view",
      "type": "function"
    },
    {
      "inputs": [
        {
          "internalType": "bytes4",
          "name": "interfaceId",
          "type": "bytes4"
        }
      ],
      "name": "supportsInterface",
      "outputs": [
        {
          "internalType": "bool",
          "name": "",
          "type": "bool"
        }
      ],
      "stateMutability": "view",
      "type": "function"
    },
    {
      "inputs": [],
      "name": "togglePresale",
      "outputs": [],
      "stateMutability": "nonpayable",
      "type": "function"
    },
    {
      "inputs": [
        {
          "internalType": "uint256",
          "name": "id",
          "type": "uint256"
        }
      ],
      "name": "totalSupply",
      "outputs": [
        {
          "internalType": "uint256",
          "name": "",
          "type": "uint256"
        }
      ],
      "stateMutability": "view",
      "type": "function"
    },
    {
      "inputs": [],
      "name": "unpause",
      "outputs": [],
      "stateMutability": "nonpayable",
      "type": "function"
    },
    {
      "inputs": [
        {
          "internalType": "uint256",
          "name": "",
          "type": "uint256"
        }
      ],
      "name": "uri",
      "outputs": [
        {
          "internalType": "string",
          "name": "",
          "type": "string"
        }
      ],
      "stateMutability": "view",
      "type": "function"
    },
    {
      "inputs": [],
      "name": "usd",
      "outputs": [
        {
          "internalType": "contract IERC20",
          "name": "",
          "type": "address"
        }
      ],
      "stateMutability": "view",
      "type": "function"
    },
    {
      "inputs": [
        {
          "internalType": "uint256",
          "name": "",
          "type": "uint256"
        }
      ],
      "name": "wallets",
      "outputs": [
        {
          "internalType": "address",
          "name": "",
          "type": "address"
        }
      ],
      "stateMutability": "view",
      "type": "function"
    }
  ],
  "bytecode": "0x60806040523480156200001157600080fd5b50604051620068a6380380620068a68339810160408190526200003491620008af565b87806200004181620000b5565b506007805460ff1916905562000059600033620000c7565b620000746000805160206200688683398151915233620000c7565b6200008f6000805160206200686683398151915233620000c7565b506001600955620000a78888888888888888620000d3565b505050505050505062000bf4565b6006620000c3828262000a76565b5050565b620000c382826200050e565b6000620000ed600080516020620068468339815191525490565b90506001600160a01b0381166200011d576001600160a01b03600080516020620068468339815191525562000133565b336001600160a01b038216146200013357600080fd5b6200013e89620000b5565b6200014b600033620000c7565b620001666000805160206200688683398151915233620000c7565b620001816000805160206200686683398151915233620000c7565b62000190600a89600462000671565b50620001a0601e88600462000671565b50602380546001600160a01b0319166001600160a01b038816179055620001cb6026866002620006b4565b50602a849055620001e06028846002620006b4565b50602b80546001600160a01b0319166001600160a01b03848116919091179091556023546040805163db7a460560e01b815281516200027394939093169263db7a4605926004808401939192918290030181865afa15801562000247573d6000803e3d6000fd5b505050506040513d601f19601f820116820180604052508101906200026d919062000b42565b62000551565b602360009054906101000a90046001600160a01b03166001600160a01b031663deef94de6040518163ffffffff1660e01b8152600401602060405180830381865afa158015620002c7573d6000803e3d6000fd5b505050506040513d601f19601f82011682018060405250810190620002ed919062000ba9565b602480546001600160a01b0319166001600160a01b039283161790556023546040805163d63a6ccd60e01b81529051919092169163d63a6ccd9160048083019260209291908290030181865afa1580156200034c573d6000803e3d6000fd5b505050506040513d601f19601f8201168201806040525081019062000372919062000ba9565b602580546001600160a01b0319166001600160a01b0392831690811790915560235460405163095ea7b360e01b81529216600483015260001960248301529063095ea7b3906044016020604051808303816000875af1158015620003da573d6000803e3d6000fd5b505050506040513d601f19601f8201168201806040525081019062000400919062000bd0565b506025546024805460405163095ea7b360e01b81526001600160a01b039182166004820152600019928101929092529091169063095ea7b3906044016020604051808303816000875af11580156200045c573d6000803e3d6000fd5b505050506040513d601f19601f8201168201806040525081019062000482919062000bd0565b5060235460405163095ea7b360e01b81526001600160a01b039091166004820181905260001960248301529063095ea7b3906044016020604051808303816000875af1158015620004d7573d6000803e3d6000fd5b505050506040513d601f19601f82011682018060405250810190620004fd919062000bd0565b50506000602c555050505050505050565b6200052582826200055f60201b62002cd61760201c565b60008281526001602090815260409091206200054c91839062002d5a620005ff821b17901c565b505050565b620000c360028281620006e4565b6000828152602081815260408083206001600160a01b038516845290915290205460ff16620000c3576000828152602081815260408083206001600160a01b03851684529091529020805460ff19166001179055620005bb3390565b6001600160a01b0316816001600160a01b0316837f2f8788117e7eff1d82e926ec794901d17c78024a50270940304540a733656f0d60405160405180910390a45050565b600062000616836001600160a01b0384166200061f565b90505b92915050565b6000818152600183016020526040812054620006685750815460018181018455600084815260208082209093018490558454848252828601909352604090209190915562000619565b50600062000619565b8260048101928215620006a2579160200282015b82811115620006a257825182559160200191906001019062000685565b50620006b09291506200072f565b5090565b8260028101928215620006a25791602002820182811115620006a257825182559160200191906001019062000685565b8260028101928215620006a2579160200282015b82811115620006a257825182546001600160a01b0319166001600160a01b03909116178255602090920191600190910190620006f8565b5b80821115620006b0576000815560010162000730565b634e487b7160e01b600052604160045260246000fd5b604080519081016001600160401b038111828210171562000781576200078162000746565b60405290565b604051601f8201601f191681016001600160401b0381118282101715620007b257620007b262000746565b604052919050565b600082601f830112620007cc57600080fd5b604051608081016001600160401b0381118282101715620007f157620007f162000746565b6040528060808401858111156200080757600080fd5b845b818110156200082357805183526020928301920162000809565b509195945050505050565b6001600160a01b03811681146200084457600080fd5b50565b805162000854816200082e565b919050565b600082601f8301126200086b57600080fd5b620008756200075c565b8060408401858111156200088857600080fd5b845b81811015620008a45780518452602093840193016200088a565b509095945050505050565b600080600080600080600080610200898b031215620008cd57600080fd5b88516001600160401b0380821115620008e557600080fd5b818b0191508b601f830112620008fa57600080fd5b8151818111156200090f576200090f62000746565b6020915062000927601f8201601f1916830162000787565b8181528d838386010111156200093c57600080fd5b60005b828110156200095c5784810184015182820185015283016200093f565b506000838383010152809b505050620009788c828d01620007ba565b985050506200098b8a60a08b01620007ba565b95506200099c6101208a0162000847565b9450620009ae8a6101408b0162000859565b93506101808901519250620009c88a6101a08b0162000859565b9150620009d96101e08a0162000847565b90509295985092959890939650565b600181811c90821680620009fd57607f821691505b60208210810362000a1e57634e487b7160e01b600052602260045260246000fd5b50919050565b601f8211156200054c57600081815260208120601f850160051c8101602086101562000a4d5750805b601f850160051c820191505b8181101562000a6e5782815560010162000a59565b505050505050565b81516001600160401b0381111562000a925762000a9262000746565b62000aaa8162000aa38454620009e8565b8462000a24565b602080601f83116001811462000ae2576000841562000ac95750858301515b600019600386901b1c1916600185901b17855562000a6e565b600085815260208120601f198616915b8281101562000b135788860151825594840194600190910190840162000af2565b508582101562000b325787850151600019600388901b60f8161c191681555b5050505050600190811b01905550565b60006040828403121562000b5557600080fd5b82601f83011262000b6557600080fd5b62000b6f6200075c565b80604084018581111562000b8257600080fd5b845b81811015620008a457805162000b9a816200082e565b84526020938401930162000b84565b60006020828403121562000bbc57600080fd5b815162000bc9816200082e565b9392505050565b60006020828403121562000be357600080fd5b8151801515811462000bc957600080fd5b615c428062000c046000396000f3fe608060405234801561001057600080fd5b506004361061041b5760003560e01c80636ac600681161022b578063ca15c87311610130578063deef94de116100b8578063f03f1e5111610087578063f03f1e5114610942578063f0b2df891461094a578063f242432a1461095d578063f5298aca14610970578063fdea8e0b1461098357600080fd5b8063deef94de146108b9578063df71da76146108cc578063e63ab1e9146108df578063e985e9c51461090657600080fd5b8063d36122b8116100ff578063d36122b814610851578063d36dfac814610859578063d53913931461086c578063d547741f14610893578063d63a6ccd146108a657600080fd5b8063ca15c873146107e7578063ca7b2447146107fa578063ced79ce01461080d578063d0d5a1ba1461083e57600080fd5b80638456cb59116101b357806391d148541161018257806391d1485414610791578063a1f5c239146107a4578063a217fddf146107ac578063a22cb465146107b4578063bd85b039146107c757600080fd5b80638456cb591461075b578063869f7594146107635780638d3bd55b146107765780639010d07c1461077e57600080fd5b8063731133e9116101fa578063731133e91461071b578063780069e01461072e5780637ad71f72146107375780637e93391a1461074a57806380a3a7831461075257600080fd5b80636ac60068146106ed5780636b20c454146107005780636d6689ea146107135780636e748f971461071357600080fd5b80632eb2c2d6116103315780634b3fd05a116102b957806352a1ad541161028857806352a1ad541461069657806353f7ffd2146106a9578063592fa65e146106bc5780635c975abb146106cf5780635e95b4fe146106da57600080fd5b80634b3fd05a146106465780634e1273f4146106595780634f558e791461066c57806351ba5b441461068e57600080fd5b806337f1e7f21161030057806337f1e7f2146105f25780633f4ba83a14610605578063418f7c511461060d57806342e0f792146106205780634407a61e1461063357600080fd5b80632eb2c2d6146105b15780632f2ff15d146105c457806334393743146105d757806336568abe146105df57600080fd5b8063104304f3116103b45780631f7fdffa116103835780631f7fdffa1461054b57806323f77fa914610560578063248a9ca31461057357806326a49e37146105965780632c13f08c146105a957600080fd5b8063104304f314610506578063162302571461051b578063168affdf146105235780631a5e85e51461054357600080fd5b806305adca38116103f057806305adca381461048557806306fdde031461048d5780630b0b73d2146104c85780630e89341c146104f357600080fd5b8062a13c4c14610420578062fdd58e1461043c57806301ffc9a71461044f57806304ca4c0714610472575b600080fd5b610429602a5481565b6040519081526020015b60405180910390f35b61042961044a366004614a00565b610997565b61046261045d366004614a42565b610a32565b6040519015158152602001610433565b610429610480366004614a5f565b610a3d565b610429610a62565b6104bb6040518060400160405280600f81526020016e14d8599948165a595b191cc8139195608a1b81525081565b6040516104339190614ad1565b602b546104db906001600160a01b031681565b6040516001600160a01b039091168152602001610433565b6104bb610501366004614ae4565b610ae3565b61050e610b77565b6040516104339190614b38565b610429610bf4565b610429610531366004614ae4565b602d6020526000908152604090205481565b610429610c8b565b61055e610559366004614cc3565b610cc6565b005b61050e61056e366004614d5d565b610d1e565b610429610581366004614ae4565b60009081526020819052604090206001015490565b6104296105a4366004614ae4565b610d91565b61050e610da8565b61055e6105bf366004614d7a565b610e1f565b61055e6105d2366004614e27565b610e6b565b61055e610e95565b61055e6105ed366004614e27565b610f22565b610429610600366004614e6b565b610fa0565b61055e610fce565b61042961061b366004614e86565b611074565b61055e61062e366004614ae4565b611141565b61055e610641366004614ec4565b6111c6565b6023546104db906001600160a01b031681565b61050e610667366004614f7f565b611342565b61046261067a366004614ae4565b600090815260086020526040902054151590565b61042961146b565b6104296106a4366004614a5f565b6114ee565b61055e6106b736600461504b565b611510565b6104296106ca366004614a5f565b611614565b60075460ff16610462565b6104296106e8366004614a5f565b611630565b61055e6106fb366004615103565b61164c565b61055e61070e3660046151d0565b611aa3565b610429600481565b61055e610729366004615245565b611ae6565b610429602c5481565b6104db610745366004614ae4565b611b38565b610429611b58565b61042960225481565b61055e611cf1565b610429610771366004614ae4565b611d95565b610429600281565b6104db61078c366004614a5f565b611da5565b61046261079f366004614e27565b611dc4565b61050e611ded565b610429600081565b61055e6107c23660046152a9565b611dff565b6104296107d5366004614ae4565b60009081526008602052604090205490565b6104296107f5366004614ae4565b611e0a565b610429610808366004614ae4565b611e21565b61042961081b3660046152d7565b603060209081526000938452604080852082529284528284209052825290205481565b61055e61084c366004615310565b611e31565b61055e6126fd565b61055e610867366004614ae4565b612768565b6104297f9f2df0fed2c77648de5860a4cc508cd0818c85b8b8a1ab4ceeef8d981c8956a681565b61055e6108a1366004614e27565b612b09565b6025546104db906001600160a01b031681565b6024546104db906001600160a01b031681565b6104296108da366004614ae4565b612b2e565b6104297f65d7a28e3265b37a6474929f336521b332c1681b933f6cb9f3376673440d862a81565b610462610914366004615345565b6001600160a01b03918216600090815260056020908152604080832093909416825291909152205460ff1690565b610429612b3e565b610429610958366004614e6b565b612ba6565b61055e61096b366004615373565b612c4e565b61055e61097e3660046153db565b612c93565b602b5461046290600160a01b900460ff1681565b60006001600160a01b038316610a075760405162461bcd60e51b815260206004820152602a60248201527f455243313135353a2061646472657373207a65726f206973206e6f742061207660448201526930b634b21037bbb732b960b11b60648201526084015b60405180910390fd5b5060008181526004602090815260408083206001600160a01b03861684529091529020545b92915050565b6000610a2c82612d6f565b602e6020528160005260406000208160048110610a5957600080fd5b01549150829050565b602b54600090600160a01b900460ff168015610a8057506000602254115b610ac25760405162461bcd60e51b8152602060048201526013602482015272141c995cd85b19481b9bdd081cdd185c9d1959606a1b60448201526064016109fe565b62093a8060225442610ad49190615426565b610ade9190615439565b905090565b606060068054610af29061545b565b80601f0160208091040260200160405190810160405280929190818152602001828054610b1e9061545b565b8015610b6b5780601f10610b4057610100808354040283529160200191610b6b565b820191906000526020600020905b815481529060010190602001808311610b4e57829003601f168201915b50505050509050919050565b60408051600480825260a08201909252606091600091906020820160808036833701905050905060005b6004811015610bee57600a8160048110610bbd57610bbd61548f565b0154828281518110610bd157610bd161548f565b602090810291909101015280610be6816154a5565b915050610ba1565b50919050565b600080805b6004811015610bee5760005b602c548111610c785760008181526031602052604090208260048110610c2d57610c2d61548f565b01546000828152602e602052604090208360048110610c4e57610c4e61548f565b0154610c5a9190615426565b610c6490846154be565b925080610c70816154a5565b915050610c05565b5080610c83816154a5565b915050610bf9565b600080805b6004811015610bee57600081815260086020526040902054610cb290836154be565b915080610cbe816154a5565b915050610c90565b610cf07f9f2df0fed2c77648de5860a4cc508cd0818c85b8b8a1ab4ceeef8d981c8956a633611dc4565b610d0c5760405162461bcd60e51b81526004016109fe906154d1565b610d1884848484612d7a565b50505050565b60408051600480825260a08201909252606091600091906020820160808036833701905050905060005b6004811015610d8a57610d5b8482610997565b828281518110610d6d57610d6d61548f565b602090810291909101015280610d82816154a5565b915050610d48565b5092915050565b600a8160048110610da157600080fd5b0154905081565b60408051600480825260a08201909252606091600091906020820160808036833701905050905060005b6004811015610bee57610df08160038111156109585761095861552e565b828281518110610e0257610e0261548f565b602090810291909101015280610e17816154a5565b915050610dd2565b6001600160a01b038516331480610e3b5750610e3b8533610914565b610e575760405162461bcd60e51b81526004016109fe90615544565b610e648585858585612ee4565b5050505050565b600082815260208190526040902060010154610e868161309f565b610e9083836130a9565b505050565b610ea0600033611dc4565b610ebc5760405162461bcd60e51b81526004016109fe90615592565b602b805460ff600160a01b808304821615810260ff60a01b1990931692909217928390556040517f512e257b3133a95bd1fef520dafc0dfb212f406af4f808d030e788c8ff536c0493610f189390049091161515815260200190565b60405180910390a1565b6001600160a01b0381163314610f925760405162461bcd60e51b815260206004820152602f60248201527f416363657373436f6e74726f6c3a2063616e206f6e6c792072656e6f756e636560448201526e103937b632b9903337b91039b2b63360891b60648201526084016109fe565b610f9c82826130cb565b5050565b6000600a826003811115610fb657610fb661552e565b60048110610fc657610fc661548f565b015492915050565b610ff87f65d7a28e3265b37a6474929f336521b332c1681b933f6cb9f3376673440d862a33611dc4565b61106a5760405162461bcd60e51b815260206004820152603b60248201527f455243313135355072657365744d696e7465725061757365723a206d7573742060448201527f686176652070617573657220726f6c6520746f20756e7061757365000000000060648201526084016109fe565b6110726130ed565b565b6000808360038111156110895761108961552e565b602c546000908152602e602052604081209192509082600481106110af576110af61548f565b015460008381526008602052604081205491925090156110fb576000838152600860205260409020546110e28885610997565b6110ec90846155e1565b6110f69190615439565b6110fe565b60005b600086815260306020908152604080832087845282528083206001600160a01b038c1684529091529020549091506111369082615426565b979650505050505050565b61114c600033611dc4565b6111685760405162461bcd60e51b81526004016109fe90615592565b4281116111c15760405162461bcd60e51b815260206004820152602160248201527f4c61756e63682064617465206d75737420626520696e207468652066757475726044820152606560f81b60648201526084016109fe565b602255565b6111d1600033611dc4565b6111ed5760405162461bcd60e51b81526004016109fe90615592565b600481511461123e5760405162461bcd60e51b815260206004820152601960248201527f496e636f7272656374206e756d626572206f66207765656b730000000000000060448201526064016109fe565b60005b6004811015610f9c57600482828151811061125e5761125e61548f565b602002602001015151146112b45760405162461bcd60e51b815260206004820152601960248201527f496e636f7272656374206e756d626572206f662074696572730000000000000060448201526064016109fe565b60005b600481101561132f578282815181106112d2576112d261548f565b602002602001015181815181106112eb576112eb61548f565b6020026020010151600e83600481106113065761130661548f565b60040201826004811061131b5761131b61548f565b015580611327816154a5565b9150506112b7565b508061133a816154a5565b915050611241565b606081518351146113a75760405162461bcd60e51b815260206004820152602960248201527f455243313135353a206163636f756e747320616e6420696473206c656e677468604482015268040dad2e6dac2e8c6d60bb1b60648201526084016109fe565b600083516001600160401b038111156113c2576113c2614b4b565b6040519080825280602002602001820160405280156113eb578160200160208202803683370190505b50905060005b84518110156114635761143685828151811061140f5761140f61548f565b60200260200101518583815181106114295761142961548f565b6020026020010151610997565b8282815181106114485761144861548f565b602090810291909101015261145c816154a5565b90506113f1565b509392505050565b60003381805b60048110156114c157600a816004811061148d5761148d61548f565b01546114998483610997565b6114a391906155e1565b6114ad90836154be565b9150806114b9816154a5565b915050611471565b5060006114cc611b58565b905080156114e3576114de8183615439565b6114e6565b60005b935050505090565b600e82600481106114fe57600080fd5b600402018160048110610a5957600080fd5b61151861313a565b336000611526828585611074565b60255460405163a9059cbb60e01b81526001600160a01b0385811660048301526024820184905292935091169063a9059cbb906044016020604051808303816000875af115801561157b573d6000803e3d6000fd5b505050506040513d601f19601f8201168201806040525081019061159f91906155f8565b50600083815260306020526040812082918660038111156115c2576115c261552e565b81526020019081526020016000206000846001600160a01b03166001600160a01b03168152602001908152602001600020600082825461160291906154be565b9091555050600160095550610f9c9050565b60316020528160005260406000208160048110610a5957600080fd5b602f6020528160005260406000208160048110610a5957600080fd5b60006116767fb53127684a568b3173ae13b9f8a6016e243e63b6e8ee1178d6a717850b5d61035490565b90506001600160a01b0381166116b5576001600160a01b037fb53127684a568b3173ae13b9f8a6016e243e63b6e8ee1178d6a717850b5d6103556116ca565b336001600160a01b038216146116ca57600080fd5b6116d389613193565b6116de60003361319f565b6117087f9f2df0fed2c77648de5860a4cc508cd0818c85b8b8a1ab4ceeef8d981c8956a63361319f565b6117327f65d7a28e3265b37a6474929f336521b332c1681b933f6cb9f3376673440d862a3361319f565b61173f600a896004614923565b5061174d601e886004614923565b50602380546001600160a01b0319166001600160a01b0388161790556117766026866002614961565b50602a8490556117896028846002614961565b50602b80546001600160a01b0319166001600160a01b03848116919091179091556023546040805163db7a460560e01b8152815161181794939093169263db7a4605926004808401939192918290030181865afa1580156117ee573d6000803e3d6000fd5b505050506040513d601f19601f820116820180604052508101906118129190615615565b6131a9565b602360009054906101000a90046001600160a01b03166001600160a01b031663deef94de6040518163ffffffff1660e01b8152600401602060405180830381865afa15801561186a573d6000803e3d6000fd5b505050506040513d601f19601f8201168201806040525081019061188e9190615677565b602480546001600160a01b0319166001600160a01b039283161790556023546040805163d63a6ccd60e01b81529051919092169163d63a6ccd9160048083019260209291908290030181865afa1580156118ec573d6000803e3d6000fd5b505050506040513d601f19601f820116820180604052508101906119109190615677565b602580546001600160a01b0319166001600160a01b0392831690811790915560235460405163095ea7b360e01b81529216600483015260001960248301529063095ea7b3906044016020604051808303816000875af1158015611977573d6000803e3d6000fd5b505050506040513d601f19601f8201168201806040525081019061199b91906155f8565b506025546024805460405163095ea7b360e01b81526001600160a01b039182166004820152600019928101929092529091169063095ea7b3906044016020604051808303816000875af11580156119f6573d6000803e3d6000fd5b505050506040513d601f19601f82011682018060405250810190611a1a91906155f8565b5060235460405163095ea7b360e01b81526001600160a01b039091166004820181905260001960248301529063095ea7b3906044016020604051808303816000875af1158015611a6e573d6000803e3d6000fd5b505050506040513d601f19601f82011682018060405250810190611a9291906155f8565b50506000602c555050505050505050565b6001600160a01b038316331480611abf5750611abf8333610914565b611adb5760405162461bcd60e51b81526004016109fe90615544565b610e908383836131b5565b611b107f9f2df0fed2c77648de5860a4cc508cd0818c85b8b8a1ab4ceeef8d981c8956a633611dc4565b611b2c5760405162461bcd60e51b81526004016109fe906154d1565b610d188484848461335e565b60028160028110611b4857600080fd5b01546001600160a01b0316905081565b6000620f4240602360009054906101000a90046001600160a01b03166001600160a01b031663a035b1fe6040518163ffffffff1660e01b8152600401602060405180830381865afa158015611bb1573d6000803e3d6000fd5b505050506040513d601f19601f82011682018060405250810190611bd59190615694565b6023546001600160a01b03166370a0823160026000015460405160e083901b6001600160e01b03191681526001600160a01b039091166004820152602401602060405180830381865afa158015611c30573d6000803e3d6000fd5b505050506040513d601f19601f82011682018060405250810190611c549190615694565b611c5e91906155e1565b611c689190615439565b6025546001600160a01b03166370a0823160026000015460405160e083901b6001600160e01b03191681526001600160a01b039091166004820152602401602060405180830381865afa158015611cc3573d6000803e3d6000fd5b505050506040513d601f19601f82011682018060405250810190611ce79190615694565b610ade91906154be565b611d1b7f65d7a28e3265b37a6474929f336521b332c1681b933f6cb9f3376673440d862a33611dc4565b611d8d5760405162461bcd60e51b815260206004820152603960248201527f455243313135355072657365744d696e7465725061757365723a206d7573742060448201527f686176652070617573657220726f6c6520746f2070617573650000000000000060648201526084016109fe565b611072613458565b601e8160048110610da157600080fd5b6000828152600160205260408120611dbd9083613495565b9392505050565b6000918252602082815260408084206001600160a01b0393909316845291905290205460ff1690565b606033611df981610d1e565b91505090565b610f9c3383836134a1565b6000818152600160205260408120610a2c90613581565b60288160028110610da157600080fd5b611e3961313a565b611e646040518060400160405280600a815260200169189d5e5a5b99c813919560b21b81525061358b565b60008211611eda5760405162461bcd60e51b815260206004820152603860248201527f455243313135355072657365744d696e7465725061757365723a20616d6f756e60448201527f74206d7573742062652067726561746572207468616e2030000000000000000060648201526084016109fe565b6000600a846003811115611ef057611ef061552e565b60048110611f0057611f0061548f565b015411611f755760405162461bcd60e51b815260206004820152603c60248201527f455243313135355072657365744d696e7465725061757365723a20746965722060448201527f7072696365206d7573742062652067726561746572207468616e20300000000060648201526084016109fe565b6001600160a01b0381161580159080611f9f5750808015611f9f57506001600160a01b0382163314155b611ffa5760405162461bcd60e51b815260206004820152602660248201527f526566657272616c206d75737420626520646966666572656e742066726f6d2060448201526539b2b73232b960d11b60648201526084016109fe565b600084600381111561200e5761200e61552e565b602b54909150600160a01b900460ff1661240357600084600a8760038111156120395761203961552e565b600481106120495761204961548f565b015461205591906155e1565b905061208e604051806040016040528060158152602001747472616e7366657272696e6720757364507269636560581b815250826135ce565b6025546001600160a01b03166323b872dd336040516001600160e01b031960e084901b1681526001600160a01b039091166004820152306024820152604481018490526064016020604051808303816000875af11580156120f3573d6000803e3d6000fd5b505050506040513d601f19601f8201168201806040525081019061211791906155f8565b5060006121348260268661212c576000613613565b602a54613613565b90506121756040518060400160405280601a81526020017f7472616e7366657272696e6720746f53656c6c466f7253616665000000000000815250826135ce565b60235460405163f7e0ba5f60e01b8152600481018390526000916001600160a01b03169063f7e0ba5f906024016020604051808303816000875af11580156121c1573d6000803e3d6000fd5b505050506040513d601f19601f820116820180604052508101906121e59190615694565b905061222260405180604001604052806019815260200178039b0b332a0b6b7bab73a103932ba3ab93732b210333937b69603d1b815250826135ce565b60235460009061223d906001600160a01b0316836026613682565b905061227e6040518060400160405280601f81526020017f7472616e7366657272656420746f2070726f746f636f6c2077616c6c65747300815250826135ce565b85156122e75760006122a9602360009054906101000a90046001600160a01b0316848a602a54613937565b90506122d96040518060400160405280600c81526020016b726566657272616c2066656560a01b815250826135ce565b6122e381836154be565b9150505b6123266040518060400160405280601c81526020017f746f74616c207472616e7366657272656420746f2077616c6c65747300000000815250826135ce565b6025546040516370a0823160e01b81523060048201526000916001600160a01b0316906370a0823190602401602060405180830381865afa15801561236f573d6000803e3d6000fd5b505050506040513d601f19601f820116820180604052508101906123939190615694565b905080156123f9576024805460405163b6b55f2560e01b8152600481018490526001600160a01b039091169163b6b55f259101600060405180830381600087803b1580156123e057600080fd5b505af11580156123f4573d6000803e3d6000fd5b505050505b50505050506126d6565b6000600e6001612411610a62565b61241b9190615426565b6004811061242b5761242b61548f565b60408051608081019182905292600492830201919082845b8154815260200190600101908083116124435750505050509050600085828860038111156124735761247361552e565b600481106124835761248361548f565b602002015161249291906155e1565b90506124cb604051806040016040528060158152602001747472616e7366657272696e6720757364507269636560581b815250826135ce565b6025546001600160a01b03166323b872dd336040516001600160e01b031960e084901b1681526001600160a01b039091166004820152306024820152604481018490526064016020604051808303816000875af1158015612530573d6000803e3d6000fd5b505050506040513d601f19601f8201168201806040525081019061255491906155f8565b50600084612563576000612580565b602554602a54612580916001600160a01b03169084908990613937565b9050600085156125915760006125bc565b6025546125bc906001600160a01b031684600260000154602a546001600160a01b0390911690613937565b6025549091506000906125da906001600160a01b0316856026613682565b6025546040516370a0823160e01b81523060048201529192506000916001600160a01b03909116906370a0823190602401602060405180830381865afa158015612628573d6000803e3d6000fd5b505050506040513d601f19601f8201168201806040525081019061264c9190615694565b905080156126cf57602554602b5460405163a9059cbb60e01b81526001600160a01b0391821660048201526024810184905291169063a9059cbb906044016020604051808303816000875af11580156126a9573d6000803e3d6000fd5b505050506040513d601f19601f820116820180604052508101906126cd91906155f8565b505b5050505050505b6126f13382866040518060200160405280600081525061335e565b5050610e906001600955565b61270561313a565b60005b600481101561275d5760005b602c54811161274a576127388260038111156127325761273261552e565b82611510565b80612742816154a5565b915050612714565b5080612755816154a5565b915050612708565b506110726001600955565b61277061313a565b6127a7604051806040016040528060158152602001747472616e7366657272696e6720757364507269636560581b815250826135ce565b6025546001600160a01b03166323b872dd336040516001600160e01b031960e084901b1681526001600160a01b039091166004820152306024820152604481018490526064016020604051808303816000875af115801561280c573d6000803e3d6000fd5b505050506040513d601f19601f8201168201806040525081019061283091906155f8565b50600061283e600283615439565b9050600061285861284f8385615426565b60286000613613565b90506128996040518060400160405280601a81526020017f7472616e7366657272696e6720746f53656c6c466f7253616665000000000000815250826135ce565b60235460405163f7e0ba5f60e01b8152600481018390526000916001600160a01b03169063f7e0ba5f906024016020604051808303816000875af11580156128e5573d6000803e3d6000fd5b505050506040513d601f19601f820116820180604052508101906129099190615694565b905061294660405180604001604052806019815260200178039b0b332a0b6b7bab73a103932ba3ab93732b210333937b69603d1b815250826135ce565b602354600090612961906001600160a01b0316836028613682565b602c80549192506000612973836154a5565b9091555050602c546000908152602d60205260408120829055612994610c8b565b905060005b6004811015612a2257600081815260086020908152604080832054602c548452602f909252909120819083600481106129d4576129d461548f565b0155826129e182896155e1565b6129eb9190615439565b602c546000908152602e602052604090208360048110612a0d57612a0d61548f565b01555080612a1a816154a5565b915050612999565b506025546040516370a0823160e01b81523060048201526000916001600160a01b0316906370a0823190602401602060405180830381865afa158015612a6c573d6000803e3d6000fd5b505050506040513d601f19601f82011682018060405250810190612a909190615694565b90508015612af6576024805460405163b6b55f2560e01b8152600481018490526001600160a01b039091169163b6b55f259101600060405180830381600087803b158015612add57600080fd5b505af1158015612af1573d6000803e3d6000fd5b505050505b505050505050612b066001600955565b50565b600082815260208190526040902060010154612b248161309f565b610e9083836130cb565b60268160028110610da157600080fd5b60003381805b6004811015610d8a5760005b602c548111612b9357612b7584836003811115612b6f57612b6f61552e565b83611074565b612b7f90846154be565b925080612b8b816154a5565b915050612b50565b5080612b9e816154a5565b915050612b44565b6000612bbd8260038111156107d5576107d561552e565b15612bdc57612bd78260038111156107d5576107d561552e565b612bdf565b60015b602c546000908152602e60205260409020836003811115612c0257612c0261552e565b60048110612c1257612c1261548f565b0154612c1e9190615439565b600a836003811115612c3257612c3261552e565b60048110612c4257612c4261548f565b0154610a2c91906154be565b6001600160a01b038516331480612c6a5750612c6a8533610914565b612c865760405162461bcd60e51b81526004016109fe90615544565b610e648585858585613c1d565b6001600160a01b038316331480612caf5750612caf8333610914565b612ccb5760405162461bcd60e51b81526004016109fe90615544565b610e90838383613d67565b612ce08282611dc4565b610f9c576000828152602081815260408083206001600160a01b03851684529091529020805460ff19166001179055612d163390565b6001600160a01b0316816001600160a01b0316837f2f8788117e7eff1d82e926ec794901d17c78024a50270940304540a733656f0d60405160405180910390a45050565b6000611dbd836001600160a01b038416613e8d565b6000610a2c82613edc565b6001600160a01b038416612da05760405162461bcd60e51b81526004016109fe906156ad565b8151835114612dc15760405162461bcd60e51b81526004016109fe906156ee565b33612dd181600087878787613f1c565b60005b8451811015612e6d57838181518110612def57612def61548f565b602002602001015160046000878481518110612e0d57612e0d61548f565b602002602001015181526020019081526020016000206000886001600160a01b03166001600160a01b031681526020019081526020016000206000828254612e5591906154be565b90915550819050612e65816154a5565b915050612dd4565b50846001600160a01b031660006001600160a01b0316826001600160a01b03167f4a39dc06d4c0dbc64b70af90fd698a233a518aa5d07e595d983b8c0526c8f7fb8787604051612ebe929190615736565b60405180910390a4612ed581600087878787613f2a565b610e6481600087878787613fdc565b8151835114612f055760405162461bcd60e51b81526004016109fe906156ee565b6001600160a01b038416612f2b5760405162461bcd60e51b81526004016109fe9061575b565b33612f3a818787878787613f1c565b60005b8451811015613023576000858281518110612f5a57612f5a61548f565b602002602001015190506000858381518110612f7857612f7861548f565b60209081029190910181015160008481526004835260408082206001600160a01b038e168352909352919091205490915081811015612fc95760405162461bcd60e51b81526004016109fe906157a0565b60008381526004602090815260408083206001600160a01b038e8116855292528083208585039055908b168252812080548492906130089084906154be565b925050819055505050508061301c906154a5565b9050612f3d565b50846001600160a01b0316866001600160a01b0316826001600160a01b03167f4a39dc06d4c0dbc64b70af90fd698a233a518aa5d07e595d983b8c0526c8f7fb8787604051613073929190615736565b60405180910390a4613089818787878787613f2a565b613097818787878787613fdc565b505050505050565b612b068133614137565b6130b38282612cd6565b6000828152600160205260409020610e909082612d5a565b6130d58282614190565b6000828152600160205260409020610e9090826141f5565b6130f561420a565b6007805460ff191690557f5db9ee0a495bf2e6ff9c91a7834c1ba4fdd244a5e8aa4e537bd38aeae4b073aa335b6040516001600160a01b039091168152602001610f18565b60026009540361318c5760405162461bcd60e51b815260206004820152601f60248201527f5265656e7472616e637947756172643a207265656e7472616e742063616c6c0060448201526064016109fe565b6002600955565b6006610f9c8282615830565b610f9c82826130a9565b610f9c6002828161498e565b6001600160a01b0383166131db5760405162461bcd60e51b81526004016109fe906158ef565b80518251146131fc5760405162461bcd60e51b81526004016109fe906156ee565b600033905061321f81856000868660405180602001604052806000815250613f1c565b60005b83518110156132e757600084828151811061323f5761323f61548f565b60200260200101519050600084838151811061325d5761325d61548f565b60209081029190910181015160008481526004835260408082206001600160a01b038c1683529093529190912054909150818110156132ae5760405162461bcd60e51b81526004016109fe90615932565b60009283526004602090815260408085206001600160a01b038b16865290915290922091039055806132df816154a5565b915050613222565b5060006001600160a01b0316846001600160a01b0316826001600160a01b03167f4a39dc06d4c0dbc64b70af90fd698a233a518aa5d07e595d983b8c0526c8f7fb8686604051613338929190615736565b60405180910390a4610d1881856000868660405180602001604052806000815250613f2a565b6001600160a01b0384166133845760405162461bcd60e51b81526004016109fe906156ad565b33600061339085614253565b9050600061339d85614253565b90506133ae83600089858589613f1c565b60008681526004602090815260408083206001600160a01b038b168452909152812080548792906133e09084906154be565b909155505060408051878152602081018790526001600160a01b03808a1692600092918716917fc3d58168c5ae7397731d063d5bbf3d657854427343f4c083240f7aacaa2d0f62910160405180910390a461344083600089858589613f2a565b61344f8360008989898961429e565b50505050505050565b613460614359565b6007805460ff191660011790557f62e78cea01bee320cd4e420270b5ea74000d11b0c9f74754ebdbfc544b05a2586131223390565b6000611dbd838361439f565b816001600160a01b0316836001600160a01b0316036135145760405162461bcd60e51b815260206004820152602960248201527f455243313135353a2073657474696e6720617070726f76616c20737461747573604482015268103337b91039b2b63360b91b60648201526084016109fe565b6001600160a01b03838116600081815260056020908152604080832094871680845294825291829020805460ff191686151590811790915591519182527f17307eab39ab6107e8899845ad3d59bd9653f200f220920489ca2b5937696c31910160405180910390a3505050565b6000610a2c825490565b612b068160405160240161359f9190614ad1565b60408051601f198184030181529190526020810180516001600160e01b031663104c13eb60e21b1790526143c9565b610f9c82826040516024016135e4929190615976565b60408051601f198184030181529190526020810180516001600160e01b0316632d839cb360e21b1790526143c9565b600080805b6002811015613653578481600281106136335761363361548f565b015461363f90836154be565b91508061364b816154a5565b915050613618565b5061365e83826154be565b90506305f5e10061366f82876155e1565b6136799190615439565b95945050505050565b60006136c26040518060400160405280601781526020017f2d2d205f64697374726962757465207374617274202d2d00000000000000000081525061358b565b6136f36040518060400160405280600f81526020016e446973747269627574696e6720257360881b815250846135ce565b604080518082018252600a81526962616c616e636520257360b01b602082015290516370a0823160e01b815230600482015261378491906001600160a01b038716906370a0823190602401602060405180830381865afa15801561375b573d6000803e3d6000fd5b505050506040513d601f19601f8201168201806040525081019061377f9190615694565b6135ce565b6000805b60028110156138c85760006305f5e1008583600281106137aa576137aa61548f565b01546137b690886155e1565b6137c09190615439565b90506138126040518060400160405280601081526020016f73656e64696e6720257320746f20257360801b81525082600285600281106138025761380261548f565b01546001600160a01b03166143ea565b866001600160a01b031663a9059cbb600284600281106138345761383461548f565b015460405160e083901b6001600160e01b03191681526001600160a01b039091166004820152602481018490526044016020604051808303816000875af1158015613883573d6000803e3d6000fd5b505050506040513d601f19601f820116820180604052508101906138a791906155f8565b506138b281846154be565b92505080806138c0906154a5565b915050613788565b506138f96040518060400160405280600e81526020016d446973747269627574656420257360901b815250826135ce565b61392f604051806040016040528060158152602001742d2d205f6469737472696275746520656e64202d2d60581b81525061358b565b949350505050565b60006139776040518060400160405280601c81526020017f2d2d205f7472616e7366657250657263656e74207374617274202d2d0000000081525061358b565b6040516370a0823160e01b81523060048201526000906001600160a01b038716906370a0823190602401602060405180830381865afa1580156139be573d6000803e3d6000fd5b505050506040513d601f19601f820116820180604052508101906139e29190615694565b9050613a236040518060400160405280601881526020017f7472616e7366657272696e67207368617265206f662025730000000000000000815250866135ce565b613a4f6040518060400160405280600a81526020016962616c616e636520257360b01b815250826135ce565b60006305f5e100613a6085886155e1565b613a6a9190615439565b9050613aa360405180604001604052806015815260200174616d6f756e7420746f207472616e7366657220257360581b815250826135ce565b80821015613afe5760405162461bcd60e51b815260206004820152602260248201527f4e6f7420656e6f7567682062616c616e6365206f6e2074686520636f6e74726160448201526118dd60f21b60648201526084016109fe565b613b316040518060400160405280601081526020016f73656e64696e6720257320746f20257360801b81525082876143ea565b60405163a9059cbb60e01b81526001600160a01b0386811660048301526024820183905288169063a9059cbb906044016020604051808303816000875af1158015613b80573d6000803e3d6000fd5b505050506040513d601f19601f82011682018060405250810190613ba491906155f8565b50613bd56040518060400160405280600e81526020016d446973747269627574656420257360901b815250826135ce565b613c136040518060400160405280601a81526020017f2d2d205f7472616e7366657250657263656e7420656e64202d2d00000000000081525061358b565b9695505050505050565b6001600160a01b038416613c435760405162461bcd60e51b81526004016109fe9061575b565b336000613c4f85614253565b90506000613c5c85614253565b9050613c6c838989858589613f1c565b60008681526004602090815260408083206001600160a01b038c16845290915290205485811015613caf5760405162461bcd60e51b81526004016109fe906157a0565b60008781526004602090815260408083206001600160a01b038d8116855292528083208985039055908a16825281208054889290613cee9084906154be565b909155505060408051888152602081018890526001600160a01b03808b16928c821692918816917fc3d58168c5ae7397731d063d5bbf3d657854427343f4c083240f7aacaa2d0f62910160405180910390a4613d4e848a8a86868a613f2a565b613d5c848a8a8a8a8a61429e565b505050505050505050565b6001600160a01b038316613d8d5760405162461bcd60e51b81526004016109fe906158ef565b336000613d9984614253565b90506000613da684614253565b9050613dc683876000858560405180602001604052806000815250613f1c565b60008581526004602090815260408083206001600160a01b038a16845290915290205484811015613e095760405162461bcd60e51b81526004016109fe90615932565b60008681526004602090815260408083206001600160a01b038b81168086529184528285208a8703905582518b81529384018a90529092908816917fc3d58168c5ae7397731d063d5bbf3d657854427343f4c083240f7aacaa2d0f62910160405180910390a461344f84886000868660405180602001604052806000815250613f2a565b6000818152600183016020526040812054613ed457508154600181810184556000848152602080822090930184905584548482528286019093526040902091909155610a2c565b506000610a2c565b60006001600160e01b03198216636cdb3d1360e11b1480613f0d57506001600160e01b031982166303a24d0760e21b145b80610a2c5750610a2c82614431565b613097868686868686614456565b601e83600081518110613f3f57613f3f61548f565b602002602001015160048110613f5757613f5761548f565b0154613f8984600081518110613f6f57613f6f61548f565b602002602001015160009081526008602052604090205490565b1115613fd75760405162461bcd60e51b815260206004820152601b60248201527f536166654e46543a206d617820737570706c792072656163686564000000000060448201526064016109fe565b613097565b6001600160a01b0384163b156130975760405163bc197c8160e01b81526001600160a01b0385169063bc197c81906140209089908990889088908890600401615998565b6020604051808303816000875af192505050801561405b575060408051601f3d908101601f19168201909252614058918101906159f6565b60015b61410757614067615a13565b806308c379a0036140a0575061407b615a2f565b8061408657506140a2565b8060405162461bcd60e51b81526004016109fe9190614ad1565b505b60405162461bcd60e51b815260206004820152603460248201527f455243313135353a207472616e7366657220746f206e6f6e2d455243313135356044820152732932b1b2b4bb32b91034b6b83632b6b2b73a32b960611b60648201526084016109fe565b6001600160e01b0319811663bc197c8160e01b1461344f5760405162461bcd60e51b81526004016109fe90615ab8565b6141418282611dc4565b610f9c5761414e816145dd565b6141598360206145ef565b60405160200161416a929190615b00565b60408051601f198184030181529082905262461bcd60e51b82526109fe91600401614ad1565b61419a8282611dc4565b15610f9c576000828152602081815260408083206001600160a01b0385168085529252808320805460ff1916905551339285917ff6391f5c32d9c69d2a47ea670b442974b53935d1edc7fd64eb21e047a839171b9190a45050565b6000611dbd836001600160a01b03841661478a565b60075460ff166110725760405162461bcd60e51b815260206004820152601460248201527314185d5cd8589b194e881b9bdd081c185d5cd95960621b60448201526064016109fe565b6040805160018082528183019092526060916000919060208083019080368337019050509050828160008151811061428d5761428d61548f565b602090810291909101015292915050565b6001600160a01b0384163b156130975760405163f23a6e6160e01b81526001600160a01b0385169063f23a6e61906142e29089908990889088908890600401615b75565b6020604051808303816000875af192505050801561431d575060408051601f3d908101601f1916820190925261431a918101906159f6565b60015b61432957614067615a13565b6001600160e01b0319811663f23a6e6160e01b1461344f5760405162461bcd60e51b81526004016109fe90615ab8565b60075460ff16156110725760405162461bcd60e51b815260206004820152601060248201526f14185d5cd8589b194e881c185d5cd95960821b60448201526064016109fe565b60008260000182815481106143b6576143b661548f565b9060005260206000200154905092915050565b80516a636f6e736f6c652e6c6f67602083016000808483855afa5050505050565b610e9083838360405160240161440293929190615bad565b60408051601f198184030181529190526020810180516001600160e01b031663038fd88960e31b1790526143c9565b60006001600160e01b03198216635a05180f60e01b1480610a2c5750610a2c8261487d565b6144648686868686866148b2565b6001600160a01b0385166144eb5760005b83518110156144e9578281815181106144905761449061548f565b6020026020010151600860008684815181106144ae576144ae61548f565b6020026020010151815260200190815260200160002060008282546144d391906154be565b909155506144e29050816154a5565b9050614475565b505b6001600160a01b0384166130975760005b835181101561344f5760008482815181106145195761451961548f565b6020026020010151905060008483815181106145375761453761548f565b60200260200101519050600060086000848152602001908152602001600020549050818110156145ba5760405162461bcd60e51b815260206004820152602860248201527f455243313135353a206275726e20616d6f756e74206578636565647320746f74604482015267616c537570706c7960c01b60648201526084016109fe565b600092835260086020526040909220910390556145d6816154a5565b90506144fc565b6060610a2c6001600160a01b03831660145b606060006145fe8360026155e1565b6146099060026154be565b6001600160401b0381111561462057614620614b4b565b6040519080825280601f01601f19166020018201604052801561464a576020820181803683370190505b509050600360fc1b816000815181106146655761466561548f565b60200101906001600160f81b031916908160001a905350600f60fb1b816001815181106146945761469461548f565b60200101906001600160f81b031916908160001a90535060006146b88460026155e1565b6146c39060016154be565b90505b600181111561473b576f181899199a1a9b1b9c1cb0b131b232b360811b85600f16601081106146f7576146f761548f565b1a60f81b82828151811061470d5761470d61548f565b60200101906001600160f81b031916908160001a90535060049490941c9361473481615bdf565b90506146c6565b508315611dbd5760405162461bcd60e51b815260206004820181905260248201527f537472696e67733a20686578206c656e67746820696e73756666696369656e7460448201526064016109fe565b600081815260018301602052604081205480156148735760006147ae600183615426565b85549091506000906147c290600190615426565b90508181146148275760008660000182815481106147e2576147e261548f565b90600052602060002001549050808760000184815481106148055761480561548f565b6000918252602080832090910192909255918252600188019052604090208390555b855486908061483857614838615bf6565b600190038181906000526020600020016000905590558560010160008681526020019081526020016000206000905560019350505050610a2c565b6000915050610a2c565b60006001600160e01b03198216637965db0b60e01b1480610a2c57506301ffc9a760e01b6001600160e01b0319831614610a2c565b61309786868686868660075460ff16156130975760405162461bcd60e51b815260206004820152602c60248201527f455243313135355061757361626c653a20746f6b656e207472616e736665722060448201526b1dda1a5b19481c185d5cd95960a21b60648201526084016109fe565b8260048101928215614951579160200282015b82811115614951578251825591602001919060010190614936565b5061495d9291506149d6565b5090565b82600281019282156149515791602002820182811115614951578251825591602001919060010190614936565b8260028101928215614951579160200282015b8281111561495157825182546001600160a01b0319166001600160a01b039091161782556020909201916001909101906149a1565b5b8082111561495d57600081556001016149d7565b6001600160a01b0381168114612b0657600080fd5b60008060408385031215614a1357600080fd5b8235614a1e816149eb565b946020939093013593505050565b6001600160e01b031981168114612b0657600080fd5b600060208284031215614a5457600080fd5b8135611dbd81614a2c565b60008060408385031215614a7257600080fd5b50508035926020909101359150565b60005b83811015614a9c578181015183820152602001614a84565b50506000910152565b60008151808452614abd816020860160208601614a81565b601f01601f19169290920160200192915050565b602081526000611dbd6020830184614aa5565b600060208284031215614af657600080fd5b5035919050565b600081518084526020808501945080840160005b83811015614b2d57815187529582019590820190600101614b11565b509495945050505050565b602081526000611dbd6020830184614afd565b634e487b7160e01b600052604160045260246000fd5b604081018181106001600160401b0382111715614b8057614b80614b4b565b60405250565b601f8201601f191681016001600160401b0381118282101715614bab57614bab614b4b565b6040525050565b60006001600160401b03821115614bcb57614bcb614b4b565b5060051b60200190565b600082601f830112614be657600080fd5b81356020614bf382614bb2565b604051614c008282614b86565b83815260059390931b8501820192828101915086841115614c2057600080fd5b8286015b84811015614c3b5780358352918301918301614c24565b509695505050505050565b60006001600160401b03831115614c5f57614c5f614b4b565b604051614c76601f8501601f191660200182614b86565b809150838152848484011115614c8b57600080fd5b83836020830137600060208583010152509392505050565b600082601f830112614cb457600080fd5b611dbd83833560208501614c46565b60008060008060808587031215614cd957600080fd5b8435614ce4816149eb565b935060208501356001600160401b0380821115614d0057600080fd5b614d0c88838901614bd5565b94506040870135915080821115614d2257600080fd5b614d2e88838901614bd5565b93506060870135915080821115614d4457600080fd5b50614d5187828801614ca3565b91505092959194509250565b600060208284031215614d6f57600080fd5b8135611dbd816149eb565b600080600080600060a08688031215614d9257600080fd5b8535614d9d816149eb565b94506020860135614dad816149eb565b935060408601356001600160401b0380821115614dc957600080fd5b614dd589838a01614bd5565b94506060880135915080821115614deb57600080fd5b614df789838a01614bd5565b93506080880135915080821115614e0d57600080fd5b50614e1a88828901614ca3565b9150509295509295909350565b60008060408385031215614e3a57600080fd5b823591506020830135614e4c816149eb565b809150509250929050565b803560048110614e6657600080fd5b919050565b600060208284031215614e7d57600080fd5b611dbd82614e57565b600080600060608486031215614e9b57600080fd5b8335614ea6816149eb565b9250614eb460208501614e57565b9150604084013590509250925092565b60006020808385031215614ed757600080fd5b82356001600160401b0380821115614eee57600080fd5b818501915085601f830112614f0257600080fd5b8135614f0d81614bb2565b604051614f1a8282614b86565b82815260059290921b8401850191858101915088831115614f3a57600080fd5b8585015b83811015614f7257803585811115614f565760008081fd5b614f648b89838a0101614bd5565b845250918601918601614f3e565b5098975050505050505050565b60008060408385031215614f9257600080fd5b82356001600160401b0380821115614fa957600080fd5b818501915085601f830112614fbd57600080fd5b81356020614fca82614bb2565b604051614fd78282614b86565b83815260059390931b8501820192828101915089841115614ff757600080fd5b948201945b8386101561501e57853561500f816149eb565b82529482019490820190614ffc565b9650508601359250508082111561503457600080fd5b5061504185828601614bd5565b9150509250929050565b6000806040838503121561505e57600080fd5b614a1e83614e57565b600082601f83011261507857600080fd5b604051608081018181106001600160401b038211171561509a5761509a614b4b565b6040528060808401858111156150af57600080fd5b845b818110156150c95780358352602092830192016150b1565b509195945050505050565b600082601f8301126150e557600080fd5b6040516150f181614b61565b8060408401858111156150af57600080fd5b600080600080600080600080610200898b03121561512057600080fd5b88356001600160401b0381111561513657600080fd5b8901601f81018b1361514757600080fd5b6151568b823560208401614c46565b9850506151668a60208b01615067565b96506151758a60a08b01615067565b9550610120890135615186816149eb565b94506151968a6101408b016150d4565b935061018089013592506151ae8a6101a08b016150d4565b91506101e08901356151bf816149eb565b809150509295985092959890939650565b6000806000606084860312156151e557600080fd5b83356151f0816149eb565b925060208401356001600160401b038082111561520c57600080fd5b61521887838801614bd5565b9350604086013591508082111561522e57600080fd5b5061523b86828701614bd5565b9150509250925092565b6000806000806080858703121561525b57600080fd5b8435615266816149eb565b9350602085013592506040850135915060608501356001600160401b0381111561528f57600080fd5b614d5187828801614ca3565b8015158114612b0657600080fd5b600080604083850312156152bc57600080fd5b82356152c7816149eb565b91506020830135614e4c8161529b565b6000806000606084860312156152ec57600080fd5b83359250602084013591506040840135615305816149eb565b809150509250925092565b60008060006060848603121561532557600080fd5b61532e84614e57565b9250602084013591506040840135615305816149eb565b6000806040838503121561535857600080fd5b8235615363816149eb565b91506020830135614e4c816149eb565b600080600080600060a0868803121561538b57600080fd5b8535615396816149eb565b945060208601356153a6816149eb565b9350604086013592506060860135915060808601356001600160401b038111156153cf57600080fd5b614e1a88828901614ca3565b6000806000606084860312156153f057600080fd5b83356153fb816149eb565b95602085013595506040909401359392505050565b634e487b7160e01b600052601160045260246000fd5b81810381811115610a2c57610a2c615410565b60008261545657634e487b7160e01b600052601260045260246000fd5b500490565b600181811c9082168061546f57607f821691505b602082108103610bee57634e487b7160e01b600052602260045260246000fd5b634e487b7160e01b600052603260045260246000fd5b6000600182016154b7576154b7615410565b5060010190565b80820180821115610a2c57610a2c615410565b60208082526038908201527f455243313135355072657365744d696e7465725061757365723a206d7573742060408201527f68617665206d696e74657220726f6c6520746f206d696e740000000000000000606082015260800190565b634e487b7160e01b600052602160045260246000fd5b6020808252602e908201527f455243313135353a2063616c6c6572206973206e6f7420746f6b656e206f776e60408201526d195c881bdc88185c1c1c9bdd995960921b606082015260800190565b6020808252602f908201527f455243313135355072657365744d696e7465725061757365723a206d7573742060408201526e686176652061646d696e20726f6c6560881b606082015260800190565b8082028115828204841417610a2c57610a2c615410565b60006020828403121561560a57600080fd5b8151611dbd8161529b565b60006040828403121561562757600080fd5b82601f83011261563657600080fd5b60405161564281614b61565b80604084018581111561565457600080fd5b845b818110156150c9578051615669816149eb565b835260209283019201615656565b60006020828403121561568957600080fd5b8151611dbd816149eb565b6000602082840312156156a657600080fd5b5051919050565b60208082526021908201527f455243313135353a206d696e7420746f20746865207a65726f206164647265736040820152607360f81b606082015260800190565b60208082526028908201527f455243313135353a2069647320616e6420616d6f756e7473206c656e677468206040820152670dad2e6dac2e8c6d60c31b606082015260800190565b6040815260006157496040830185614afd565b82810360208401526136798185614afd565b60208082526025908201527f455243313135353a207472616e7366657220746f20746865207a65726f206164604082015264647265737360d81b606082015260800190565b6020808252602a908201527f455243313135353a20696e73756666696369656e742062616c616e636520666f60408201526939103a3930b739b332b960b11b606082015260800190565b601f821115610e9057600081815260208120601f850160051c810160208610156158115750805b601f850160051c820191505b818110156130975782815560010161581d565b81516001600160401b0381111561584957615849614b4b565b61585d81615857845461545b565b846157ea565b602080601f831160018114615892576000841561587a5750858301515b600019600386901b1c1916600185901b178555613097565b600085815260208120601f198616915b828110156158c1578886015182559484019460019091019084016158a2565b50858210156158df5787850151600019600388901b60f8161c191681555b5050505050600190811b01905550565b60208082526023908201527f455243313135353a206275726e2066726f6d20746865207a65726f206164647260408201526265737360e81b606082015260800190565b60208082526024908201527f455243313135353a206275726e20616d6f756e7420657863656564732062616c604082015263616e636560e01b606082015260800190565b6040815260006159896040830185614aa5565b90508260208301529392505050565b60006001600160a01b03808816835280871660208401525060a060408301526159c460a0830186614afd565b82810360608401526159d68186614afd565b905082810360808401526159ea8185614aa5565b98975050505050505050565b600060208284031215615a0857600080fd5b8151611dbd81614a2c565b600060033d1115615a2c5760046000803e5060005160e01c5b90565b600060443d1015615a3d5790565b6040516003193d81016004833e81513d6001600160401b038160248401118184111715615a6c57505050505090565b8285019150815181811115615a845750505050505090565b843d8701016020828501011115615a9e5750505050505090565b615aad60208286010187614b86565b509095945050505050565b60208082526028908201527f455243313135353a204552433131353552656365697665722072656a656374656040820152676420746f6b656e7360c01b606082015260800190565b7f416363657373436f6e74726f6c3a206163636f756e7420000000000000000000815260008351615b38816017850160208801614a81565b7001034b99036b4b9b9b4b733903937b6329607d1b6017918401918201528351615b69816028840160208801614a81565b01602801949350505050565b60006001600160a01b03808816835280871660208401525084604083015283606083015260a0608083015261113660a0830184614aa5565b606081526000615bc06060830186614aa5565b90508360208301526001600160a01b0383166040830152949350505050565b600081615bee57615bee615410565b506000190190565b634e487b7160e01b600052603160045260246000fdfea26469706673582212204b4d2e647a17236a434fbb09e6b371a4b5e4745beb7c669f6dc8dc1690e1bdb864736f6c63430008110033b53127684a568b3173ae13b9f8a6016e243e63b6e8ee1178d6a717850b5d610365d7a28e3265b37a6474929f336521b332c1681b933f6cb9f3376673440d862a9f2df0fed2c77648de5860a4cc508cd0818c85b8b8a1ab4ceeef8d981c8956a6",
  "linkReferences": {},
  "deployedLinkReferences": {}
}