{
  "_format": "hh-sol-artifact-1",
  "contractName": "SafeNFT",
  "sourceName": "contracts/SafeNFT.sol",
  "abi": [
    {
      "inputs": [
        {
          "internalType": "string",
          "name": "_uri",
          "type": "string"
        },
        {
          "internalType": "uint256[4]",
          "name": "_price",
          "type": "uint256[4]"
        },
        {
          "internalType": "uint256[4]",
          "name": "_maxSupply",
          "type": "uint256[4]"
        },
        {
          "internalType": "contract ISafeToken",
          "name": "_safeToken",
          "type": "address"
        },
        {
          "internalType": "uint256[2]",
          "name": "_priceDistributionOnMint",
          "type": "uint256[2]"
        },
        {
          "internalType": "uint256[2]",
          "name": "_profitDistribution",
          "type": "uint256[2]"
        }
      ],
      "stateMutability": "nonpayable",
      "type": "constructor"
    },
    {
      "anonymous": false,
      "inputs": [
        {
          "indexed": true,
          "internalType": "address",
          "name": "account",
          "type": "address"
        },
        {
          "indexed": true,
          "internalType": "address",
          "name": "operator",
          "type": "address"
        },
        {
          "indexed": false,
          "internalType": "bool",
          "name": "approved",
          "type": "bool"
        }
      ],
      "name": "ApprovalForAll",
      "type": "event"
    },
    {
      "anonymous": false,
      "inputs": [
        {
          "indexed": false,
          "internalType": "address",
          "name": "account",
          "type": "address"
        }
      ],
      "name": "Paused",
      "type": "event"
    },
    {
      "anonymous": false,
      "inputs": [
        {
          "indexed": true,
          "internalType": "bytes32",
          "name": "role",
          "type": "bytes32"
        },
        {
          "indexed": true,
          "internalType": "bytes32",
          "name": "previousAdminRole",
          "type": "bytes32"
        },
        {
          "indexed": true,
          "internalType": "bytes32",
          "name": "newAdminRole",
          "type": "bytes32"
        }
      ],
      "name": "RoleAdminChanged",
      "type": "event"
    },
    {
      "anonymous": false,
      "inputs": [
        {
          "indexed": true,
          "internalType": "bytes32",
          "name": "role",
          "type": "bytes32"
        },
        {
          "indexed": true,
          "internalType": "address",
          "name": "account",
          "type": "address"
        },
        {
          "indexed": true,
          "internalType": "address",
          "name": "sender",
          "type": "address"
        }
      ],
      "name": "RoleGranted",
      "type": "event"
    },
    {
      "anonymous": false,
      "inputs": [
        {
          "indexed": true,
          "internalType": "bytes32",
          "name": "role",
          "type": "bytes32"
        },
        {
          "indexed": true,
          "internalType": "address",
          "name": "account",
          "type": "address"
        },
        {
          "indexed": true,
          "internalType": "address",
          "name": "sender",
          "type": "address"
        }
      ],
      "name": "RoleRevoked",
      "type": "event"
    },
    {
      "anonymous": false,
      "inputs": [
        {
          "indexed": true,
          "internalType": "address",
          "name": "operator",
          "type": "address"
        },
        {
          "indexed": true,
          "internalType": "address",
          "name": "from",
          "type": "address"
        },
        {
          "indexed": true,
          "internalType": "address",
          "name": "to",
          "type": "address"
        },
        {
          "indexed": false,
          "internalType": "uint256[]",
          "name": "ids",
          "type": "uint256[]"
        },
        {
          "indexed": false,
          "internalType": "uint256[]",
          "name": "values",
          "type": "uint256[]"
        }
      ],
      "name": "TransferBatch",
      "type": "event"
    },
    {
      "anonymous": false,
      "inputs": [
        {
          "indexed": true,
          "internalType": "address",
          "name": "operator",
          "type": "address"
        },
        {
          "indexed": true,
          "internalType": "address",
          "name": "from",
          "type": "address"
        },
        {
          "indexed": true,
          "internalType": "address",
          "name": "to",
          "type": "address"
        },
        {
          "indexed": false,
          "internalType": "uint256",
          "name": "id",
          "type": "uint256"
        },
        {
          "indexed": false,
          "internalType": "uint256",
          "name": "value",
          "type": "uint256"
        }
      ],
      "name": "TransferSingle",
      "type": "event"
    },
    {
      "anonymous": false,
      "inputs": [
        {
          "indexed": false,
          "internalType": "string",
          "name": "value",
          "type": "string"
        },
        {
          "indexed": true,
          "internalType": "uint256",
          "name": "id",
          "type": "uint256"
        }
      ],
      "name": "URI",
      "type": "event"
    },
    {
      "anonymous": false,
      "inputs": [
        {
          "indexed": false,
          "internalType": "address",
          "name": "account",
          "type": "address"
        }
      ],
      "name": "Unpaused",
      "type": "event"
    },
    {
      "inputs": [],
      "name": "DEFAULT_ADMIN_ROLE",
      "outputs": [
        {
          "internalType": "bytes32",
          "name": "",
          "type": "bytes32"
        }
      ],
      "stateMutability": "view",
      "type": "function"
    },
    {
      "inputs": [],
      "name": "MINTER_ROLE",
      "outputs": [
        {
          "internalType": "bytes32",
          "name": "",
          "type": "bytes32"
        }
      ],
      "stateMutability": "view",
      "type": "function"
    },
    {
      "inputs": [],
      "name": "PAUSER_ROLE",
      "outputs": [
        {
          "internalType": "bytes32",
          "name": "",
          "type": "bytes32"
        }
      ],
      "stateMutability": "view",
      "type": "function"
    },
    {
      "inputs": [],
      "name": "TIERS",
      "outputs": [
        {
          "internalType": "uint256",
          "name": "",
          "type": "uint256"
        }
      ],
      "stateMutability": "view",
      "type": "function"
    },
    {
      "inputs": [],
      "name": "WALLETS",
      "outputs": [
        {
          "internalType": "uint256",
          "name": "",
          "type": "uint256"
        }
      ],
      "stateMutability": "view",
      "type": "function"
    },
    {
      "inputs": [
        {
          "internalType": "uint256",
          "name": "",
          "type": "uint256"
        },
        {
          "internalType": "uint256",
          "name": "",
          "type": "uint256"
        },
        {
          "internalType": "address",
          "name": "",
          "type": "address"
        }
      ],
      "name": "alreadyDistributedAmount",
      "outputs": [
        {
          "internalType": "uint256",
          "name": "",
          "type": "uint256"
        }
      ],
      "stateMutability": "view",
      "type": "function"
    },
    {
      "inputs": [
        {
          "internalType": "uint256",
          "name": "",
          "type": "uint256"
        },
        {
          "internalType": "uint256",
          "name": "",
          "type": "uint256"
        }
      ],
      "name": "alreadyDistributedAmountByTier",
      "outputs": [
        {
          "internalType": "uint256",
          "name": "",
          "type": "uint256"
        }
      ],
      "stateMutability": "view",
      "type": "function"
    },
    {
      "inputs": [
        {
          "internalType": "address",
          "name": "account",
          "type": "address"
        },
        {
          "internalType": "uint256",
          "name": "id",
          "type": "uint256"
        }
      ],
      "name": "balanceOf",
      "outputs": [
        {
          "internalType": "uint256",
          "name": "",
          "type": "uint256"
        }
      ],
      "stateMutability": "view",
      "type": "function"
    },
    {
      "inputs": [
        {
          "internalType": "address[]",
          "name": "accounts",
          "type": "address[]"
        },
        {
          "internalType": "uint256[]",
          "name": "ids",
          "type": "uint256[]"
        }
      ],
      "name": "balanceOfBatch",
      "outputs": [
        {
          "internalType": "uint256[]",
          "name": "",
          "type": "uint256[]"
        }
      ],
      "stateMutability": "view",
      "type": "function"
    },
    {
      "inputs": [
        {
          "internalType": "address",
          "name": "account",
          "type": "address"
        },
        {
          "internalType": "uint256",
          "name": "id",
          "type": "uint256"
        },
        {
          "internalType": "uint256",
          "name": "value",
          "type": "uint256"
        }
      ],
      "name": "burn",
      "outputs": [],
      "stateMutability": "nonpayable",
      "type": "function"
    },
    {
      "inputs": [
        {
          "internalType": "address",
          "name": "account",
          "type": "address"
        },
        {
          "internalType": "uint256[]",
          "name": "ids",
          "type": "uint256[]"
        },
        {
          "internalType": "uint256[]",
          "name": "values",
          "type": "uint256[]"
        }
      ],
      "name": "burnBatch",
      "outputs": [],
      "stateMutability": "nonpayable",
      "type": "function"
    },
    {
      "inputs": [
        {
          "internalType": "enum ISafeNFT.Tiers",
          "name": "_tier",
          "type": "uint8"
        },
        {
          "internalType": "uint256",
          "name": "_amount",
          "type": "uint256"
        }
      ],
      "name": "buy",
      "outputs": [],
      "stateMutability": "nonpayable",
      "type": "function"
    },
    {
      "inputs": [
        {
          "internalType": "enum ISafeNFT.Tiers",
          "name": "_tier",
          "type": "uint8"
        },
        {
          "internalType": "uint256",
          "name": "_distributionId",
          "type": "uint256"
        }
      ],
      "name": "claimReward",
      "outputs": [],
      "stateMutability": "nonpayable",
      "type": "function"
    },
    {
      "inputs": [],
      "name": "claimRewardsTotal",
      "outputs": [],
      "stateMutability": "nonpayable",
      "type": "function"
    },
    {
      "inputs": [],
      "name": "currentDistributionId",
      "outputs": [
        {
          "internalType": "uint256",
          "name": "",
          "type": "uint256"
        }
      ],
      "stateMutability": "view",
      "type": "function"
    },
    {
      "inputs": [
        {
          "internalType": "uint256",
          "name": "_amountUSD",
          "type": "uint256"
        }
      ],
      "name": "distributeProfit",
      "outputs": [],
      "stateMutability": "nonpayable",
      "type": "function"
    },
    {
      "inputs": [
        {
          "internalType": "uint256",
          "name": "",
          "type": "uint256"
        },
        {
          "internalType": "uint256",
          "name": "",
          "type": "uint256"
        }
      ],
      "name": "distributionByTier",
      "outputs": [
        {
          "internalType": "uint256",
          "name": "",
          "type": "uint256"
        }
      ],
      "stateMutability": "view",
      "type": "function"
    },
    {
      "inputs": [
        {
          "internalType": "uint256",
          "name": "",
          "type": "uint256"
        }
      ],
      "name": "distributionOfProfit",
      "outputs": [
        {
          "internalType": "uint256",
          "name": "",
          "type": "uint256"
        }
      ],
      "stateMutability": "view",
      "type": "function"
    },
    {
      "inputs": [
        {
          "internalType": "uint256",
          "name": "",
          "type": "uint256"
        },
        {
          "internalType": "uint256",
          "name": "",
          "type": "uint256"
        }
      ],
      "name": "distributionTotalSupplySnapshot",
      "outputs": [
        {
          "internalType": "uint256",
          "name": "",
          "type": "uint256"
        }
      ],
      "stateMutability": "view",
      "type": "function"
    },
    {
      "inputs": [
        {
          "internalType": "uint256",
          "name": "id",
          "type": "uint256"
        }
      ],
      "name": "exists",
      "outputs": [
        {
          "internalType": "bool",
          "name": "",
          "type": "bool"
        }
      ],
      "stateMutability": "view",
      "type": "function"
    },
    {
      "inputs": [
        {
          "internalType": "address",
          "name": "_user",
          "type": "address"
        }
      ],
      "name": "getBalanceTable",
      "outputs": [
        {
          "internalType": "uint256[]",
          "name": "",
          "type": "uint256[]"
        }
      ],
      "stateMutability": "view",
      "type": "function"
    },
    {
      "inputs": [
        {
          "internalType": "enum ISafeNFT.Tiers",
          "name": "_tier",
          "type": "uint8"
        }
      ],
      "name": "getFairPrice",
      "outputs": [
        {
          "internalType": "uint256",
          "name": "",
          "type": "uint256"
        }
      ],
      "stateMutability": "view",
      "type": "function"
    },
    {
      "inputs": [],
      "name": "getFairPriceTable",
      "outputs": [
        {
          "internalType": "uint256[]",
          "name": "",
          "type": "uint256[]"
        }
      ],
      "stateMutability": "view",
      "type": "function"
    },
    {
      "inputs": [],
      "name": "getMyBalanceTable",
      "outputs": [
        {
          "internalType": "uint256[]",
          "name": "",
          "type": "uint256[]"
        }
      ],
      "stateMutability": "view",
      "type": "function"
    },
    {
      "inputs": [],
      "name": "getMyPendingRewardsTotal",
      "outputs": [
        {
          "internalType": "uint256",
          "name": "",
          "type": "uint256"
        }
      ],
      "stateMutability": "view",
      "type": "function"
    },
    {
      "inputs": [],
      "name": "getMyShareOfTreasury",
      "outputs": [
        {
          "internalType": "uint256",
          "name": "",
          "type": "uint256"
        }
      ],
      "stateMutability": "view",
      "type": "function"
    },
    {
      "inputs": [
        {
          "internalType": "address",
          "name": "_user",
          "type": "address"
        },
        {
          "internalType": "enum ISafeNFT.Tiers",
          "name": "_tier",
          "type": "uint8"
        },
        {
          "internalType": "uint256",
          "name": "_distributionId",
          "type": "uint256"
        }
      ],
      "name": "getPendingRewards",
      "outputs": [
        {
          "internalType": "uint256",
          "name": "",
          "type": "uint256"
        }
      ],
      "stateMutability": "view",
      "type": "function"
    },
    {
      "inputs": [
        {
          "internalType": "enum ISafeNFT.Tiers",
          "name": "_tier",
          "type": "uint8"
        }
      ],
      "name": "getPrice",
      "outputs": [
        {
          "internalType": "uint256",
          "name": "",
          "type": "uint256"
        }
      ],
      "stateMutability": "view",
      "type": "function"
    },
    {
      "inputs": [
        {
          "internalType": "bytes32",
          "name": "role",
          "type": "bytes32"
        }
      ],
      "name": "getRoleAdmin",
      "outputs": [
        {
          "internalType": "bytes32",
          "name": "",
          "type": "bytes32"
        }
      ],
      "stateMutability": "view",
      "type": "function"
    },
    {
      "inputs": [
        {
          "internalType": "bytes32",
          "name": "role",
          "type": "bytes32"
        },
        {
          "internalType": "uint256",
          "name": "index",
          "type": "uint256"
        }
      ],
      "name": "getRoleMember",
      "outputs": [
        {
          "internalType": "address",
          "name": "",
          "type": "address"
        }
      ],
      "stateMutability": "view",
      "type": "function"
    },
    {
      "inputs": [
        {
          "internalType": "bytes32",
          "name": "role",
          "type": "bytes32"
        }
      ],
      "name": "getRoleMemberCount",
      "outputs": [
        {
          "internalType": "uint256",
          "name": "",
          "type": "uint256"
        }
      ],
      "stateMutability": "view",
      "type": "function"
    },
    {
      "inputs": [],
      "name": "getTotalSupplyAllTiers",
      "outputs": [
        {
          "internalType": "uint256",
          "name": "",
          "type": "uint256"
        }
      ],
      "stateMutability": "view",
      "type": "function"
    },
    {
      "inputs": [],
      "name": "getTreasuryCost",
      "outputs": [
        {
          "internalType": "uint256",
          "name": "",
          "type": "uint256"
        }
      ],
      "stateMutability": "view",
      "type": "function"
    },
    {
      "inputs": [],
      "name": "getUnclaimedRewards",
      "outputs": [
        {
          "internalType": "uint256",
          "name": "",
          "type": "uint256"
        }
      ],
      "stateMutability": "view",
      "type": "function"
    },
    {
      "inputs": [
        {
          "internalType": "bytes32",
          "name": "role",
          "type": "bytes32"
        },
        {
          "internalType": "address",
          "name": "account",
          "type": "address"
        }
      ],
      "name": "grantRole",
      "outputs": [],
      "stateMutability": "nonpayable",
      "type": "function"
    },
    {
      "inputs": [
        {
          "internalType": "bytes32",
          "name": "role",
          "type": "bytes32"
        },
        {
          "internalType": "address",
          "name": "account",
          "type": "address"
        }
      ],
      "name": "hasRole",
      "outputs": [
        {
          "internalType": "bool",
          "name": "",
          "type": "bool"
        }
      ],
      "stateMutability": "view",
      "type": "function"
    },
    {
      "inputs": [
        {
          "internalType": "string",
          "name": "_uri",
          "type": "string"
        },
        {
          "internalType": "uint256[4]",
          "name": "_price",
          "type": "uint256[4]"
        },
        {
          "internalType": "uint256[4]",
          "name": "_maxSupply",
          "type": "uint256[4]"
        },
        {
          "internalType": "contract ISafeToken",
          "name": "_safeToken",
          "type": "address"
        },
        {
          "internalType": "uint256[2]",
          "name": "_priceDistributionOnMint",
          "type": "uint256[2]"
        },
        {
          "internalType": "uint256[2]",
          "name": "_profitDistribution",
          "type": "uint256[2]"
        }
      ],
      "name": "initialize",
      "outputs": [],
      "stateMutability": "nonpayable",
      "type": "function"
    },
    {
      "inputs": [
        {
          "internalType": "address",
          "name": "account",
          "type": "address"
        },
        {
          "internalType": "address",
          "name": "operator",
          "type": "address"
        }
      ],
      "name": "isApprovedForAll",
      "outputs": [
        {
          "internalType": "bool",
          "name": "",
          "type": "bool"
        }
      ],
      "stateMutability": "view",
      "type": "function"
    },
    {
      "inputs": [
        {
          "internalType": "uint256",
          "name": "",
          "type": "uint256"
        }
      ],
      "name": "maxSupply",
      "outputs": [
        {
          "internalType": "uint256",
          "name": "",
          "type": "uint256"
        }
      ],
      "stateMutability": "view",
      "type": "function"
    },
    {
      "inputs": [
        {
          "internalType": "address",
          "name": "to",
          "type": "address"
        },
        {
          "internalType": "uint256",
          "name": "id",
          "type": "uint256"
        },
        {
          "internalType": "uint256",
          "name": "amount",
          "type": "uint256"
        },
        {
          "internalType": "bytes",
          "name": "data",
          "type": "bytes"
        }
      ],
      "name": "mint",
      "outputs": [],
      "stateMutability": "nonpayable",
      "type": "function"
    },
    {
      "inputs": [
        {
          "internalType": "address",
          "name": "to",
          "type": "address"
        },
        {
          "internalType": "uint256[]",
          "name": "ids",
          "type": "uint256[]"
        },
        {
          "internalType": "uint256[]",
          "name": "amounts",
          "type": "uint256[]"
        },
        {
          "internalType": "bytes",
          "name": "data",
          "type": "bytes"
        }
      ],
      "name": "mintBatch",
      "outputs": [],
      "stateMutability": "nonpayable",
      "type": "function"
    },
    {
      "inputs": [],
      "name": "name",
      "outputs": [
        {
          "internalType": "string",
          "name": "",
          "type": "string"
        }
      ],
      "stateMutability": "view",
      "type": "function"
    },
    {
      "inputs": [],
      "name": "pause",
      "outputs": [],
      "stateMutability": "nonpayable",
      "type": "function"
    },
    {
      "inputs": [],
      "name": "paused",
      "outputs": [
        {
          "internalType": "bool",
          "name": "",
          "type": "bool"
        }
      ],
      "stateMutability": "view",
      "type": "function"
    },
    {
      "inputs": [
        {
          "internalType": "uint256",
          "name": "",
          "type": "uint256"
        }
      ],
      "name": "price",
      "outputs": [
        {
          "internalType": "uint256",
          "name": "",
          "type": "uint256"
        }
      ],
      "stateMutability": "view",
      "type": "function"
    },
    {
      "inputs": [
        {
          "internalType": "uint256",
          "name": "",
          "type": "uint256"
        }
      ],
      "name": "priceDistributionOnMint",
      "outputs": [
        {
          "internalType": "uint256",
          "name": "",
          "type": "uint256"
        }
      ],
      "stateMutability": "view",
      "type": "function"
    },
    {
      "inputs": [
        {
          "internalType": "uint256",
          "name": "",
          "type": "uint256"
        }
      ],
      "name": "profitDistribution",
      "outputs": [
        {
          "internalType": "uint256",
          "name": "",
          "type": "uint256"
        }
      ],
      "stateMutability": "view",
      "type": "function"
    },
    {
      "inputs": [
        {
          "internalType": "bytes32",
          "name": "role",
          "type": "bytes32"
        },
        {
          "internalType": "address",
          "name": "account",
          "type": "address"
        }
      ],
      "name": "renounceRole",
      "outputs": [],
      "stateMutability": "nonpayable",
      "type": "function"
    },
    {
      "inputs": [
        {
          "internalType": "bytes32",
          "name": "role",
          "type": "bytes32"
        },
        {
          "internalType": "address",
          "name": "account",
          "type": "address"
        }
      ],
      "name": "revokeRole",
      "outputs": [],
      "stateMutability": "nonpayable",
      "type": "function"
    },
    {
      "inputs": [
        {
          "internalType": "address",
          "name": "from",
          "type": "address"
        },
        {
          "internalType": "address",
          "name": "to",
          "type": "address"
        },
        {
          "internalType": "uint256[]",
          "name": "ids",
          "type": "uint256[]"
        },
        {
          "internalType": "uint256[]",
          "name": "amounts",
          "type": "uint256[]"
        },
        {
          "internalType": "bytes",
          "name": "data",
          "type": "bytes"
        }
      ],
      "name": "safeBatchTransferFrom",
      "outputs": [],
      "stateMutability": "nonpayable",
      "type": "function"
    },
    {
      "inputs": [],
      "name": "safeToken",
      "outputs": [
        {
          "internalType": "contract ISafeToken",
          "name": "",
          "type": "address"
        }
      ],
      "stateMutability": "view",
      "type": "function"
    },
    {
      "inputs": [
        {
          "internalType": "address",
          "name": "from",
          "type": "address"
        },
        {
          "internalType": "address",
          "name": "to",
          "type": "address"
        },
        {
          "internalType": "uint256",
          "name": "id",
          "type": "uint256"
        },
        {
          "internalType": "uint256",
          "name": "amount",
          "type": "uint256"
        },
        {
          "internalType": "bytes",
          "name": "data",
          "type": "bytes"
        }
      ],
      "name": "safeTransferFrom",
      "outputs": [],
      "stateMutability": "nonpayable",
      "type": "function"
    },
    {
      "inputs": [],
      "name": "safeVault",
      "outputs": [
        {
          "internalType": "contract ISafeVault",
          "name": "",
          "type": "address"
        }
      ],
      "stateMutability": "view",
      "type": "function"
    },
    {
      "inputs": [
        {
          "internalType": "address",
          "name": "operator",
          "type": "address"
        },
        {
          "internalType": "bool",
          "name": "approved",
          "type": "bool"
        }
      ],
      "name": "setApprovalForAll",
      "outputs": [],
      "stateMutability": "nonpayable",
      "type": "function"
    },
    {
      "inputs": [
        {
          "internalType": "bytes4",
          "name": "interfaceId",
          "type": "bytes4"
        }
      ],
      "name": "supportsInterface",
      "outputs": [
        {
          "internalType": "bool",
          "name": "",
          "type": "bool"
        }
      ],
      "stateMutability": "view",
      "type": "function"
    },
    {
      "inputs": [
        {
          "internalType": "uint256",
          "name": "id",
          "type": "uint256"
        }
      ],
      "name": "totalSupply",
      "outputs": [
        {
          "internalType": "uint256",
          "name": "",
          "type": "uint256"
        }
      ],
      "stateMutability": "view",
      "type": "function"
    },
    {
      "inputs": [],
      "name": "unpause",
      "outputs": [],
      "stateMutability": "nonpayable",
      "type": "function"
    },
    {
      "inputs": [
        {
          "internalType": "uint256",
          "name": "",
          "type": "uint256"
        }
      ],
      "name": "uri",
      "outputs": [
        {
          "internalType": "string",
          "name": "",
          "type": "string"
        }
      ],
      "stateMutability": "view",
      "type": "function"
    },
    {
      "inputs": [],
      "name": "usd",
      "outputs": [
        {
          "internalType": "contract IERC20",
          "name": "",
          "type": "address"
        }
      ],
      "stateMutability": "view",
      "type": "function"
    },
    {
      "inputs": [
        {
          "internalType": "uint256",
          "name": "",
          "type": "uint256"
        }
      ],
      "name": "wallets",
      "outputs": [
        {
          "internalType": "address",
          "name": "",
          "type": "address"
        }
      ],
      "stateMutability": "view",
      "type": "function"
    }
  ],
  "bytecode": "0x60806040523480156200001157600080fd5b50604051620059c5380380620059c583398101604081905262000034916200087e565b85806200004181620000ac565b506007805460ff1916905562000059600033620000be565b62000074600080516020620059a583398151915233620000be565b6200008f6000805160206200598583398151915233620000be565b50620000a0868686868686620000ca565b50505050505062000ba4565b6006620000ba828262000a26565b5050565b620000ba8282620004dd565b6000620000e4600080516020620059658339815191525490565b90506001600160a01b03811662000114576001600160a01b0360008051602062005965833981519152556200012a565b336001600160a01b038216146200012a57600080fd5b6200013587620000ac565b62000142600033620000be565b6200015d600080516020620059a583398151915233620000be565b620001786000805160206200598583398151915233620000be565b62000187600987600462000640565b5062000197600d86600462000640565b50601180546001600160a01b0319166001600160a01b038616179055620001c2601484600262000683565b50620001d2601683600262000683565b506011546040805163db7a460560e01b8152815162000248936001600160a01b03169263db7a460592600480820193918290030181865afa1580156200021c573d6000803e3d6000fd5b505050506040513d601f19601f8201168201806040525081019062000242919062000af2565b62000520565b601160009054906101000a90046001600160a01b03166001600160a01b031663deef94de6040518163ffffffff1660e01b8152600401602060405180830381865afa1580156200029c573d6000803e3d6000fd5b505050506040513d601f19601f82011682018060405250810190620002c2919062000b59565b601280546001600160a01b0319166001600160a01b039283161790556011546040805163d63a6ccd60e01b81529051919092169163d63a6ccd9160048083019260209291908290030181865afa15801562000321573d6000803e3d6000fd5b505050506040513d601f19601f8201168201806040525081019062000347919062000b59565b601380546001600160a01b0319166001600160a01b0392831690811790915560115460405163095ea7b360e01b81529216600483015260001960248301529063095ea7b3906044016020604051808303816000875af1158015620003af573d6000803e3d6000fd5b505050506040513d601f19601f82011682018060405250810190620003d5919062000b80565b5060135460125460405163095ea7b360e01b81526001600160a01b039182166004820152600019602482015291169063095ea7b3906044016020604051808303816000875af11580156200042d573d6000803e3d6000fd5b505050506040513d601f19601f8201168201806040525081019062000453919062000b80565b5060115460405163095ea7b360e01b81526001600160a01b039091166004820181905260001960248301529063095ea7b3906044016020604051808303816000875af1158015620004a8573d6000803e3d6000fd5b505050506040513d601f19601f82011682018060405250810190620004ce919062000b80565b50506000601855505050505050565b620004f482826200052e60201b6200236c1760201c565b60008281526001602090815260409091206200051b918390620023f0620005ce821b17901c565b505050565b620000ba60028281620006b3565b6000828152602081815260408083206001600160a01b038516845290915290205460ff16620000ba576000828152602081815260408083206001600160a01b03851684529091529020805460ff191660011790556200058a3390565b6001600160a01b0316816001600160a01b0316837f2f8788117e7eff1d82e926ec794901d17c78024a50270940304540a733656f0d60405160405180910390a45050565b6000620005e5836001600160a01b038416620005ee565b90505b92915050565b60008181526001830160205260408120546200063757508154600181810184556000848152602080822090930184905584548482528286019093526040902091909155620005e8565b506000620005e8565b826004810192821562000671579160200282015b828111156200067157825182559160200191906001019062000654565b506200067f929150620006fe565b5090565b82600281019282156200067157916020028201828111156200067157825182559160200191906001019062000654565b826002810192821562000671579160200282015b828111156200067157825182546001600160a01b0319166001600160a01b03909116178255602090920191600190910190620006c7565b5b808211156200067f5760008155600101620006ff565b634e487b7160e01b600052604160045260246000fd5b604080519081016001600160401b038111828210171562000750576200075062000715565b60405290565b604051601f8201601f191681016001600160401b038111828210171562000781576200078162000715565b604052919050565b600082601f8301126200079b57600080fd5b604051608081016001600160401b0381118282101715620007c057620007c062000715565b604052806080840185811115620007d657600080fd5b845b81811015620007f2578051835260209283019201620007d8565b509195945050505050565b6001600160a01b03811681146200081357600080fd5b50565b80516200082381620007fd565b919050565b600082601f8301126200083a57600080fd5b620008446200072b565b8060408401858111156200085757600080fd5b845b818110156200087357805184526020938401930162000859565b509095945050505050565b6000806000806000806101c087890312156200089957600080fd5b86516001600160401b0380821115620008b157600080fd5b818901915089601f830112620008c657600080fd5b815181811115620008db57620008db62000715565b60209150620008f3601f8201601f1916830162000756565b8181528b838386010111156200090857600080fd5b60005b82811015620009285784810184015182820185015283016200090b565b5060008383830101528099505050620009448a828b0162000789565b96505050620009578860a0890162000789565b935062000968610120880162000816565b92506200097a88610140890162000828565b91506200098c88610180890162000828565b90509295509295509295565b600181811c90821680620009ad57607f821691505b602082108103620009ce57634e487b7160e01b600052602260045260246000fd5b50919050565b601f8211156200051b57600081815260208120601f850160051c81016020861015620009fd5750805b601f850160051c820191505b8181101562000a1e5782815560010162000a09565b505050505050565b81516001600160401b0381111562000a425762000a4262000715565b62000a5a8162000a53845462000998565b84620009d4565b602080601f83116001811462000a92576000841562000a795750858301515b600019600386901b1c1916600185901b17855562000a1e565b600085815260208120601f198616915b8281101562000ac35788860151825594840194600190910190840162000aa2565b508582101562000ae25787850151600019600388901b60f8161c191681555b5050505050600190811b01905550565b60006040828403121562000b0557600080fd5b82601f83011262000b1557600080fd5b62000b1f6200072b565b80604084018581111562000b3257600080fd5b845b818110156200087357805162000b4a81620007fd565b84526020938401930162000b34565b60006020828403121562000b6c57600080fd5b815162000b7981620007fd565b9392505050565b60006020828403121562000b9357600080fd5b8151801515811462000b7957600080fd5b614db18062000bb46000396000f3fe608060405234801561001057600080fd5b50600436106103a35760003560e01c8063731133e9116101e9578063ca7b24471161010f578063deef94de116100ad578063f03f1e511161007c578063f03f1e5114610854578063f0b2df891461085c578063f242432a1461086f578063f5298aca1461088257600080fd5b8063deef94de146107cb578063df71da76146107de578063e63ab1e9146107f1578063e985e9c51461081857600080fd5b8063d36dfac8116100e9578063d36dfac81461076b578063d53913931461077e578063d547741f146107a5578063d63a6ccd146107b857600080fd5b8063ca7b24471461071f578063ced79ce014610732578063d36122b81461076357600080fd5b80639010d07c11610187578063a22cb46511610156578063a22cb465146106c6578063bceef70c146106d9578063bd85b039146106ec578063ca15c8731461070c57600080fd5b80639010d07c1461069057806391d14854146106a3578063a1f5c239146106b6578063a217fddf146106be57600080fd5b80637e93391a116101c35780637e93391a146106655780638456cb591461066d578063869f7594146106755780638d3bd55b1461068857600080fd5b8063731133e914610636578063780069e0146106495780637ad71f721461065257600080fd5b806336568abe116102ce57806351ba5b441161026c5780635e95b4fe1161023b5780635e95b4fe146105f557806362f791c0146106085780636b20c4541461061b5780636e748f971461062e57600080fd5b806351ba5b44146105bc57806353f7ffd2146105c4578063592fa65e146105d75780635c975abb146105ea57600080fd5b8063418f7c51116102a8578063418f7c51146105495780634b3fd05a1461055c5780634e1273f4146105875780634f558e791461059a57600080fd5b806336568abe1461051b57806337f1e7f21461052e5780633f4ba83a1461054157600080fd5b80631a5e85e51161034657806326a49e371161031557806326a49e37146104da5780632c13f08c146104ed5780632eb2c2d6146104f55780632f2ff15d1461050857600080fd5b80631a5e85e51461047a5780631f7fdffa1461048257806323f77fa914610497578063248a9ca3146104b757600080fd5b806306fdde031161038257806306fdde03146104045780630e89341c1461043f5780631623025714610452578063168affdf1461045a57600080fd5b8062fdd58e146103a857806301ffc9a7146103ce57806304ca4c07146103f1575b600080fd5b6103bb6103b6366004613cc6565b610895565b6040519081526020015b60405180910390f35b6103e16103dc366004613d08565b610930565b60405190151581526020016103c5565b6103bb6103ff366004613d25565b61093b565b6104326040518060400160405280600f81526020016e14d8599948165a595b191cc8139195608a1b81525081565b6040516103c59190613d97565b61043261044d366004613daa565b610960565b6103bb6109f4565b6103bb610468366004613daa565b60196020526000908152604090205481565b6103bb610a91565b610495610490366004613f3b565b610acc565b005b6104aa6104a5366004613fd5565b610b24565b6040516103c5919061402d565b6103bb6104c5366004613daa565b60009081526020819052604090206001015490565b6103bb6104e8366004613daa565b610b97565b6104aa610bae565b610495610503366004614040565b610c25565b6104956105163660046140ed565b610c71565b6104956105293660046140ed565b610c9b565b6103bb61053c366004614131565b610d19565b610495610d47565b6103bb61055736600461414c565b610ded565b60115461056f906001600160a01b031681565b6040516001600160a01b0390911681526020016103c5565b6104aa61059536600461418a565b610eba565b6103e16105a8366004613daa565b600090815260086020526040902054151590565b6103bb610fe3565b6104956105d2366004614256565b611066565b6103bb6105e5366004613d25565b61115b565b60075460ff166103e1565b6103bb610603366004613d25565b611177565b610495610616366004614256565b611193565b610495610629366004614272565b6115ef565b6103bb600481565b6104956106443660046142e7565b611632565b6103bb60185481565b61056f610660366004613daa565b611684565b6103bb6116a4565b610495611847565b6103bb610683366004613daa565b6118eb565b6103bb600281565b61056f61069e366004613d25565b6118fb565b6103e16106b13660046140ed565b61191a565b6104aa611943565b6103bb600081565b6104956106d436600461434b565b611955565b6104956106e7366004614415565b611960565b6103bb6106fa366004613daa565b60009081526008602052604090205490565b6103bb61071a366004613daa565b611d8f565b6103bb61072d366004613daa565b611da6565b6103bb6107403660046144c1565b601c60209081526000938452604080852082529284528284209052825290205481565b610495611db6565b610495610779366004613daa565b611e11565b6103bb7f9f2df0fed2c77648de5860a4cc508cd0818c85b8b8a1ab4ceeef8d981c8956a681565b6104956107b33660046140ed565b61219f565b60135461056f906001600160a01b031681565b60125461056f906001600160a01b031681565b6103bb6107ec366004613daa565b6121c4565b6103bb7f65d7a28e3265b37a6474929f336521b332c1681b933f6cb9f3376673440d862a81565b6103e16108263660046144fa565b6001600160a01b03918216600090815260056020908152604080832093909416825291909152205460ff1690565b6103bb6121d4565b6103bb61086a366004614131565b61223c565b61049561087d366004614528565b6122e4565b610495610890366004614590565b612329565b60006001600160a01b0383166109055760405162461bcd60e51b815260206004820152602a60248201527f455243313135353a2061646472657373207a65726f206973206e6f742061207660448201526930b634b21037bbb732b960b11b60648201526084015b60405180910390fd5b5060008181526004602090815260408083206001600160a01b03861684529091529020545b92915050565b600061092a82612405565b601a602052816000526040600020816004811061095757600080fd5b01549150829050565b60606006805461096f906145c5565b80601f016020809104026020016040519081016040528092919081815260200182805461099b906145c5565b80156109e85780601f106109bd576101008083540402835291602001916109e8565b820191906000526020600020905b8154815290600101906020018083116109cb57829003601f168201915b50505050509050919050565b600080805b6004811015610a8b5760005b6018548111610a78576000818152601d602052604090208260048110610a2d57610a2d6145f9565b01546000828152601a602052604090208360048110610a4e57610a4e6145f9565b0154610a5a9190614625565b610a649084614638565b925080610a708161464b565b915050610a05565b5080610a838161464b565b9150506109f9565b50919050565b600080805b6004811015610a8b57600081815260086020526040902054610ab89083614638565b915080610ac48161464b565b915050610a96565b610af67f9f2df0fed2c77648de5860a4cc508cd0818c85b8b8a1ab4ceeef8d981c8956a63361191a565b610b125760405162461bcd60e51b81526004016108fc90614664565b610b1e84848484612410565b50505050565b60408051600480825260a08201909252606091600091906020820160808036833701905050905060005b6004811015610b9057610b618482610895565b828281518110610b7357610b736145f9565b602090810291909101015280610b888161464b565b915050610b4e565b5092915050565b60098160048110610ba757600080fd5b0154905081565b60408051600480825260a08201909252606091600091906020820160808036833701905050905060005b6004811015610a8b57610bf681600381111561086a5761086a6146c1565b828281518110610c0857610c086145f9565b602090810291909101015280610c1d8161464b565b915050610bd8565b6001600160a01b038516331480610c415750610c418533610826565b610c5d5760405162461bcd60e51b81526004016108fc906146d7565b610c6a858585858561257a565b5050505050565b600082815260208190526040902060010154610c8c81612735565b610c96838361273f565b505050565b6001600160a01b0381163314610d0b5760405162461bcd60e51b815260206004820152602f60248201527f416363657373436f6e74726f6c3a2063616e206f6e6c792072656e6f756e636560448201526e103937b632b9903337b91039b2b63360891b60648201526084016108fc565b610d158282612761565b5050565b60006009826003811115610d2f57610d2f6146c1565b60048110610d3f57610d3f6145f9565b015492915050565b610d717f65d7a28e3265b37a6474929f336521b332c1681b933f6cb9f3376673440d862a3361191a565b610de35760405162461bcd60e51b815260206004820152603b60248201527f455243313135355072657365744d696e7465725061757365723a206d7573742060448201527f686176652070617573657220726f6c6520746f20756e7061757365000000000060648201526084016108fc565b610deb612783565b565b600080836003811115610e0257610e026146c1565b6018546000908152601a60205260408120919250908260048110610e2857610e286145f9565b01546000838152600860205260408120549192509015610e7457600083815260086020526040902054610e5b8885610895565b610e659084614725565b610e6f919061473c565b610e77565b60005b6000868152601c6020908152604080832087845282528083206001600160a01b038c168452909152902054909150610eaf9082614625565b979650505050505050565b60608151835114610f1f5760405162461bcd60e51b815260206004820152602960248201527f455243313135353a206163636f756e747320616e6420696473206c656e677468604482015268040dad2e6dac2e8c6d60bb1b60648201526084016108fc565b600083516001600160401b03811115610f3a57610f3a613dc3565b604051908082528060200260200182016040528015610f63578160200160208202803683370190505b50905060005b8451811015610fdb57610fae858281518110610f8757610f876145f9565b6020026020010151858381518110610fa157610fa16145f9565b6020026020010151610895565b828281518110610fc057610fc06145f9565b6020908102919091010152610fd48161464b565b9050610f69565b509392505050565b60003381805b60048110156110395760098160048110611005576110056145f9565b01546110118483610895565b61101b9190614725565b6110259083614638565b9150806110318161464b565b915050610fe9565b5060006110446116a4565b9050801561105b57611056818361473c565b61105e565b60005b935050505090565b336000611074828585610ded565b60135460405163a9059cbb60e01b81526001600160a01b0385811660048301526024820184905292935091169063a9059cbb906044016020604051808303816000875af11580156110c9573d6000803e3d6000fd5b505050506040513d601f19601f820116820180604052508101906110ed919061475e565b506000838152601c602052604081208291866003811115611110576111106146c1565b81526020019081526020016000206000846001600160a01b03166001600160a01b0316815260200190815260200160002060008282546111509190614638565b909155505050505050565b601d602052816000526040600020816004811061095757600080fd5b601b602052816000526040600020816004811061095757600080fd5b6111be6040518060400160405280600a815260200169189d5e5a5b99c813919560b21b8152506127d5565b600081116112345760405162461bcd60e51b815260206004820152603860248201527f455243313135355072657365744d696e7465725061757365723a20616d6f756e60448201527f74206d7573742062652067726561746572207468616e2030000000000000000060648201526084016108fc565b6000600983600381111561124a5761124a6146c1565b6004811061125a5761125a6145f9565b0154116112cf5760405162461bcd60e51b815260206004820152603c60248201527f455243313135355072657365744d696e7465725061757365723a20746965722060448201527f7072696365206d7573742062652067726561746572207468616e20300000000060648201526084016108fc565b60008260038111156112e3576112e36146c1565b905060008260098560038111156112fc576112fc6146c1565b6004811061130c5761130c6145f9565b01546113189190614725565b9050611351604051806040016040528060158152602001747472616e7366657272696e6720757364507269636560581b81525082612818565b6013546001600160a01b03166323b872dd336040516001600160e01b031960e084901b1681526001600160a01b039091166004820152306024820152604481018490526064016020604051808303816000875af11580156113b6573d6000803e3d6000fd5b505050506040513d601f19601f820116820180604052508101906113da919061475e565b5060006113e882601461285d565b90506114296040518060400160405280601a81526020017f7472616e7366657272696e6720746f53656c6c466f725361666500000000000081525082612818565b60115460405163f7e0ba5f60e01b8152600481018390526000916001600160a01b03169063f7e0ba5f906024016020604051808303816000875af1158015611475573d6000803e3d6000fd5b505050506040513d601f19601f82011682018060405250810190611499919061477b565b90506114d660405180604001604052806019815260200178039b0b332a0b6b7bab73a103932ba3ab93732b210333937b69603d1b81525082612818565b6011546000906114f1906001600160a01b03168360146128bd565b6013546040516370a0823160e01b81523060048201529192506000916001600160a01b03909116906370a0823190602401602060405180830381865afa15801561153f573d6000803e3d6000fd5b505050506040513d601f19601f82011682018060405250810190611563919061477b565b905080156115ca5760125460405163b6b55f2560e01b8152600481018390526001600160a01b039091169063b6b55f2590602401600060405180830381600087803b1580156115b157600080fd5b505af11580156115c5573d6000803e3d6000fd5b505050505b6115e533878960405180602001604052806000815250612af4565b5050505050505050565b6001600160a01b03831633148061160b575061160b8333610826565b6116275760405162461bcd60e51b81526004016108fc906146d7565b610c96838383612be5565b61165c7f9f2df0fed2c77648de5860a4cc508cd0818c85b8b8a1ab4ceeef8d981c8956a63361191a565b6116785760405162461bcd60e51b81526004016108fc90614664565b610b1e84848484612af4565b6002816002811061169457600080fd5b01546001600160a01b0316905081565b6000670de0b6b3a7640000601160009054906101000a90046001600160a01b03166001600160a01b031663a035b1fe6040518163ffffffff1660e01b8152600401602060405180830381865afa158015611702573d6000803e3d6000fd5b505050506040513d601f19601f82011682018060405250810190611726919061477b565b6011546001600160a01b03166370a0823160026000015460405160e083901b6001600160e01b03191681526001600160a01b039091166004820152602401602060405180830381865afa158015611781573d6000803e3d6000fd5b505050506040513d601f19601f820116820180604052508101906117a5919061477b565b6117af9190614725565b6117b9919061473c565b6013546001600160a01b03166370a0823160026000015460405160e083901b6001600160e01b03191681526001600160a01b039091166004820152602401602060405180830381865afa158015611814573d6000803e3d6000fd5b505050506040513d601f19601f82011682018060405250810190611838919061477b565b6118429190614638565b905090565b6118717f65d7a28e3265b37a6474929f336521b332c1681b933f6cb9f3376673440d862a3361191a565b6118e35760405162461bcd60e51b815260206004820152603960248201527f455243313135355072657365744d696e7465725061757365723a206d7573742060448201527f686176652070617573657220726f6c6520746f2070617573650000000000000060648201526084016108fc565b610deb612d8e565b600d8160048110610ba757600080fd5b60008281526001602052604081206119139083612dcb565b9392505050565b6000918252602082815260408084206001600160a01b0393909316845291905290205460ff1690565b60603361194f81610b24565b91505090565b610d15338383612dd7565b600061198a7fb53127684a568b3173ae13b9f8a6016e243e63b6e8ee1178d6a717850b5d61035490565b90506001600160a01b0381166119c9576001600160a01b037fb53127684a568b3173ae13b9f8a6016e243e63b6e8ee1178d6a717850b5d6103556119de565b336001600160a01b038216146119de57600080fd5b6119e787612eb7565b6119f2600033612ec3565b611a1c7f9f2df0fed2c77648de5860a4cc508cd0818c85b8b8a1ab4ceeef8d981c8956a633612ec3565b611a467f65d7a28e3265b37a6474929f336521b332c1681b933f6cb9f3376673440d862a33612ec3565b611a536009876004613be9565b50611a61600d866004613be9565b50601180546001600160a01b0319166001600160a01b038616179055611a8a6014846002613c27565b50611a986016836002613c27565b506011546040805163db7a460560e01b81528151611b09936001600160a01b03169263db7a460592600480820193918290030181865afa158015611ae0573d6000803e3d6000fd5b505050506040513d601f19601f82011682018060405250810190611b049190614794565b612ecd565b601160009054906101000a90046001600160a01b03166001600160a01b031663deef94de6040518163ffffffff1660e01b8152600401602060405180830381865afa158015611b5c573d6000803e3d6000fd5b505050506040513d601f19601f82011682018060405250810190611b8091906147f6565b601280546001600160a01b0319166001600160a01b039283161790556011546040805163d63a6ccd60e01b81529051919092169163d63a6ccd9160048083019260209291908290030181865afa158015611bde573d6000803e3d6000fd5b505050506040513d601f19601f82011682018060405250810190611c0291906147f6565b601380546001600160a01b0319166001600160a01b0392831690811790915560115460405163095ea7b360e01b81529216600483015260001960248301529063095ea7b3906044016020604051808303816000875af1158015611c69573d6000803e3d6000fd5b505050506040513d601f19601f82011682018060405250810190611c8d919061475e565b5060135460125460405163095ea7b360e01b81526001600160a01b039182166004820152600019602482015291169063095ea7b3906044016020604051808303816000875af1158015611ce4573d6000803e3d6000fd5b505050506040513d601f19601f82011682018060405250810190611d08919061475e565b5060115460405163095ea7b360e01b81526001600160a01b039091166004820181905260001960248301529063095ea7b3906044016020604051808303816000875af1158015611d5c573d6000803e3d6000fd5b505050506040513d601f19601f82011682018060405250810190611d80919061475e565b50506000601855505050505050565b600081815260016020526040812061092a90612ed9565b60168160028110610ba757600080fd5b60005b6004811015611e0e5760005b6018548111611dfb57611de9826003811115611de357611de36146c1565b82611066565b80611df38161464b565b915050611dc5565b5080611e068161464b565b915050611db9565b50565b611e48604051806040016040528060158152602001747472616e7366657272696e6720757364507269636560581b81525082612818565b6013546001600160a01b03166323b872dd336040516001600160e01b031960e084901b1681526001600160a01b039091166004820152306024820152604481018490526064016020604051808303816000875af1158015611ead573d6000803e3d6000fd5b505050506040513d601f19601f82011682018060405250810190611ed1919061475e565b506000611edf60028361473c565b90506000611ef7611ef08385614625565b601661285d565b9050611f386040518060400160405280601a81526020017f7472616e7366657272696e6720746f53656c6c466f725361666500000000000081525082612818565b60115460405163f7e0ba5f60e01b8152600481018390526000916001600160a01b03169063f7e0ba5f906024016020604051808303816000875af1158015611f84573d6000803e3d6000fd5b505050506040513d601f19601f82011682018060405250810190611fa8919061477b565b9050611fe560405180604001604052806019815260200178039b0b332a0b6b7bab73a103932ba3ab93732b210333937b69603d1b81525082612818565b601154600090612000906001600160a01b03168360166128bd565b6018805491925060006120128361464b565b90915550506018546000908152601960205260408120829055612033610a91565b905060005b60048110156120c1576000818152600860209081526040808320546018548452601b90925290912081908360048110612073576120736145f9565b0155826120808289614725565b61208a919061473c565b6018546000908152601a6020526040902083600481106120ac576120ac6145f9565b015550806120b98161464b565b915050612038565b506013546040516370a0823160e01b81523060048201526000916001600160a01b0316906370a0823190602401602060405180830381865afa15801561210b573d6000803e3d6000fd5b505050506040513d601f19601f8201168201806040525081019061212f919061477b565b905080156121965760125460405163b6b55f2560e01b8152600481018390526001600160a01b039091169063b6b55f2590602401600060405180830381600087803b15801561217d57600080fd5b505af1158015612191573d6000803e3d6000fd5b505050505b50505050505050565b6000828152602081905260409020600101546121ba81612735565b610c968383612761565b60148160028110610ba757600080fd5b60003381805b6004811015610b905760005b60185481116122295761220b84836003811115612205576122056146c1565b83610ded565b6122159084614638565b9250806122218161464b565b9150506121e6565b50806122348161464b565b9150506121da565b60006122538260038111156106fa576106fa6146c1565b156122725761226d8260038111156106fa576106fa6146c1565b612275565b60015b6018546000908152601a60205260409020836003811115612298576122986146c1565b600481106122a8576122a86145f9565b01546122b4919061473c565b60098360038111156122c8576122c86146c1565b600481106122d8576122d86145f9565b015461092a9190614638565b6001600160a01b03851633148061230057506123008533610826565b61231c5760405162461bcd60e51b81526004016108fc906146d7565b610c6a8585858585612ee3565b6001600160a01b03831633148061234557506123458333610826565b6123615760405162461bcd60e51b81526004016108fc906146d7565b610c9683838361302d565b612376828261191a565b610d15576000828152602081815260408083206001600160a01b03851684529091529020805460ff191660011790556123ac3390565b6001600160a01b0316816001600160a01b0316837f2f8788117e7eff1d82e926ec794901d17c78024a50270940304540a733656f0d60405160405180910390a45050565b6000611913836001600160a01b038416613153565b600061092a826131a2565b6001600160a01b0384166124365760405162461bcd60e51b81526004016108fc90614813565b81518351146124575760405162461bcd60e51b81526004016108fc90614854565b33612467816000878787876131e2565b60005b845181101561250357838181518110612485576124856145f9565b6020026020010151600460008784815181106124a3576124a36145f9565b602002602001015181526020019081526020016000206000886001600160a01b03166001600160a01b0316815260200190815260200160002060008282546124eb9190614638565b909155508190506124fb8161464b565b91505061246a565b50846001600160a01b031660006001600160a01b0316826001600160a01b03167f4a39dc06d4c0dbc64b70af90fd698a233a518aa5d07e595d983b8c0526c8f7fb878760405161255492919061489c565b60405180910390a461256b816000878787876131f0565b610c6a816000878787876132a2565b815183511461259b5760405162461bcd60e51b81526004016108fc90614854565b6001600160a01b0384166125c15760405162461bcd60e51b81526004016108fc906148ca565b336125d08187878787876131e2565b60005b84518110156126b95760008582815181106125f0576125f06145f9565b60200260200101519050600085838151811061260e5761260e6145f9565b60209081029190910181015160008481526004835260408082206001600160a01b038e16835290935291909120549091508181101561265f5760405162461bcd60e51b81526004016108fc9061490f565b60008381526004602090815260408083206001600160a01b038e8116855292528083208585039055908b1682528120805484929061269e908490614638565b92505081905550505050806126b29061464b565b90506125d3565b50846001600160a01b0316866001600160a01b0316826001600160a01b03167f4a39dc06d4c0dbc64b70af90fd698a233a518aa5d07e595d983b8c0526c8f7fb878760405161270992919061489c565b60405180910390a461271f8187878787876131f0565b61272d8187878787876132a2565b505050505050565b611e0e81336133fd565b612749828261236c565b6000828152600160205260409020610c9690826123f0565b61276b8282613456565b6000828152600160205260409020610c9690826134bb565b61278b6134d0565b6007805460ff191690557f5db9ee0a495bf2e6ff9c91a7834c1ba4fdd244a5e8aa4e537bd38aeae4b073aa335b6040516001600160a01b03909116815260200160405180910390a1565b611e0e816040516024016127e99190613d97565b60408051601f198184030181529190526020810180516001600160e01b031663104c13eb60e21b179052613519565b610d15828260405160240161282e929190614959565b60408051601f198184030181529190526020810180516001600160e01b0316632d839cb360e21b179052613519565b600080805b600281101561289d5783816002811061287d5761287d6145f9565b01546128899083614638565b9150806128958161464b565b915050612862565b506127106128ab8286614725565b6128b5919061473c565b949350505050565b60006128f06040518060400160405280600f81526020016e446973747269627574696e6720257360881b81525084612818565b604080518082018252600a81526962616c616e636520257360b01b602082015290516370a0823160e01b815230600482015261298191906001600160a01b038716906370a0823190602401602060405180830381865afa158015612958573d6000803e3d6000fd5b505050506040513d601f19601f8201168201806040525081019061297c919061477b565b612818565b6000805b6002811015612ac35760006127108583600281106129a5576129a56145f9565b01546129b19088614725565b6129bb919061473c565b9050612a0d6040518060400160405280601081526020016f73656e64696e6720257320746f20257360801b81525084600285600281106129fd576129fd6145f9565b01546001600160a01b031661353a565b866001600160a01b031663a9059cbb60028460028110612a2f57612a2f6145f9565b015460405160e083901b6001600160e01b03191681526001600160a01b039091166004820152602481018490526044016020604051808303816000875af1158015612a7e573d6000803e3d6000fd5b505050506040513d601f19601f82011682018060405250810190612aa2919061475e565b50612aad8184614638565b9250508080612abb9061464b565b915050612985565b506128b56040518060400160405280600e81526020016d446973747269627574656420257360901b81525082612818565b6001600160a01b038416612b1a5760405162461bcd60e51b81526004016108fc90614813565b336000612b2685613581565b90506000612b3385613581565b9050612b44836000898585896131e2565b60008681526004602090815260408083206001600160a01b038b16845290915281208054879290612b76908490614638565b909155505060408051878152602081018790526001600160a01b03808a1692600092918716917fc3d58168c5ae7397731d063d5bbf3d657854427343f4c083240f7aacaa2d0f62910160405180910390a4612bd6836000898585896131f0565b612196836000898989896135cc565b6001600160a01b038316612c0b5760405162461bcd60e51b81526004016108fc9061497b565b8051825114612c2c5760405162461bcd60e51b81526004016108fc90614854565b6000339050612c4f818560008686604051806020016040528060008152506131e2565b60005b8351811015612d17576000848281518110612c6f57612c6f6145f9565b602002602001015190506000848381518110612c8d57612c8d6145f9565b60209081029190910181015160008481526004835260408082206001600160a01b038c168352909352919091205490915081811015612cde5760405162461bcd60e51b81526004016108fc906149be565b60009283526004602090815260408085206001600160a01b038b1686529091529092209103905580612d0f8161464b565b915050612c52565b5060006001600160a01b0316846001600160a01b0316826001600160a01b03167f4a39dc06d4c0dbc64b70af90fd698a233a518aa5d07e595d983b8c0526c8f7fb8686604051612d6892919061489c565b60405180910390a4610b1e818560008686604051806020016040528060008152506131f0565b612d96613687565b6007805460ff191660011790557f62e78cea01bee320cd4e420270b5ea74000d11b0c9f74754ebdbfc544b05a2586127b83390565b600061191383836136cd565b816001600160a01b0316836001600160a01b031603612e4a5760405162461bcd60e51b815260206004820152602960248201527f455243313135353a2073657474696e6720617070726f76616c20737461747573604482015268103337b91039b2b63360b91b60648201526084016108fc565b6001600160a01b03838116600081815260056020908152604080832094871680845294825291829020805460ff191686151590811790915591519182527f17307eab39ab6107e8899845ad3d59bd9653f200f220920489ca2b5937696c31910160405180910390a3505050565b6006610d158282614a48565b610d15828261273f565b610d1560028281613c54565b600061092a825490565b6001600160a01b038416612f095760405162461bcd60e51b81526004016108fc906148ca565b336000612f1585613581565b90506000612f2285613581565b9050612f328389898585896131e2565b60008681526004602090815260408083206001600160a01b038c16845290915290205485811015612f755760405162461bcd60e51b81526004016108fc9061490f565b60008781526004602090815260408083206001600160a01b038d8116855292528083208985039055908a16825281208054889290612fb4908490614638565b909155505060408051888152602081018890526001600160a01b03808b16928c821692918816917fc3d58168c5ae7397731d063d5bbf3d657854427343f4c083240f7aacaa2d0f62910160405180910390a4613014848a8a86868a6131f0565b613022848a8a8a8a8a6135cc565b505050505050505050565b6001600160a01b0383166130535760405162461bcd60e51b81526004016108fc9061497b565b33600061305f84613581565b9050600061306c84613581565b905061308c838760008585604051806020016040528060008152506131e2565b60008581526004602090815260408083206001600160a01b038a168452909152902054848110156130cf5760405162461bcd60e51b81526004016108fc906149be565b60008681526004602090815260408083206001600160a01b038b81168086529184528285208a8703905582518b81529384018a90529092908816917fc3d58168c5ae7397731d063d5bbf3d657854427343f4c083240f7aacaa2d0f62910160405180910390a4612196848860008686604051806020016040528060008152506131f0565b600081815260018301602052604081205461319a5750815460018181018455600084815260208082209093018490558454848252828601909352604090209190915561092a565b50600061092a565b60006001600160e01b03198216636cdb3d1360e11b14806131d357506001600160e01b031982166303a24d0760e21b145b8061092a575061092a826136f7565b61272d86868686868661371c565b600d83600081518110613205576132056145f9565b60200260200101516004811061321d5761321d6145f9565b015461324f84600081518110613235576132356145f9565b602002602001015160009081526008602052604090205490565b111561329d5760405162461bcd60e51b815260206004820152601b60248201527f536166654e46543a206d617820737570706c792072656163686564000000000060448201526064016108fc565b61272d565b6001600160a01b0384163b1561272d5760405163bc197c8160e01b81526001600160a01b0385169063bc197c81906132e69089908990889088908890600401614b07565b6020604051808303816000875af1925050508015613321575060408051601f3d908101601f1916820190925261331e91810190614b65565b60015b6133cd5761332d614b82565b806308c379a0036133665750613341614b9e565b8061334c5750613368565b8060405162461bcd60e51b81526004016108fc9190613d97565b505b60405162461bcd60e51b815260206004820152603460248201527f455243313135353a207472616e7366657220746f206e6f6e2d455243313135356044820152732932b1b2b4bb32b91034b6b83632b6b2b73a32b960611b60648201526084016108fc565b6001600160e01b0319811663bc197c8160e01b146121965760405162461bcd60e51b81526004016108fc90614c27565b613407828261191a565b610d1557613414816138a3565b61341f8360206138b5565b604051602001613430929190614c6f565b60408051601f198184030181529082905262461bcd60e51b82526108fc91600401613d97565b613460828261191a565b15610d15576000828152602081815260408083206001600160a01b0385168085529252808320805460ff1916905551339285917ff6391f5c32d9c69d2a47ea670b442974b53935d1edc7fd64eb21e047a839171b9190a45050565b6000611913836001600160a01b038416613a50565b60075460ff16610deb5760405162461bcd60e51b815260206004820152601460248201527314185d5cd8589b194e881b9bdd081c185d5cd95960621b60448201526064016108fc565b80516a636f6e736f6c652e6c6f67602083016000808483855afa5050505050565b610c9683838360405160240161355293929190614ce4565b60408051601f198184030181529190526020810180516001600160e01b031663038fd88960e31b179052613519565b604080516001808252818301909252606091600091906020808301908036833701905050905082816000815181106135bb576135bb6145f9565b602090810291909101015292915050565b6001600160a01b0384163b1561272d5760405163f23a6e6160e01b81526001600160a01b0385169063f23a6e61906136109089908990889088908890600401614d16565b6020604051808303816000875af192505050801561364b575060408051601f3d908101601f1916820190925261364891810190614b65565b60015b6136575761332d614b82565b6001600160e01b0319811663f23a6e6160e01b146121965760405162461bcd60e51b81526004016108fc90614c27565b60075460ff1615610deb5760405162461bcd60e51b815260206004820152601060248201526f14185d5cd8589b194e881c185d5cd95960821b60448201526064016108fc565b60008260000182815481106136e4576136e46145f9565b9060005260206000200154905092915050565b60006001600160e01b03198216635a05180f60e01b148061092a575061092a82613b43565b61372a868686868686613b78565b6001600160a01b0385166137b15760005b83518110156137af57828181518110613756576137566145f9565b602002602001015160086000868481518110613774576137746145f9565b6020026020010151815260200190815260200160002060008282546137999190614638565b909155506137a890508161464b565b905061373b565b505b6001600160a01b03841661272d5760005b83518110156121965760008482815181106137df576137df6145f9565b6020026020010151905060008483815181106137fd576137fd6145f9565b60200260200101519050600060086000848152602001908152602001600020549050818110156138805760405162461bcd60e51b815260206004820152602860248201527f455243313135353a206275726e20616d6f756e74206578636565647320746f74604482015267616c537570706c7960c01b60648201526084016108fc565b6000928352600860205260409092209103905561389c8161464b565b90506137c2565b606061092a6001600160a01b03831660145b606060006138c4836002614725565b6138cf906002614638565b6001600160401b038111156138e6576138e6613dc3565b6040519080825280601f01601f191660200182016040528015613910576020820181803683370190505b509050600360fc1b8160008151811061392b5761392b6145f9565b60200101906001600160f81b031916908160001a905350600f60fb1b8160018151811061395a5761395a6145f9565b60200101906001600160f81b031916908160001a905350600061397e846002614725565b613989906001614638565b90505b6001811115613a01576f181899199a1a9b1b9c1cb0b131b232b360811b85600f16601081106139bd576139bd6145f9565b1a60f81b8282815181106139d3576139d36145f9565b60200101906001600160f81b031916908160001a90535060049490941c936139fa81614d4e565b905061398c565b5083156119135760405162461bcd60e51b815260206004820181905260248201527f537472696e67733a20686578206c656e67746820696e73756666696369656e7460448201526064016108fc565b60008181526001830160205260408120548015613b39576000613a74600183614625565b8554909150600090613a8890600190614625565b9050818114613aed576000866000018281548110613aa857613aa86145f9565b9060005260206000200154905080876000018481548110613acb57613acb6145f9565b6000918252602080832090910192909255918252600188019052604090208390555b8554869080613afe57613afe614d65565b60019003818190600052602060002001600090559055856001016000868152602001908152602001600020600090556001935050505061092a565b600091505061092a565b60006001600160e01b03198216637965db0b60e01b148061092a57506301ffc9a760e01b6001600160e01b031983161461092a565b61272d86868686868660075460ff161561272d5760405162461bcd60e51b815260206004820152602c60248201527f455243313135355061757361626c653a20746f6b656e207472616e736665722060448201526b1dda1a5b19481c185d5cd95960a21b60648201526084016108fc565b8260048101928215613c17579160200282015b82811115613c17578251825591602001919060010190613bfc565b50613c23929150613c9c565b5090565b8260028101928215613c175791602002820182811115613c17578251825591602001919060010190613bfc565b8260028101928215613c17579160200282015b82811115613c1757825182546001600160a01b0319166001600160a01b03909116178255602090920191600190910190613c67565b5b80821115613c235760008155600101613c9d565b6001600160a01b0381168114611e0e57600080fd5b60008060408385031215613cd957600080fd5b8235613ce481613cb1565b946020939093013593505050565b6001600160e01b031981168114611e0e57600080fd5b600060208284031215613d1a57600080fd5b813561191381613cf2565b60008060408385031215613d3857600080fd5b50508035926020909101359150565b60005b83811015613d62578181015183820152602001613d4a565b50506000910152565b60008151808452613d83816020860160208601613d47565b601f01601f19169290920160200192915050565b6020815260006119136020830184613d6b565b600060208284031215613dbc57600080fd5b5035919050565b634e487b7160e01b600052604160045260246000fd5b604081018181106001600160401b0382111715613df857613df8613dc3565b60405250565b601f8201601f191681016001600160401b0381118282101715613e2357613e23613dc3565b6040525050565b60006001600160401b03821115613e4357613e43613dc3565b5060051b60200190565b600082601f830112613e5e57600080fd5b81356020613e6b82613e2a565b604051613e788282613dfe565b83815260059390931b8501820192828101915086841115613e9857600080fd5b8286015b84811015613eb35780358352918301918301613e9c565b509695505050505050565b60006001600160401b03831115613ed757613ed7613dc3565b604051613eee601f8501601f191660200182613dfe565b809150838152848484011115613f0357600080fd5b83836020830137600060208583010152509392505050565b600082601f830112613f2c57600080fd5b61191383833560208501613ebe565b60008060008060808587031215613f5157600080fd5b8435613f5c81613cb1565b935060208501356001600160401b0380821115613f7857600080fd5b613f8488838901613e4d565b94506040870135915080821115613f9a57600080fd5b613fa688838901613e4d565b93506060870135915080821115613fbc57600080fd5b50613fc987828801613f1b565b91505092959194509250565b600060208284031215613fe757600080fd5b813561191381613cb1565b600081518084526020808501945080840160005b8381101561402257815187529582019590820190600101614006565b509495945050505050565b6020815260006119136020830184613ff2565b600080600080600060a0868803121561405857600080fd5b853561406381613cb1565b9450602086013561407381613cb1565b935060408601356001600160401b038082111561408f57600080fd5b61409b89838a01613e4d565b945060608801359150808211156140b157600080fd5b6140bd89838a01613e4d565b935060808801359150808211156140d357600080fd5b506140e088828901613f1b565b9150509295509295909350565b6000806040838503121561410057600080fd5b82359150602083013561411281613cb1565b809150509250929050565b80356004811061412c57600080fd5b919050565b60006020828403121561414357600080fd5b6119138261411d565b60008060006060848603121561416157600080fd5b833561416c81613cb1565b925061417a6020850161411d565b9150604084013590509250925092565b6000806040838503121561419d57600080fd5b82356001600160401b03808211156141b457600080fd5b818501915085601f8301126141c857600080fd5b813560206141d582613e2a565b6040516141e28282613dfe565b83815260059390931b850182019282810191508984111561420257600080fd5b948201945b8386101561422957853561421a81613cb1565b82529482019490820190614207565b9650508601359250508082111561423f57600080fd5b5061424c85828601613e4d565b9150509250929050565b6000806040838503121561426957600080fd5b613ce48361411d565b60008060006060848603121561428757600080fd5b833561429281613cb1565b925060208401356001600160401b03808211156142ae57600080fd5b6142ba87838801613e4d565b935060408601359150808211156142d057600080fd5b506142dd86828701613e4d565b9150509250925092565b600080600080608085870312156142fd57600080fd5b843561430881613cb1565b9350602085013592506040850135915060608501356001600160401b0381111561433157600080fd5b613fc987828801613f1b565b8015158114611e0e57600080fd5b6000806040838503121561435e57600080fd5b823561436981613cb1565b915060208301356141128161433d565b600082601f83011261438a57600080fd5b604051608081018181106001600160401b03821117156143ac576143ac613dc3565b6040528060808401858111156143c157600080fd5b845b818110156143db5780358352602092830192016143c3565b509195945050505050565b600082601f8301126143f757600080fd5b60405161440381613dd9565b8060408401858111156143c157600080fd5b6000806000806000806101c0878903121561442f57600080fd5b86356001600160401b0381111561444557600080fd5b8701601f8101891361445657600080fd5b61446589823560208401613ebe565b9650506144758860208901614379565b94506144848860a08901614379565b935061012087013561449581613cb1565b92506144a58861014089016143e6565b91506144b58861018089016143e6565b90509295509295509295565b6000806000606084860312156144d657600080fd5b833592506020840135915060408401356144ef81613cb1565b809150509250925092565b6000806040838503121561450d57600080fd5b823561451881613cb1565b9150602083013561411281613cb1565b600080600080600060a0868803121561454057600080fd5b853561454b81613cb1565b9450602086013561455b81613cb1565b9350604086013592506060860135915060808601356001600160401b0381111561458457600080fd5b6140e088828901613f1b565b6000806000606084860312156145a557600080fd5b83356145b081613cb1565b95602085013595506040909401359392505050565b600181811c908216806145d957607f821691505b602082108103610a8b57634e487b7160e01b600052602260045260246000fd5b634e487b7160e01b600052603260045260246000fd5b634e487b7160e01b600052601160045260246000fd5b8181038181111561092a5761092a61460f565b8082018082111561092a5761092a61460f565b60006001820161465d5761465d61460f565b5060010190565b60208082526038908201527f455243313135355072657365744d696e7465725061757365723a206d7573742060408201527f68617665206d696e74657220726f6c6520746f206d696e740000000000000000606082015260800190565b634e487b7160e01b600052602160045260246000fd5b6020808252602e908201527f455243313135353a2063616c6c6572206973206e6f7420746f6b656e206f776e60408201526d195c881bdc88185c1c1c9bdd995960921b606082015260800190565b808202811582820484141761092a5761092a61460f565b60008261475957634e487b7160e01b600052601260045260246000fd5b500490565b60006020828403121561477057600080fd5b81516119138161433d565b60006020828403121561478d57600080fd5b5051919050565b6000604082840312156147a657600080fd5b82601f8301126147b557600080fd5b6040516147c181613dd9565b8060408401858111156147d357600080fd5b845b818110156143db5780516147e881613cb1565b8352602092830192016147d5565b60006020828403121561480857600080fd5b815161191381613cb1565b60208082526021908201527f455243313135353a206d696e7420746f20746865207a65726f206164647265736040820152607360f81b606082015260800190565b60208082526028908201527f455243313135353a2069647320616e6420616d6f756e7473206c656e677468206040820152670dad2e6dac2e8c6d60c31b606082015260800190565b6040815260006148af6040830185613ff2565b82810360208401526148c18185613ff2565b95945050505050565b60208082526025908201527f455243313135353a207472616e7366657220746f20746865207a65726f206164604082015264647265737360d81b606082015260800190565b6020808252602a908201527f455243313135353a20696e73756666696369656e742062616c616e636520666f60408201526939103a3930b739b332b960b11b606082015260800190565b60408152600061496c6040830185613d6b565b90508260208301529392505050565b60208082526023908201527f455243313135353a206275726e2066726f6d20746865207a65726f206164647260408201526265737360e81b606082015260800190565b60208082526024908201527f455243313135353a206275726e20616d6f756e7420657863656564732062616c604082015263616e636560e01b606082015260800190565b601f821115610c9657600081815260208120601f850160051c81016020861015614a295750805b601f850160051c820191505b8181101561272d57828155600101614a35565b81516001600160401b03811115614a6157614a61613dc3565b614a7581614a6f84546145c5565b84614a02565b602080601f831160018114614aaa5760008415614a925750858301515b600019600386901b1c1916600185901b17855561272d565b600085815260208120601f198616915b82811015614ad957888601518255948401946001909101908401614aba565b5085821015614af75787850151600019600388901b60f8161c191681555b5050505050600190811b01905550565b60006001600160a01b03808816835280871660208401525060a06040830152614b3360a0830186613ff2565b8281036060840152614b458186613ff2565b90508281036080840152614b598185613d6b565b98975050505050505050565b600060208284031215614b7757600080fd5b815161191381613cf2565b600060033d1115614b9b5760046000803e5060005160e01c5b90565b600060443d1015614bac5790565b6040516003193d81016004833e81513d6001600160401b038160248401118184111715614bdb57505050505090565b8285019150815181811115614bf35750505050505090565b843d8701016020828501011115614c0d5750505050505090565b614c1c60208286010187613dfe565b509095945050505050565b60208082526028908201527f455243313135353a204552433131353552656365697665722072656a656374656040820152676420746f6b656e7360c01b606082015260800190565b7f416363657373436f6e74726f6c3a206163636f756e7420000000000000000000815260008351614ca7816017850160208801613d47565b7001034b99036b4b9b9b4b733903937b6329607d1b6017918401918201528351614cd8816028840160208801613d47565b01602801949350505050565b606081526000614cf76060830186613d6b565b90508360208301526001600160a01b0383166040830152949350505050565b60006001600160a01b03808816835280871660208401525084604083015283606083015260a06080830152610eaf60a0830184613d6b565b600081614d5d57614d5d61460f565b506000190190565b634e487b7160e01b600052603160045260246000fdfea264697066735822122098d116da801e926e73ed9646e4f397d3d4b7723139ece92003808d6195b2de9464736f6c63430008110033b53127684a568b3173ae13b9f8a6016e243e63b6e8ee1178d6a717850b5d610365d7a28e3265b37a6474929f336521b332c1681b933f6cb9f3376673440d862a9f2df0fed2c77648de5860a4cc508cd0818c85b8b8a1ab4ceeef8d981c8956a6",
  "linkReferences": {},
  "deployedLinkReferences": {}
}