{
  "_format": "hh-sol-artifact-1",
  "contractName": "SafeNFT",
  "sourceName": "contracts/SafeNFT.sol",
  "abi": [
    {
      "inputs": [
        {
          "internalType": "string",
          "name": "_uri",
          "type": "string"
        },
        {
          "internalType": "uint256[4]",
          "name": "_price",
          "type": "uint256[4]"
        },
        {
          "internalType": "uint256[4]",
          "name": "_maxSupply",
          "type": "uint256[4]"
        },
        {
          "internalType": "contract ISafeToken",
          "name": "_safeToken",
          "type": "address"
        },
        {
          "internalType": "uint256[2]",
          "name": "_priceDistributionOnMint",
          "type": "uint256[2]"
        },
        {
          "internalType": "uint256[2]",
          "name": "_profitDistribution",
          "type": "uint256[2]"
        }
      ],
      "stateMutability": "nonpayable",
      "type": "constructor"
    },
    {
      "anonymous": false,
      "inputs": [
        {
          "indexed": true,
          "internalType": "address",
          "name": "account",
          "type": "address"
        },
        {
          "indexed": true,
          "internalType": "address",
          "name": "operator",
          "type": "address"
        },
        {
          "indexed": false,
          "internalType": "bool",
          "name": "approved",
          "type": "bool"
        }
      ],
      "name": "ApprovalForAll",
      "type": "event"
    },
    {
      "anonymous": false,
      "inputs": [
        {
          "indexed": false,
          "internalType": "address",
          "name": "account",
          "type": "address"
        }
      ],
      "name": "Paused",
      "type": "event"
    },
    {
      "anonymous": false,
      "inputs": [
        {
          "indexed": true,
          "internalType": "bytes32",
          "name": "role",
          "type": "bytes32"
        },
        {
          "indexed": true,
          "internalType": "bytes32",
          "name": "previousAdminRole",
          "type": "bytes32"
        },
        {
          "indexed": true,
          "internalType": "bytes32",
          "name": "newAdminRole",
          "type": "bytes32"
        }
      ],
      "name": "RoleAdminChanged",
      "type": "event"
    },
    {
      "anonymous": false,
      "inputs": [
        {
          "indexed": true,
          "internalType": "bytes32",
          "name": "role",
          "type": "bytes32"
        },
        {
          "indexed": true,
          "internalType": "address",
          "name": "account",
          "type": "address"
        },
        {
          "indexed": true,
          "internalType": "address",
          "name": "sender",
          "type": "address"
        }
      ],
      "name": "RoleGranted",
      "type": "event"
    },
    {
      "anonymous": false,
      "inputs": [
        {
          "indexed": true,
          "internalType": "bytes32",
          "name": "role",
          "type": "bytes32"
        },
        {
          "indexed": true,
          "internalType": "address",
          "name": "account",
          "type": "address"
        },
        {
          "indexed": true,
          "internalType": "address",
          "name": "sender",
          "type": "address"
        }
      ],
      "name": "RoleRevoked",
      "type": "event"
    },
    {
      "anonymous": false,
      "inputs": [
        {
          "indexed": true,
          "internalType": "address",
          "name": "operator",
          "type": "address"
        },
        {
          "indexed": true,
          "internalType": "address",
          "name": "from",
          "type": "address"
        },
        {
          "indexed": true,
          "internalType": "address",
          "name": "to",
          "type": "address"
        },
        {
          "indexed": false,
          "internalType": "uint256[]",
          "name": "ids",
          "type": "uint256[]"
        },
        {
          "indexed": false,
          "internalType": "uint256[]",
          "name": "values",
          "type": "uint256[]"
        }
      ],
      "name": "TransferBatch",
      "type": "event"
    },
    {
      "anonymous": false,
      "inputs": [
        {
          "indexed": true,
          "internalType": "address",
          "name": "operator",
          "type": "address"
        },
        {
          "indexed": true,
          "internalType": "address",
          "name": "from",
          "type": "address"
        },
        {
          "indexed": true,
          "internalType": "address",
          "name": "to",
          "type": "address"
        },
        {
          "indexed": false,
          "internalType": "uint256",
          "name": "id",
          "type": "uint256"
        },
        {
          "indexed": false,
          "internalType": "uint256",
          "name": "value",
          "type": "uint256"
        }
      ],
      "name": "TransferSingle",
      "type": "event"
    },
    {
      "anonymous": false,
      "inputs": [
        {
          "indexed": false,
          "internalType": "string",
          "name": "value",
          "type": "string"
        },
        {
          "indexed": true,
          "internalType": "uint256",
          "name": "id",
          "type": "uint256"
        }
      ],
      "name": "URI",
      "type": "event"
    },
    {
      "anonymous": false,
      "inputs": [
        {
          "indexed": false,
          "internalType": "address",
          "name": "account",
          "type": "address"
        }
      ],
      "name": "Unpaused",
      "type": "event"
    },
    {
      "inputs": [],
      "name": "DEFAULT_ADMIN_ROLE",
      "outputs": [
        {
          "internalType": "bytes32",
          "name": "",
          "type": "bytes32"
        }
      ],
      "stateMutability": "view",
      "type": "function"
    },
    {
      "inputs": [],
      "name": "MINTER_ROLE",
      "outputs": [
        {
          "internalType": "bytes32",
          "name": "",
          "type": "bytes32"
        }
      ],
      "stateMutability": "view",
      "type": "function"
    },
    {
      "inputs": [],
      "name": "PAUSER_ROLE",
      "outputs": [
        {
          "internalType": "bytes32",
          "name": "",
          "type": "bytes32"
        }
      ],
      "stateMutability": "view",
      "type": "function"
    },
    {
      "inputs": [],
      "name": "TIERS",
      "outputs": [
        {
          "internalType": "uint256",
          "name": "",
          "type": "uint256"
        }
      ],
      "stateMutability": "view",
      "type": "function"
    },
    {
      "inputs": [],
      "name": "WALLETS",
      "outputs": [
        {
          "internalType": "uint256",
          "name": "",
          "type": "uint256"
        }
      ],
      "stateMutability": "view",
      "type": "function"
    },
    {
      "inputs": [
        {
          "internalType": "address",
          "name": "account",
          "type": "address"
        },
        {
          "internalType": "uint256",
          "name": "id",
          "type": "uint256"
        }
      ],
      "name": "balanceOf",
      "outputs": [
        {
          "internalType": "uint256",
          "name": "",
          "type": "uint256"
        }
      ],
      "stateMutability": "view",
      "type": "function"
    },
    {
      "inputs": [
        {
          "internalType": "address[]",
          "name": "accounts",
          "type": "address[]"
        },
        {
          "internalType": "uint256[]",
          "name": "ids",
          "type": "uint256[]"
        }
      ],
      "name": "balanceOfBatch",
      "outputs": [
        {
          "internalType": "uint256[]",
          "name": "",
          "type": "uint256[]"
        }
      ],
      "stateMutability": "view",
      "type": "function"
    },
    {
      "inputs": [
        {
          "internalType": "address",
          "name": "account",
          "type": "address"
        },
        {
          "internalType": "uint256",
          "name": "id",
          "type": "uint256"
        },
        {
          "internalType": "uint256",
          "name": "value",
          "type": "uint256"
        }
      ],
      "name": "burn",
      "outputs": [],
      "stateMutability": "nonpayable",
      "type": "function"
    },
    {
      "inputs": [
        {
          "internalType": "address",
          "name": "account",
          "type": "address"
        },
        {
          "internalType": "uint256[]",
          "name": "ids",
          "type": "uint256[]"
        },
        {
          "internalType": "uint256[]",
          "name": "values",
          "type": "uint256[]"
        }
      ],
      "name": "burnBatch",
      "outputs": [],
      "stateMutability": "nonpayable",
      "type": "function"
    },
    {
      "inputs": [
        {
          "internalType": "enum ISafeNFT.Tiers",
          "name": "_tier",
          "type": "uint8"
        },
        {
          "internalType": "uint256",
          "name": "_amount",
          "type": "uint256"
        }
      ],
      "name": "buy",
      "outputs": [],
      "stateMutability": "nonpayable",
      "type": "function"
    },
    {
      "inputs": [],
      "name": "claimReward",
      "outputs": [],
      "stateMutability": "nonpayable",
      "type": "function"
    },
    {
      "inputs": [
        {
          "internalType": "uint256",
          "name": "_amountUSD",
          "type": "uint256"
        }
      ],
      "name": "distributeRewards",
      "outputs": [],
      "stateMutability": "nonpayable",
      "type": "function"
    },
    {
      "inputs": [
        {
          "internalType": "uint256",
          "name": "id",
          "type": "uint256"
        }
      ],
      "name": "exists",
      "outputs": [
        {
          "internalType": "bool",
          "name": "",
          "type": "bool"
        }
      ],
      "stateMutability": "view",
      "type": "function"
    },
    {
      "inputs": [
        {
          "internalType": "bytes32",
          "name": "role",
          "type": "bytes32"
        }
      ],
      "name": "getRoleAdmin",
      "outputs": [
        {
          "internalType": "bytes32",
          "name": "",
          "type": "bytes32"
        }
      ],
      "stateMutability": "view",
      "type": "function"
    },
    {
      "inputs": [
        {
          "internalType": "bytes32",
          "name": "role",
          "type": "bytes32"
        },
        {
          "internalType": "uint256",
          "name": "index",
          "type": "uint256"
        }
      ],
      "name": "getRoleMember",
      "outputs": [
        {
          "internalType": "address",
          "name": "",
          "type": "address"
        }
      ],
      "stateMutability": "view",
      "type": "function"
    },
    {
      "inputs": [
        {
          "internalType": "bytes32",
          "name": "role",
          "type": "bytes32"
        }
      ],
      "name": "getRoleMemberCount",
      "outputs": [
        {
          "internalType": "uint256",
          "name": "",
          "type": "uint256"
        }
      ],
      "stateMutability": "view",
      "type": "function"
    },
    {
      "inputs": [
        {
          "internalType": "bytes32",
          "name": "role",
          "type": "bytes32"
        },
        {
          "internalType": "address",
          "name": "account",
          "type": "address"
        }
      ],
      "name": "grantRole",
      "outputs": [],
      "stateMutability": "nonpayable",
      "type": "function"
    },
    {
      "inputs": [
        {
          "internalType": "bytes32",
          "name": "role",
          "type": "bytes32"
        },
        {
          "internalType": "address",
          "name": "account",
          "type": "address"
        }
      ],
      "name": "hasRole",
      "outputs": [
        {
          "internalType": "bool",
          "name": "",
          "type": "bool"
        }
      ],
      "stateMutability": "view",
      "type": "function"
    },
    {
      "inputs": [
        {
          "internalType": "string",
          "name": "_uri",
          "type": "string"
        },
        {
          "internalType": "uint256[4]",
          "name": "_price",
          "type": "uint256[4]"
        },
        {
          "internalType": "uint256[4]",
          "name": "_maxSupply",
          "type": "uint256[4]"
        },
        {
          "internalType": "contract ISafeToken",
          "name": "_safeToken",
          "type": "address"
        },
        {
          "internalType": "uint256[2]",
          "name": "_priceDistributionOnMint",
          "type": "uint256[2]"
        },
        {
          "internalType": "uint256[2]",
          "name": "_profitDistribution",
          "type": "uint256[2]"
        }
      ],
      "name": "initialize",
      "outputs": [],
      "stateMutability": "nonpayable",
      "type": "function"
    },
    {
      "inputs": [
        {
          "internalType": "address",
          "name": "account",
          "type": "address"
        },
        {
          "internalType": "address",
          "name": "operator",
          "type": "address"
        }
      ],
      "name": "isApprovedForAll",
      "outputs": [
        {
          "internalType": "bool",
          "name": "",
          "type": "bool"
        }
      ],
      "stateMutability": "view",
      "type": "function"
    },
    {
      "inputs": [
        {
          "internalType": "uint256",
          "name": "",
          "type": "uint256"
        }
      ],
      "name": "maxSupply",
      "outputs": [
        {
          "internalType": "uint256",
          "name": "",
          "type": "uint256"
        }
      ],
      "stateMutability": "view",
      "type": "function"
    },
    {
      "inputs": [
        {
          "internalType": "address",
          "name": "to",
          "type": "address"
        },
        {
          "internalType": "uint256",
          "name": "id",
          "type": "uint256"
        },
        {
          "internalType": "uint256",
          "name": "amount",
          "type": "uint256"
        },
        {
          "internalType": "bytes",
          "name": "data",
          "type": "bytes"
        }
      ],
      "name": "mint",
      "outputs": [],
      "stateMutability": "nonpayable",
      "type": "function"
    },
    {
      "inputs": [
        {
          "internalType": "address",
          "name": "to",
          "type": "address"
        },
        {
          "internalType": "uint256[]",
          "name": "ids",
          "type": "uint256[]"
        },
        {
          "internalType": "uint256[]",
          "name": "amounts",
          "type": "uint256[]"
        },
        {
          "internalType": "bytes",
          "name": "data",
          "type": "bytes"
        }
      ],
      "name": "mintBatch",
      "outputs": [],
      "stateMutability": "nonpayable",
      "type": "function"
    },
    {
      "inputs": [],
      "name": "name",
      "outputs": [
        {
          "internalType": "string",
          "name": "",
          "type": "string"
        }
      ],
      "stateMutability": "view",
      "type": "function"
    },
    {
      "inputs": [],
      "name": "pause",
      "outputs": [],
      "stateMutability": "nonpayable",
      "type": "function"
    },
    {
      "inputs": [],
      "name": "paused",
      "outputs": [
        {
          "internalType": "bool",
          "name": "",
          "type": "bool"
        }
      ],
      "stateMutability": "view",
      "type": "function"
    },
    {
      "inputs": [],
      "name": "pendingRewards",
      "outputs": [
        {
          "internalType": "uint256",
          "name": "",
          "type": "uint256"
        }
      ],
      "stateMutability": "nonpayable",
      "type": "function"
    },
    {
      "inputs": [],
      "name": "percentOfTreasury",
      "outputs": [
        {
          "internalType": "uint256",
          "name": "",
          "type": "uint256"
        }
      ],
      "stateMutability": "nonpayable",
      "type": "function"
    },
    {
      "inputs": [
        {
          "internalType": "uint256",
          "name": "",
          "type": "uint256"
        }
      ],
      "name": "price",
      "outputs": [
        {
          "internalType": "uint256",
          "name": "",
          "type": "uint256"
        }
      ],
      "stateMutability": "view",
      "type": "function"
    },
    {
      "inputs": [
        {
          "internalType": "uint256",
          "name": "",
          "type": "uint256"
        }
      ],
      "name": "priceDistributionOnMint",
      "outputs": [
        {
          "internalType": "uint256",
          "name": "",
          "type": "uint256"
        }
      ],
      "stateMutability": "view",
      "type": "function"
    },
    {
      "inputs": [
        {
          "internalType": "uint256",
          "name": "",
          "type": "uint256"
        }
      ],
      "name": "profitDistribution",
      "outputs": [
        {
          "internalType": "uint256",
          "name": "",
          "type": "uint256"
        }
      ],
      "stateMutability": "view",
      "type": "function"
    },
    {
      "inputs": [
        {
          "internalType": "bytes32",
          "name": "role",
          "type": "bytes32"
        },
        {
          "internalType": "address",
          "name": "account",
          "type": "address"
        }
      ],
      "name": "renounceRole",
      "outputs": [],
      "stateMutability": "nonpayable",
      "type": "function"
    },
    {
      "inputs": [
        {
          "internalType": "bytes32",
          "name": "role",
          "type": "bytes32"
        },
        {
          "internalType": "address",
          "name": "account",
          "type": "address"
        }
      ],
      "name": "revokeRole",
      "outputs": [],
      "stateMutability": "nonpayable",
      "type": "function"
    },
    {
      "inputs": [
        {
          "internalType": "address",
          "name": "from",
          "type": "address"
        },
        {
          "internalType": "address",
          "name": "to",
          "type": "address"
        },
        {
          "internalType": "uint256[]",
          "name": "ids",
          "type": "uint256[]"
        },
        {
          "internalType": "uint256[]",
          "name": "amounts",
          "type": "uint256[]"
        },
        {
          "internalType": "bytes",
          "name": "data",
          "type": "bytes"
        }
      ],
      "name": "safeBatchTransferFrom",
      "outputs": [],
      "stateMutability": "nonpayable",
      "type": "function"
    },
    {
      "inputs": [],
      "name": "safeToken",
      "outputs": [
        {
          "internalType": "contract ISafeToken",
          "name": "",
          "type": "address"
        }
      ],
      "stateMutability": "view",
      "type": "function"
    },
    {
      "inputs": [
        {
          "internalType": "address",
          "name": "from",
          "type": "address"
        },
        {
          "internalType": "address",
          "name": "to",
          "type": "address"
        },
        {
          "internalType": "uint256",
          "name": "id",
          "type": "uint256"
        },
        {
          "internalType": "uint256",
          "name": "amount",
          "type": "uint256"
        },
        {
          "internalType": "bytes",
          "name": "data",
          "type": "bytes"
        }
      ],
      "name": "safeTransferFrom",
      "outputs": [],
      "stateMutability": "nonpayable",
      "type": "function"
    },
    {
      "inputs": [],
      "name": "safeVault",
      "outputs": [
        {
          "internalType": "contract ISafeVault",
          "name": "",
          "type": "address"
        }
      ],
      "stateMutability": "view",
      "type": "function"
    },
    {
      "inputs": [
        {
          "internalType": "address",
          "name": "operator",
          "type": "address"
        },
        {
          "internalType": "bool",
          "name": "approved",
          "type": "bool"
        }
      ],
      "name": "setApprovalForAll",
      "outputs": [],
      "stateMutability": "nonpayable",
      "type": "function"
    },
    {
      "inputs": [
        {
          "internalType": "bytes4",
          "name": "interfaceId",
          "type": "bytes4"
        }
      ],
      "name": "supportsInterface",
      "outputs": [
        {
          "internalType": "bool",
          "name": "",
          "type": "bool"
        }
      ],
      "stateMutability": "view",
      "type": "function"
    },
    {
      "inputs": [
        {
          "internalType": "uint256",
          "name": "id",
          "type": "uint256"
        }
      ],
      "name": "totalSupply",
      "outputs": [
        {
          "internalType": "uint256",
          "name": "",
          "type": "uint256"
        }
      ],
      "stateMutability": "view",
      "type": "function"
    },
    {
      "inputs": [],
      "name": "unpause",
      "outputs": [],
      "stateMutability": "nonpayable",
      "type": "function"
    },
    {
      "inputs": [
        {
          "internalType": "uint256",
          "name": "",
          "type": "uint256"
        }
      ],
      "name": "uri",
      "outputs": [
        {
          "internalType": "string",
          "name": "",
          "type": "string"
        }
      ],
      "stateMutability": "view",
      "type": "function"
    },
    {
      "inputs": [],
      "name": "usd",
      "outputs": [
        {
          "internalType": "contract IERC20",
          "name": "",
          "type": "address"
        }
      ],
      "stateMutability": "view",
      "type": "function"
    },
    {
      "inputs": [
        {
          "internalType": "uint256",
          "name": "",
          "type": "uint256"
        }
      ],
      "name": "wallets",
      "outputs": [
        {
          "internalType": "address",
          "name": "",
          "type": "address"
        }
      ],
      "stateMutability": "view",
      "type": "function"
    }
  ],
  "bytecode": "0x60806040523480156200001157600080fd5b5060405162004e3e38038062004e3e833981016040819052620000349162000879565b85806200004181620000ac565b506007805460ff1916905562000059600033620000be565b6200007460008051602062004e1e83398151915233620000be565b6200008f60008051602062004dfe83398151915233620000be565b50620000a0868686868686620000ca565b50505050505062000b9f565b6006620000ba828262000a21565b5050565b620000ba8282620004d8565b6000620000e460008051602062004dde8339815191525490565b90506001600160a01b03811662000114576001600160a01b0360008051602062004dde833981519152556200012a565b336001600160a01b038216146200012a57600080fd5b6200013587620000ac565b62000142600033620000be565b6200015d60008051602062004e1e83398151915233620000be565b6200017860008051602062004dfe83398151915233620000be565b6200018760098760046200063b565b5062000197600d8660046200063b565b50601180546001600160a01b0319166001600160a01b038616179055620001c260148460026200067e565b50620001d260168360026200067e565b506011546040805163db7a460560e01b8152815162000248936001600160a01b03169263db7a460592600480820193918290030181865afa1580156200021c573d6000803e3d6000fd5b505050506040513d601f19601f8201168201806040525081019062000242919062000aed565b6200051b565b601160009054906101000a90046001600160a01b03166001600160a01b031663deef94de6040518163ffffffff1660e01b8152600401602060405180830381865afa1580156200029c573d6000803e3d6000fd5b505050506040513d601f19601f82011682018060405250810190620002c2919062000b54565b601280546001600160a01b0319166001600160a01b039283161790556011546040805163d63a6ccd60e01b81529051919092169163d63a6ccd9160048083019260209291908290030181865afa15801562000321573d6000803e3d6000fd5b505050506040513d601f19601f8201168201806040525081019062000347919062000b54565b601380546001600160a01b0319166001600160a01b0392831690811790915560115460405163095ea7b360e01b81529216600483015260001960248301529063095ea7b3906044016020604051808303816000875af1158015620003af573d6000803e3d6000fd5b505050506040513d601f19601f82011682018060405250810190620003d5919062000b7b565b5060135460125460405163095ea7b360e01b81526001600160a01b039182166004820152600019602482015291169063095ea7b3906044016020604051808303816000875af11580156200042d573d6000803e3d6000fd5b505050506040513d601f19601f8201168201806040525081019062000453919062000b7b565b5060115460405163095ea7b360e01b81526001600160a01b039091166004820181905260001960248301529063095ea7b3906044016020604051808303816000875af1158015620004a8573d6000803e3d6000fd5b505050506040513d601f19601f82011682018060405250810190620004ce919062000b7b565b5050505050505050565b620004ef82826200052960201b620018921760201c565b60008281526001602090815260409091206200051691839062001916620005c9821b17901c565b505050565b620000ba60028281620006ae565b6000828152602081815260408083206001600160a01b038516845290915290205460ff16620000ba576000828152602081815260408083206001600160a01b03851684529091529020805460ff19166001179055620005853390565b6001600160a01b0316816001600160a01b0316837f2f8788117e7eff1d82e926ec794901d17c78024a50270940304540a733656f0d60405160405180910390a45050565b6000620005e0836001600160a01b038416620005e9565b90505b92915050565b60008181526001830160205260408120546200063257508154600181810184556000848152602080822090930184905584548482528286019093526040902091909155620005e3565b506000620005e3565b82600481019282156200066c579160200282015b828111156200066c5782518255916020019190600101906200064f565b506200067a929150620006f9565b5090565b82600281019282156200066c57916020028201828111156200066c5782518255916020019190600101906200064f565b82600281019282156200066c579160200282015b828111156200066c57825182546001600160a01b0319166001600160a01b03909116178255602090920191600190910190620006c2565b5b808211156200067a5760008155600101620006fa565b634e487b7160e01b600052604160045260246000fd5b604080519081016001600160401b03811182821017156200074b576200074b62000710565b60405290565b604051601f8201601f191681016001600160401b03811182821017156200077c576200077c62000710565b604052919050565b600082601f8301126200079657600080fd5b604051608081016001600160401b0381118282101715620007bb57620007bb62000710565b604052806080840185811115620007d157600080fd5b845b81811015620007ed578051835260209283019201620007d3565b509195945050505050565b6001600160a01b03811681146200080e57600080fd5b50565b80516200081e81620007f8565b919050565b600082601f8301126200083557600080fd5b6200083f62000726565b8060408401858111156200085257600080fd5b845b818110156200086e57805184526020938401930162000854565b509095945050505050565b6000806000806000806101c087890312156200089457600080fd5b86516001600160401b0380821115620008ac57600080fd5b818901915089601f830112620008c157600080fd5b815181811115620008d657620008d662000710565b60209150620008ee601f8201601f1916830162000751565b8181528b838386010111156200090357600080fd5b60005b828110156200092357848101840151828201850152830162000906565b50600083838301015280995050506200093f8a828b0162000784565b96505050620009528860a0890162000784565b935062000963610120880162000811565b92506200097588610140890162000823565b91506200098788610180890162000823565b90509295509295509295565b600181811c90821680620009a857607f821691505b602082108103620009c957634e487b7160e01b600052602260045260246000fd5b50919050565b601f8211156200051657600081815260208120601f850160051c81016020861015620009f85750805b601f850160051c820191505b8181101562000a195782815560010162000a04565b505050505050565b81516001600160401b0381111562000a3d5762000a3d62000710565b62000a558162000a4e845462000993565b84620009cf565b602080601f83116001811462000a8d576000841562000a745750858301515b600019600386901b1c1916600185901b17855562000a19565b600085815260208120601f198616915b8281101562000abe5788860151825594840194600190910190840162000a9d565b508582101562000add5787850151600019600388901b60f8161c191681555b5050505050600190811b01905550565b60006040828403121562000b0057600080fd5b82601f83011262000b1057600080fd5b62000b1a62000726565b80604084018581111562000b2d57600080fd5b845b818110156200086e57805162000b4581620007f8565b84526020938401930162000b2f565b60006020828403121562000b6757600080fd5b815162000b7481620007f8565b9392505050565b60006020828403121562000b8e57600080fd5b8151801515811462000b7457600080fd5b61422f8062000baf6000396000f3fe608060405234801561001057600080fd5b50600436106102735760003560e01c80638456cb5911610151578063ca7b2447116100c3578063df71da7611610087578063df71da761461059e578063e63ab1e9146105b1578063e985e9c5146105d8578063eded3fda146102fc578063f242432a14610614578063f5298aca1461062757600080fd5b8063ca7b24471461052b578063d53913931461053e578063d547741f14610565578063d63a6ccd14610578578063deef94de1461058b57600080fd5b8063a217fddf11610115578063a217fddf146104ca578063a22cb465146104d2578063b88a802f14610329578063bceef70c146104e5578063bd85b039146104f8578063ca15c8731461051857600080fd5b80638456cb5914610481578063869f7594146104895780638d3bd55b1461049c5780639010d07c146104a457806391d14854146104b757600080fd5b80633f4ba83a116101ea5780635c975abb116101ae5780635c975abb1461042257806362f791c01461042d5780636b20c454146104405780636e748f9714610453578063731133e91461045b5780637ad71f721461046e57600080fd5b80633f4ba83a1461039a5780634b3fd05a146103a25780634e1273f4146103cd5780634f558e79146103ed57806359974e381461040f57600080fd5b80631f7fdffa1161023c5780631f7fdffa14610316578063248a9ca31461032b57806326a49e371461034e5780632eb2c2d6146103615780632f2ff15d1461037457806336568abe1461038757600080fd5b8062fdd58e1461027857806301ffc9a71461029e57806306fdde03146102c1578063089f001c146102fc5780630e89341c14610303575b600080fd5b61028b6102863660046131f0565b61063a565b6040519081526020015b60405180910390f35b6102b16102ac366004613232565b6106d5565b6040519015158152602001610295565b6102ef6040518060400160405280600f81526020016e14d8599948165a595b191cc8139195608a1b81525081565b604051610295919061329f565b600061028b565b6102ef6103113660046132b2565b6106e0565b610329610324366004613443565b610774565b005b61028b6103393660046132b2565b60009081526020819052604090206001015490565b61028b61035c3660046132b2565b6107cc565b61032961036f3660046134dd565b6107e3565b61032961038236600461358a565b61082f565b61032961039536600461358a565b610859565b6103296108d7565b6011546103b5906001600160a01b031681565b6040516001600160a01b039091168152602001610295565b6103e06103db3660046135ba565b61097d565b60405161029591906136c1565b6102b16103fb3660046132b2565b600090815260086020526040902054151590565b61032961041d3660046132b2565b610aa6565b60075460ff166102b1565b61032961043b3660046136d4565b610d76565b61032961044e3660046136f6565b6111d2565b61028b600481565b61032961046936600461376b565b611215565b6103b561047c3660046132b2565b611267565b610329611287565b61028b6104973660046132b2565b61132b565b61028b600281565b6103b56104b23660046137c1565b61133b565b6102b16104c536600461358a565b61135a565b61028b600081565b6103296104e03660046137f1565b611383565b6103296104f33660046138bb565b61138e565b61028b6105063660046132b2565b60009081526008602052604090205490565b61028b6105263660046132b2565b6117ae565b61028b6105393660046132b2565b6117c5565b61028b7f9f2df0fed2c77648de5860a4cc508cd0818c85b8b8a1ab4ceeef8d981c8956a681565b61032961057336600461358a565b6117d5565b6013546103b5906001600160a01b031681565b6012546103b5906001600160a01b031681565b61028b6105ac3660046132b2565b6117fa565b61028b7f65d7a28e3265b37a6474929f336521b332c1681b933f6cb9f3376673440d862a81565b6102b16105e6366004613967565b6001600160a01b03918216600090815260056020908152604080832093909416825291909152205460ff1690565b610329610622366004613995565b61180a565b6103296106353660046139fd565b61184f565b60006001600160a01b0383166106aa5760405162461bcd60e51b815260206004820152602a60248201527f455243313135353a2061646472657373207a65726f206973206e6f742061207660448201526930b634b21037bbb732b960b11b60648201526084015b60405180910390fd5b5060008181526004602090815260408083206001600160a01b03861684529091529020545b92915050565b60006106cf8261192b565b6060600680546106ef90613a32565b80601f016020809104026020016040519081016040528092919081815260200182805461071b90613a32565b80156107685780601f1061073d57610100808354040283529160200191610768565b820191906000526020600020905b81548152906001019060200180831161074b57829003601f168201915b50505050509050919050565b61079e7f9f2df0fed2c77648de5860a4cc508cd0818c85b8b8a1ab4ceeef8d981c8956a63361135a565b6107ba5760405162461bcd60e51b81526004016106a190613a6c565b6107c684848484611936565b50505050565b600981600481106107dc57600080fd5b0154905081565b6001600160a01b0385163314806107ff57506107ff85336105e6565b61081b5760405162461bcd60e51b81526004016106a190613ac9565b6108288585858585611aa0565b5050505050565b60008281526020819052604090206001015461084a81611c53565b6108548383611c60565b505050565b6001600160a01b03811633146108c95760405162461bcd60e51b815260206004820152602f60248201527f416363657373436f6e74726f6c3a2063616e206f6e6c792072656e6f756e636560448201526e103937b632b9903337b91039b2b63360891b60648201526084016106a1565b6108d38282611c82565b5050565b6109017f65d7a28e3265b37a6474929f336521b332c1681b933f6cb9f3376673440d862a3361135a565b6109735760405162461bcd60e51b815260206004820152603b60248201527f455243313135355072657365744d696e7465725061757365723a206d7573742060448201527f686176652070617573657220726f6c6520746f20756e7061757365000000000060648201526084016106a1565b61097b611ca4565b565b606081518351146109e25760405162461bcd60e51b815260206004820152602960248201527f455243313135353a206163636f756e747320616e6420696473206c656e677468604482015268040dad2e6dac2e8c6d60bb1b60648201526084016106a1565b600083516001600160401b038111156109fd576109fd6132cb565b604051908082528060200260200182016040528015610a26578160200160208202803683370190505b50905060005b8451811015610a9e57610a71858281518110610a4a57610a4a613b17565b6020026020010151858381518110610a6457610a64613b17565b602002602001015161063a565b828281518110610a8357610a83613b17565b6020908102919091010152610a9781613b43565b9050610a2c565b509392505050565b610add604051806040016040528060158152602001747472616e7366657272696e6720757364507269636560581b81525082611cf6565b6013546001600160a01b03166323b872dd336040516001600160e01b031960e084901b1681526001600160a01b039091166004820152306024820152604481018490526064016020604051808303816000875af1158015610b42573d6000803e3d6000fd5b505050506040513d601f19601f82011682018060405250810190610b669190613b5c565b506000610b74600283613b79565b90506000610b8c610b858385613b9b565b6016611d3b565b9050610bcd6040518060400160405280601a81526020017f7472616e7366657272696e6720746f53656c6c466f725361666500000000000081525082611cf6565b60115460405163f7e0ba5f60e01b8152600481018390526000916001600160a01b03169063f7e0ba5f906024016020604051808303816000875af1158015610c19573d6000803e3d6000fd5b505050506040513d601f19601f82011682018060405250810190610c3d9190613bae565b9050610c7a60405180604001604052806019815260200178039b0b332a0b6b7bab73a103932ba3ab93732b210333937b69603d1b81525082611cf6565b601154600090610c95906001600160a01b0316836016611d9b565b6013546040516370a0823160e01b81523060048201529192506000916001600160a01b03909116906370a0823190602401602060405180830381865afa158015610ce3573d6000803e3d6000fd5b505050506040513d601f19601f82011682018060405250810190610d079190613bae565b90508015610d6e5760125460405163b6b55f2560e01b8152600481018390526001600160a01b039091169063b6b55f2590602401600060405180830381600087803b158015610d5557600080fd5b505af1158015610d69573d6000803e3d6000fd5b505050505b505050505050565b610da16040518060400160405280600a815260200169189d5e5a5b99c813919560b21b815250611fd2565b60008111610e175760405162461bcd60e51b815260206004820152603860248201527f455243313135355072657365744d696e7465725061757365723a20616d6f756e60448201527f74206d7573742062652067726561746572207468616e2030000000000000000060648201526084016106a1565b60006009836003811115610e2d57610e2d613bc7565b60048110610e3d57610e3d613b17565b015411610eb25760405162461bcd60e51b815260206004820152603c60248201527f455243313135355072657365744d696e7465725061757365723a20746965722060448201527f7072696365206d7573742062652067726561746572207468616e20300000000060648201526084016106a1565b6000826003811115610ec657610ec6613bc7565b90506000826009856003811115610edf57610edf613bc7565b60048110610eef57610eef613b17565b0154610efb9190613bdd565b9050610f34604051806040016040528060158152602001747472616e7366657272696e6720757364507269636560581b81525082611cf6565b6013546001600160a01b03166323b872dd336040516001600160e01b031960e084901b1681526001600160a01b039091166004820152306024820152604481018490526064016020604051808303816000875af1158015610f99573d6000803e3d6000fd5b505050506040513d601f19601f82011682018060405250810190610fbd9190613b5c565b506000610fcb826014611d3b565b905061100c6040518060400160405280601a81526020017f7472616e7366657272696e6720746f53656c6c466f725361666500000000000081525082611cf6565b60115460405163f7e0ba5f60e01b8152600481018390526000916001600160a01b03169063f7e0ba5f906024016020604051808303816000875af1158015611058573d6000803e3d6000fd5b505050506040513d601f19601f8201168201806040525081019061107c9190613bae565b90506110b960405180604001604052806019815260200178039b0b332a0b6b7bab73a103932ba3ab93732b210333937b69603d1b81525082611cf6565b6011546000906110d4906001600160a01b0316836014611d9b565b6013546040516370a0823160e01b81523060048201529192506000916001600160a01b03909116906370a0823190602401602060405180830381865afa158015611122573d6000803e3d6000fd5b505050506040513d601f19601f820116820180604052508101906111469190613bae565b905080156111ad5760125460405163b6b55f2560e01b8152600481018390526001600160a01b039091169063b6b55f2590602401600060405180830381600087803b15801561119457600080fd5b505af11580156111a8573d6000803e3d6000fd5b505050505b6111c833878960405180602001604052806000815250612015565b5050505050505050565b6001600160a01b0383163314806111ee57506111ee83336105e6565b61120a5760405162461bcd60e51b81526004016106a190613ac9565b61085483838361210f565b61123f7f9f2df0fed2c77648de5860a4cc508cd0818c85b8b8a1ab4ceeef8d981c8956a63361135a565b61125b5760405162461bcd60e51b81526004016106a190613a6c565b6107c684848484612015565b6002816002811061127757600080fd5b01546001600160a01b0316905081565b6112b17f65d7a28e3265b37a6474929f336521b332c1681b933f6cb9f3376673440d862a3361135a565b6113235760405162461bcd60e51b815260206004820152603960248201527f455243313135355072657365744d696e7465725061757365723a206d7573742060448201527f686176652070617573657220726f6c6520746f2070617573650000000000000060648201526084016106a1565b61097b6122b8565b600d81600481106107dc57600080fd5b600082815260016020526040812061135390836122f5565b9392505050565b6000918252602082815260408084206001600160a01b0393909316845291905290205460ff1690565b6108d3338383612301565b60006113b87fb53127684a568b3173ae13b9f8a6016e243e63b6e8ee1178d6a717850b5d61035490565b90506001600160a01b0381166113f7576001600160a01b037fb53127684a568b3173ae13b9f8a6016e243e63b6e8ee1178d6a717850b5d61035561140c565b336001600160a01b0382161461140c57600080fd5b611415876123e1565b6114206000336123ed565b61144a7f9f2df0fed2c77648de5860a4cc508cd0818c85b8b8a1ab4ceeef8d981c8956a6336123ed565b6114747f65d7a28e3265b37a6474929f336521b332c1681b933f6cb9f3376673440d862a336123ed565b6114816009876004613113565b5061148f600d866004613113565b50601180546001600160a01b0319166001600160a01b0386161790556114b86014846002613151565b506114c66016836002613151565b506011546040805163db7a460560e01b81528151611537936001600160a01b03169263db7a460592600480820193918290030181865afa15801561150e573d6000803e3d6000fd5b505050506040513d601f19601f820116820180604052508101906115329190613bf4565b6123f7565b601160009054906101000a90046001600160a01b03166001600160a01b031663deef94de6040518163ffffffff1660e01b8152600401602060405180830381865afa15801561158a573d6000803e3d6000fd5b505050506040513d601f19601f820116820180604052508101906115ae9190613c56565b601280546001600160a01b0319166001600160a01b039283161790556011546040805163d63a6ccd60e01b81529051919092169163d63a6ccd9160048083019260209291908290030181865afa15801561160c573d6000803e3d6000fd5b505050506040513d601f19601f820116820180604052508101906116309190613c56565b601380546001600160a01b0319166001600160a01b0392831690811790915560115460405163095ea7b360e01b81529216600483015260001960248301529063095ea7b3906044016020604051808303816000875af1158015611697573d6000803e3d6000fd5b505050506040513d601f19601f820116820180604052508101906116bb9190613b5c565b5060135460125460405163095ea7b360e01b81526001600160a01b039182166004820152600019602482015291169063095ea7b3906044016020604051808303816000875af1158015611712573d6000803e3d6000fd5b505050506040513d601f19601f820116820180604052508101906117369190613b5c565b5060115460405163095ea7b360e01b81526001600160a01b039091166004820181905260001960248301529063095ea7b3906044016020604051808303816000875af115801561178a573d6000803e3d6000fd5b505050506040513d601f19601f820116820180604052508101906111c89190613b5c565b60008181526001602052604081206106cf90612403565b601681600281106107dc57600080fd5b6000828152602081905260409020600101546117f081611c53565b6108548383611c82565b601481600281106107dc57600080fd5b6001600160a01b038516331480611826575061182685336105e6565b6118425760405162461bcd60e51b81526004016106a190613ac9565b610828858585858561240d565b6001600160a01b03831633148061186b575061186b83336105e6565b6118875760405162461bcd60e51b81526004016106a190613ac9565b610854838383612557565b61189c828261135a565b6108d3576000828152602081815260408083206001600160a01b03851684529091529020805460ff191660011790556118d23390565b6001600160a01b0316816001600160a01b0316837f2f8788117e7eff1d82e926ec794901d17c78024a50270940304540a733656f0d60405160405180910390a45050565b6000611353836001600160a01b03841661267d565b60006106cf826126cc565b6001600160a01b03841661195c5760405162461bcd60e51b81526004016106a190613c73565b815183511461197d5760405162461bcd60e51b81526004016106a190613cb4565b3361198d8160008787878761270c565b60005b8451811015611a29578381815181106119ab576119ab613b17565b6020026020010151600460008784815181106119c9576119c9613b17565b602002602001015181526020019081526020016000206000886001600160a01b03166001600160a01b031681526020019081526020016000206000828254611a119190613cfc565b90915550819050611a2181613b43565b915050611990565b50846001600160a01b031660006001600160a01b0316826001600160a01b03167f4a39dc06d4c0dbc64b70af90fd698a233a518aa5d07e595d983b8c0526c8f7fb8787604051611a7a929190613d0f565b60405180910390a4611a918160008787878761271a565b610828816000878787876127cc565b8151835114611ac15760405162461bcd60e51b81526004016106a190613cb4565b6001600160a01b038416611ae75760405162461bcd60e51b81526004016106a190613d3d565b33611af681878787878761270c565b60005b8451811015611bdf576000858281518110611b1657611b16613b17565b602002602001015190506000858381518110611b3457611b34613b17565b60209081029190910181015160008481526004835260408082206001600160a01b038e168352909352919091205490915081811015611b855760405162461bcd60e51b81526004016106a190613d82565b60008381526004602090815260408083206001600160a01b038e8116855292528083208585039055908b16825281208054849290611bc4908490613cfc565b9250508190555050505080611bd890613b43565b9050611af9565b50846001600160a01b0316866001600160a01b0316826001600160a01b03167f4a39dc06d4c0dbc64b70af90fd698a233a518aa5d07e595d983b8c0526c8f7fb8787604051611c2f929190613d0f565b60405180910390a4611c4581878787878761271a565b610d6e8187878787876127cc565b611c5d8133612927565b50565b611c6a8282611892565b60008281526001602052604090206108549082611916565b611c8c8282612980565b600082815260016020526040902061085490826129e5565b611cac6129fa565b6007805460ff191690557f5db9ee0a495bf2e6ff9c91a7834c1ba4fdd244a5e8aa4e537bd38aeae4b073aa335b6040516001600160a01b03909116815260200160405180910390a1565b6108d38282604051602401611d0c929190613dcc565b60408051601f198184030181529190526020810180516001600160e01b0316632d839cb360e21b179052612a43565b600080805b6002811015611d7b57838160028110611d5b57611d5b613b17565b0154611d679083613cfc565b915080611d7381613b43565b915050611d40565b50612710611d898286613bdd565b611d939190613b79565b949350505050565b6000611dce6040518060400160405280600f81526020016e446973747269627574696e6720257360881b81525084611cf6565b604080518082018252600a81526962616c616e636520257360b01b602082015290516370a0823160e01b8152306004820152611e5f91906001600160a01b038716906370a0823190602401602060405180830381865afa158015611e36573d6000803e3d6000fd5b505050506040513d601f19601f82011682018060405250810190611e5a9190613bae565b611cf6565b6000805b6002811015611fa1576000612710858360028110611e8357611e83613b17565b0154611e8f9088613bdd565b611e999190613b79565b9050611eeb6040518060400160405280601081526020016f73656e64696e6720257320746f20257360801b8152508460028560028110611edb57611edb613b17565b01546001600160a01b0316612a64565b866001600160a01b031663a9059cbb60028460028110611f0d57611f0d613b17565b015460405160e083901b6001600160e01b03191681526001600160a01b039091166004820152602481018490526044016020604051808303816000875af1158015611f5c573d6000803e3d6000fd5b505050506040513d601f19601f82011682018060405250810190611f809190613b5c565b50611f8b8184613cfc565b9250508080611f9990613b43565b915050611e63565b50611d936040518060400160405280600e81526020016d446973747269627574656420257360901b81525082611cf6565b611c5d81604051602401611fe6919061329f565b60408051601f198184030181529190526020810180516001600160e01b031663104c13eb60e21b179052612a43565b6001600160a01b03841661203b5760405162461bcd60e51b81526004016106a190613c73565b33600061204785612aab565b9050600061205485612aab565b90506120658360008985858961270c565b60008681526004602090815260408083206001600160a01b038b16845290915281208054879290612097908490613cfc565b909155505060408051878152602081018790526001600160a01b03808a1692600092918716917fc3d58168c5ae7397731d063d5bbf3d657854427343f4c083240f7aacaa2d0f62910160405180910390a46120f78360008985858961271a565b61210683600089898989612af6565b50505050505050565b6001600160a01b0383166121355760405162461bcd60e51b81526004016106a190613dee565b80518251146121565760405162461bcd60e51b81526004016106a190613cb4565b60003390506121798185600086866040518060200160405280600081525061270c565b60005b835181101561224157600084828151811061219957612199613b17565b6020026020010151905060008483815181106121b7576121b7613b17565b60209081029190910181015160008481526004835260408082206001600160a01b038c1683529093529190912054909150818110156122085760405162461bcd60e51b81526004016106a190613e31565b60009283526004602090815260408085206001600160a01b038b168652909152909220910390558061223981613b43565b91505061217c565b5060006001600160a01b0316846001600160a01b0316826001600160a01b03167f4a39dc06d4c0dbc64b70af90fd698a233a518aa5d07e595d983b8c0526c8f7fb8686604051612292929190613d0f565b60405180910390a46107c68185600086866040518060200160405280600081525061271a565b6122c0612bb1565b6007805460ff191660011790557f62e78cea01bee320cd4e420270b5ea74000d11b0c9f74754ebdbfc544b05a258611cd93390565b60006113538383612bf7565b816001600160a01b0316836001600160a01b0316036123745760405162461bcd60e51b815260206004820152602960248201527f455243313135353a2073657474696e6720617070726f76616c20737461747573604482015268103337b91039b2b63360b91b60648201526084016106a1565b6001600160a01b03838116600081815260056020908152604080832094871680845294825291829020805460ff191686151590811790915591519182527f17307eab39ab6107e8899845ad3d59bd9653f200f220920489ca2b5937696c31910160405180910390a3505050565b60066108d38282613ebb565b6108d38282611c60565b6108d36002828161317e565b60006106cf825490565b6001600160a01b0384166124335760405162461bcd60e51b81526004016106a190613d3d565b33600061243f85612aab565b9050600061244c85612aab565b905061245c83898985858961270c565b60008681526004602090815260408083206001600160a01b038c1684529091529020548581101561249f5760405162461bcd60e51b81526004016106a190613d82565b60008781526004602090815260408083206001600160a01b038d8116855292528083208985039055908a168252812080548892906124de908490613cfc565b909155505060408051888152602081018890526001600160a01b03808b16928c821692918816917fc3d58168c5ae7397731d063d5bbf3d657854427343f4c083240f7aacaa2d0f62910160405180910390a461253e848a8a86868a61271a565b61254c848a8a8a8a8a612af6565b505050505050505050565b6001600160a01b03831661257d5760405162461bcd60e51b81526004016106a190613dee565b33600061258984612aab565b9050600061259684612aab565b90506125b68387600085856040518060200160405280600081525061270c565b60008581526004602090815260408083206001600160a01b038a168452909152902054848110156125f95760405162461bcd60e51b81526004016106a190613e31565b60008681526004602090815260408083206001600160a01b038b81168086529184528285208a8703905582518b81529384018a90529092908816917fc3d58168c5ae7397731d063d5bbf3d657854427343f4c083240f7aacaa2d0f62910160405180910390a46121068488600086866040518060200160405280600081525061271a565b60008181526001830160205260408120546126c4575081546001818101845560008481526020808220909301849055845484825282860190935260409020919091556106cf565b5060006106cf565b60006001600160e01b03198216636cdb3d1360e11b14806126fd57506001600160e01b031982166303a24d0760e21b145b806106cf57506106cf82612c21565b610d6e868686868686612c46565b600d8360008151811061272f5761272f613b17565b60200260200101516004811061274757612747613b17565b01546127798460008151811061275f5761275f613b17565b602002602001015160009081526008602052604090205490565b11156127c75760405162461bcd60e51b815260206004820152601b60248201527f536166654e46543a206d617820737570706c792072656163686564000000000060448201526064016106a1565b610d6e565b6001600160a01b0384163b15610d6e5760405163bc197c8160e01b81526001600160a01b0385169063bc197c81906128109089908990889088908890600401613f7a565b6020604051808303816000875af192505050801561284b575060408051601f3d908101601f1916820190925261284891810190613fd8565b60015b6128f757612857613ff5565b806308c379a003612890575061286b614011565b806128765750612892565b8060405162461bcd60e51b81526004016106a1919061329f565b505b60405162461bcd60e51b815260206004820152603460248201527f455243313135353a207472616e7366657220746f206e6f6e2d455243313135356044820152732932b1b2b4bb32b91034b6b83632b6b2b73a32b960611b60648201526084016106a1565b6001600160e01b0319811663bc197c8160e01b146121065760405162461bcd60e51b81526004016106a19061409a565b612931828261135a565b6108d35761293e81612dcd565b612949836020612ddf565b60405160200161295a9291906140e2565b60408051601f198184030181529082905262461bcd60e51b82526106a19160040161329f565b61298a828261135a565b156108d3576000828152602081815260408083206001600160a01b0385168085529252808320805460ff1916905551339285917ff6391f5c32d9c69d2a47ea670b442974b53935d1edc7fd64eb21e047a839171b9190a45050565b6000611353836001600160a01b038416612f7a565b60075460ff1661097b5760405162461bcd60e51b815260206004820152601460248201527314185d5cd8589b194e881b9bdd081c185d5cd95960621b60448201526064016106a1565b80516a636f6e736f6c652e6c6f67602083016000808483855afa5050505050565b610854838383604051602401612a7c93929190614157565b60408051601f198184030181529190526020810180516001600160e01b031663038fd88960e31b179052612a43565b60408051600180825281830190925260609160009190602080830190803683370190505090508281600081518110612ae557612ae5613b17565b602090810291909101015292915050565b6001600160a01b0384163b15610d6e5760405163f23a6e6160e01b81526001600160a01b0385169063f23a6e6190612b3a9089908990889088908890600401614189565b6020604051808303816000875af1925050508015612b75575060408051601f3d908101601f19168201909252612b7291810190613fd8565b60015b612b8157612857613ff5565b6001600160e01b0319811663f23a6e6160e01b146121065760405162461bcd60e51b81526004016106a19061409a565b60075460ff161561097b5760405162461bcd60e51b815260206004820152601060248201526f14185d5cd8589b194e881c185d5cd95960821b60448201526064016106a1565b6000826000018281548110612c0e57612c0e613b17565b9060005260206000200154905092915050565b60006001600160e01b03198216635a05180f60e01b14806106cf57506106cf8261306d565b612c548686868686866130a2565b6001600160a01b038516612cdb5760005b8351811015612cd957828181518110612c8057612c80613b17565b602002602001015160086000868481518110612c9e57612c9e613b17565b602002602001015181526020019081526020016000206000828254612cc39190613cfc565b90915550612cd2905081613b43565b9050612c65565b505b6001600160a01b038416610d6e5760005b8351811015612106576000848281518110612d0957612d09613b17565b602002602001015190506000848381518110612d2757612d27613b17565b6020026020010151905060006008600084815260200190815260200160002054905081811015612daa5760405162461bcd60e51b815260206004820152602860248201527f455243313135353a206275726e20616d6f756e74206578636565647320746f74604482015267616c537570706c7960c01b60648201526084016106a1565b60009283526008602052604090922091039055612dc681613b43565b9050612cec565b60606106cf6001600160a01b03831660145b60606000612dee836002613bdd565b612df9906002613cfc565b6001600160401b03811115612e1057612e106132cb565b6040519080825280601f01601f191660200182016040528015612e3a576020820181803683370190505b509050600360fc1b81600081518110612e5557612e55613b17565b60200101906001600160f81b031916908160001a905350600f60fb1b81600181518110612e8457612e84613b17565b60200101906001600160f81b031916908160001a9053506000612ea8846002613bdd565b612eb3906001613cfc565b90505b6001811115612f2b576f181899199a1a9b1b9c1cb0b131b232b360811b85600f1660108110612ee757612ee7613b17565b1a60f81b828281518110612efd57612efd613b17565b60200101906001600160f81b031916908160001a90535060049490941c93612f24816141cc565b9050612eb6565b5083156113535760405162461bcd60e51b815260206004820181905260248201527f537472696e67733a20686578206c656e67746820696e73756666696369656e7460448201526064016106a1565b60008181526001830160205260408120548015613063576000612f9e600183613b9b565b8554909150600090612fb290600190613b9b565b9050818114613017576000866000018281548110612fd257612fd2613b17565b9060005260206000200154905080876000018481548110612ff557612ff5613b17565b6000918252602080832090910192909255918252600188019052604090208390555b8554869080613028576130286141e3565b6001900381819060005260206000200160009055905585600101600086815260200190815260200160002060009055600193505050506106cf565b60009150506106cf565b60006001600160e01b03198216637965db0b60e01b14806106cf57506301ffc9a760e01b6001600160e01b03198316146106cf565b610d6e86868686868660075460ff1615610d6e5760405162461bcd60e51b815260206004820152602c60248201527f455243313135355061757361626c653a20746f6b656e207472616e736665722060448201526b1dda1a5b19481c185d5cd95960a21b60648201526084016106a1565b8260048101928215613141579160200282015b82811115613141578251825591602001919060010190613126565b5061314d9291506131c6565b5090565b82600281019282156131415791602002820182811115613141578251825591602001919060010190613126565b8260028101928215613141579160200282015b8281111561314157825182546001600160a01b0319166001600160a01b03909116178255602090920191600190910190613191565b5b8082111561314d57600081556001016131c7565b6001600160a01b0381168114611c5d57600080fd5b6000806040838503121561320357600080fd5b823561320e816131db565b946020939093013593505050565b6001600160e01b031981168114611c5d57600080fd5b60006020828403121561324457600080fd5b81356113538161321c565b60005b8381101561326a578181015183820152602001613252565b50506000910152565b6000815180845261328b81602086016020860161324f565b601f01601f19169290920160200192915050565b6020815260006113536020830184613273565b6000602082840312156132c457600080fd5b5035919050565b634e487b7160e01b600052604160045260246000fd5b604081018181106001600160401b0382111715613300576133006132cb565b60405250565b601f8201601f191681016001600160401b038111828210171561332b5761332b6132cb565b6040525050565b60006001600160401b0382111561334b5761334b6132cb565b5060051b60200190565b600082601f83011261336657600080fd5b8135602061337382613332565b6040516133808282613306565b83815260059390931b85018201928281019150868411156133a057600080fd5b8286015b848110156133bb57803583529183019183016133a4565b509695505050505050565b60006001600160401b038311156133df576133df6132cb565b6040516133f6601f8501601f191660200182613306565b80915083815284848401111561340b57600080fd5b83836020830137600060208583010152509392505050565b600082601f83011261343457600080fd5b611353838335602085016133c6565b6000806000806080858703121561345957600080fd5b8435613464816131db565b935060208501356001600160401b038082111561348057600080fd5b61348c88838901613355565b945060408701359150808211156134a257600080fd5b6134ae88838901613355565b935060608701359150808211156134c457600080fd5b506134d187828801613423565b91505092959194509250565b600080600080600060a086880312156134f557600080fd5b8535613500816131db565b94506020860135613510816131db565b935060408601356001600160401b038082111561352c57600080fd5b61353889838a01613355565b9450606088013591508082111561354e57600080fd5b61355a89838a01613355565b9350608088013591508082111561357057600080fd5b5061357d88828901613423565b9150509295509295909350565b6000806040838503121561359d57600080fd5b8235915060208301356135af816131db565b809150509250929050565b600080604083850312156135cd57600080fd5b82356001600160401b03808211156135e457600080fd5b818501915085601f8301126135f857600080fd5b8135602061360582613332565b6040516136128282613306565b83815260059390931b850182019282810191508984111561363257600080fd5b948201945b8386101561365957853561364a816131db565b82529482019490820190613637565b9650508601359250508082111561366f57600080fd5b5061367c85828601613355565b9150509250929050565b600081518084526020808501945080840160005b838110156136b65781518752958201959082019060010161369a565b509495945050505050565b6020815260006113536020830184613686565b600080604083850312156136e757600080fd5b82356004811061320e57600080fd5b60008060006060848603121561370b57600080fd5b8335613716816131db565b925060208401356001600160401b038082111561373257600080fd5b61373e87838801613355565b9350604086013591508082111561375457600080fd5b5061376186828701613355565b9150509250925092565b6000806000806080858703121561378157600080fd5b843561378c816131db565b9350602085013592506040850135915060608501356001600160401b038111156137b557600080fd5b6134d187828801613423565b600080604083850312156137d457600080fd5b50508035926020909101359150565b8015158114611c5d57600080fd5b6000806040838503121561380457600080fd5b823561380f816131db565b915060208301356135af816137e3565b600082601f83011261383057600080fd5b604051608081018181106001600160401b0382111715613852576138526132cb565b60405280608084018581111561386757600080fd5b845b81811015613881578035835260209283019201613869565b509195945050505050565b600082601f83011261389d57600080fd5b6040516138a9816132e1565b80604084018581111561386757600080fd5b6000806000806000806101c087890312156138d557600080fd5b86356001600160401b038111156138eb57600080fd5b8701601f810189136138fc57600080fd5b61390b898235602084016133c6565b96505061391b886020890161381f565b945061392a8860a0890161381f565b935061012087013561393b816131db565b925061394b88610140890161388c565b915061395b88610180890161388c565b90509295509295509295565b6000806040838503121561397a57600080fd5b8235613985816131db565b915060208301356135af816131db565b600080600080600060a086880312156139ad57600080fd5b85356139b8816131db565b945060208601356139c8816131db565b9350604086013592506060860135915060808601356001600160401b038111156139f157600080fd5b61357d88828901613423565b600080600060608486031215613a1257600080fd5b8335613a1d816131db565b95602085013595506040909401359392505050565b600181811c90821680613a4657607f821691505b602082108103613a6657634e487b7160e01b600052602260045260246000fd5b50919050565b60208082526038908201527f455243313135355072657365744d696e7465725061757365723a206d7573742060408201527f68617665206d696e74657220726f6c6520746f206d696e740000000000000000606082015260800190565b6020808252602e908201527f455243313135353a2063616c6c6572206973206e6f7420746f6b656e206f776e60408201526d195c881bdc88185c1c1c9bdd995960921b606082015260800190565b634e487b7160e01b600052603260045260246000fd5b634e487b7160e01b600052601160045260246000fd5b600060018201613b5557613b55613b2d565b5060010190565b600060208284031215613b6e57600080fd5b8151611353816137e3565b600082613b9657634e487b7160e01b600052601260045260246000fd5b500490565b818103818111156106cf576106cf613b2d565b600060208284031215613bc057600080fd5b5051919050565b634e487b7160e01b600052602160045260246000fd5b80820281158282048414176106cf576106cf613b2d565b600060408284031215613c0657600080fd5b82601f830112613c1557600080fd5b604051613c21816132e1565b806040840185811115613c3357600080fd5b845b81811015613881578051613c48816131db565b835260209283019201613c35565b600060208284031215613c6857600080fd5b8151611353816131db565b60208082526021908201527f455243313135353a206d696e7420746f20746865207a65726f206164647265736040820152607360f81b606082015260800190565b60208082526028908201527f455243313135353a2069647320616e6420616d6f756e7473206c656e677468206040820152670dad2e6dac2e8c6d60c31b606082015260800190565b808201808211156106cf576106cf613b2d565b604081526000613d226040830185613686565b8281036020840152613d348185613686565b95945050505050565b60208082526025908201527f455243313135353a207472616e7366657220746f20746865207a65726f206164604082015264647265737360d81b606082015260800190565b6020808252602a908201527f455243313135353a20696e73756666696369656e742062616c616e636520666f60408201526939103a3930b739b332b960b11b606082015260800190565b604081526000613ddf6040830185613273565b90508260208301529392505050565b60208082526023908201527f455243313135353a206275726e2066726f6d20746865207a65726f206164647260408201526265737360e81b606082015260800190565b60208082526024908201527f455243313135353a206275726e20616d6f756e7420657863656564732062616c604082015263616e636560e01b606082015260800190565b601f82111561085457600081815260208120601f850160051c81016020861015613e9c5750805b601f850160051c820191505b81811015610d6e57828155600101613ea8565b81516001600160401b03811115613ed457613ed46132cb565b613ee881613ee28454613a32565b84613e75565b602080601f831160018114613f1d5760008415613f055750858301515b600019600386901b1c1916600185901b178555610d6e565b600085815260208120601f198616915b82811015613f4c57888601518255948401946001909101908401613f2d565b5085821015613f6a5787850151600019600388901b60f8161c191681555b5050505050600190811b01905550565b60006001600160a01b03808816835280871660208401525060a06040830152613fa660a0830186613686565b8281036060840152613fb88186613686565b90508281036080840152613fcc8185613273565b98975050505050505050565b600060208284031215613fea57600080fd5b81516113538161321c565b600060033d111561400e5760046000803e5060005160e01c5b90565b600060443d101561401f5790565b6040516003193d81016004833e81513d6001600160401b03816024840111818411171561404e57505050505090565b82850191508151818111156140665750505050505090565b843d87010160208285010111156140805750505050505090565b61408f60208286010187613306565b509095945050505050565b60208082526028908201527f455243313135353a204552433131353552656365697665722072656a656374656040820152676420746f6b656e7360c01b606082015260800190565b7f416363657373436f6e74726f6c3a206163636f756e742000000000000000000081526000835161411a81601785016020880161324f565b7001034b99036b4b9b9b4b733903937b6329607d1b601791840191820152835161414b81602884016020880161324f565b01602801949350505050565b60608152600061416a6060830186613273565b90508360208301526001600160a01b0383166040830152949350505050565b60006001600160a01b03808816835280871660208401525084604083015283606083015260a060808301526141c160a0830184613273565b979650505050505050565b6000816141db576141db613b2d565b506000190190565b634e487b7160e01b600052603160045260246000fdfea2646970667358221220f9cd2dfbcbb63bafa2f3c4c984cadb22b1c0add063897c2cb95bb3ea30c5064864736f6c63430008110033b53127684a568b3173ae13b9f8a6016e243e63b6e8ee1178d6a717850b5d610365d7a28e3265b37a6474929f336521b332c1681b933f6cb9f3376673440d862a9f2df0fed2c77648de5860a4cc508cd0818c85b8b8a1ab4ceeef8d981c8956a6",
  "linkReferences": {},
  "deployedLinkReferences": {}
}