{
  "_format": "hh-sol-artifact-1",
  "contractName": "SafeVault",
  "sourceName": "contracts/SafeVault.sol",
  "abi": [
    {
      "inputs": [
        {
          "internalType": "address",
          "name": "_usd",
          "type": "address"
        }
      ],
      "stateMutability": "nonpayable",
      "type": "constructor"
    },
    {
      "anonymous": false,
      "inputs": [
        {
          "indexed": true,
          "internalType": "address",
          "name": "user",
          "type": "address"
        },
        {
          "indexed": false,
          "internalType": "uint256",
          "name": "amount",
          "type": "uint256"
        }
      ],
      "name": "Deposit",
      "type": "event"
    },
    {
      "anonymous": false,
      "inputs": [
        {
          "indexed": true,
          "internalType": "address",
          "name": "user",
          "type": "address"
        },
        {
          "indexed": false,
          "internalType": "uint256",
          "name": "amount",
          "type": "uint256"
        }
      ],
      "name": "Withdraw",
      "type": "event"
    },
    {
      "inputs": [
        {
          "internalType": "uint256",
          "name": "_amount",
          "type": "uint256"
        }
      ],
      "name": "deposit",
      "outputs": [],
      "stateMutability": "nonpayable",
      "type": "function"
    },
    {
      "inputs": [
        {
          "internalType": "address",
          "name": "",
          "type": "address"
        }
      ],
      "name": "deposited",
      "outputs": [
        {
          "internalType": "uint256",
          "name": "",
          "type": "uint256"
        }
      ],
      "stateMutability": "view",
      "type": "function"
    },
    {
      "inputs": [
        {
          "internalType": "address",
          "name": "_usd",
          "type": "address"
        }
      ],
      "name": "initialize",
      "outputs": [],
      "stateMutability": "nonpayable",
      "type": "function"
    },
    {
      "inputs": [
        {
          "internalType": "address",
          "name": "tokenAddress",
          "type": "address"
        },
        {
          "internalType": "uint256",
          "name": "tokenAmount",
          "type": "uint256"
        }
      ],
      "name": "recoverERC20",
      "outputs": [],
      "stateMutability": "nonpayable",
      "type": "function"
    },
    {
      "inputs": [],
      "name": "recoverETH",
      "outputs": [],
      "stateMutability": "nonpayable",
      "type": "function"
    },
    {
      "inputs": [
        {
          "internalType": "address",
          "name": "_receiver",
          "type": "address"
        },
        {
          "internalType": "uint256",
          "name": "_amount",
          "type": "uint256"
        }
      ],
      "name": "remove",
      "outputs": [],
      "stateMutability": "nonpayable",
      "type": "function"
    },
    {
      "inputs": [],
      "name": "safeToken",
      "outputs": [
        {
          "internalType": "address",
          "name": "",
          "type": "address"
        }
      ],
      "stateMutability": "view",
      "type": "function"
    },
    {
      "inputs": [
        {
          "internalType": "address",
          "name": "_safeToken",
          "type": "address"
        }
      ],
      "name": "setSafeToken",
      "outputs": [],
      "stateMutability": "nonpayable",
      "type": "function"
    },
    {
      "inputs": [],
      "name": "totalDeposited",
      "outputs": [
        {
          "internalType": "uint256",
          "name": "",
          "type": "uint256"
        }
      ],
      "stateMutability": "view",
      "type": "function"
    },
    {
      "inputs": [],
      "name": "totalSupply",
      "outputs": [
        {
          "internalType": "uint256",
          "name": "",
          "type": "uint256"
        }
      ],
      "stateMutability": "view",
      "type": "function"
    },
    {
      "inputs": [],
      "name": "usd",
      "outputs": [
        {
          "internalType": "contract IERC20",
          "name": "",
          "type": "address"
        }
      ],
      "stateMutability": "view",
      "type": "function"
    }
  ],
  "bytecode": "0x608060405234801561001057600080fd5b50604051610b89380380610b8983398101604081905261002f916100c0565b600160005561003d81610043565b506100f0565b600061005b600080516020610b698339815191525490565b90506001600160a01b038116610088576001600160a01b03600080516020610b698339815191525561009d565b336001600160a01b0382161461009d57600080fd5b50600180546001600160a01b0319166001600160a01b0392909216919091179055565b6000602082840312156100d257600080fd5b81516001600160a01b03811681146100e957600080fd5b9392505050565b610a6a806100ff6000396000f3fe608060405234801561001057600080fd5b50600436106100a95760003560e01c8063abe7f1ab11610071578063abe7f1ab14610124578063b6b55f2514610137578063c4d66de81461014a578063cb13cddb1461015d578063d63a6ccd1461017d578063ff50abdc1461019057600080fd5b80630614117a146100ae57806318160ddd146100b8578063393eec7b146100d35780634b3fd05a146100e65780638980f11f14610111575b600080fd5b6100b6610199565b005b6100c061024f565b6040519081526020015b60405180910390f35b6100b66100e136600461094d565b6102c1565b6004546100f9906001600160a01b031681565b6040516001600160a01b0390911681526020016100ca565b6100b661011f36600461096f565b61034b565b6100b661013236600461096f565b61044e565b6100b6610145366004610999565b6106dc565b6100b661015836600461094d565b61085b565b6100c061016b36600461094d565b60036020526000908152604090205481565b6001546100f9906001600160a01b031681565b6100c060025481565b600080516020610a15833981519152546001600160a01b0316336001600160a01b0316146102065760405162461bcd60e51b815260206004820152601560248201527429b0b332ab30bab63a1d1037b7363c9037bbb732b960591b60448201526064015b60405180910390fd5b600080516020610a15833981519152546040516001600160a01b03909116904780156108fc02916000818181858888f1935050505015801561024c573d6000803e3d6000fd5b50565b6001546040516370a0823160e01b81523060048201526000916001600160a01b0316906370a0823190602401602060405180830381865afa158015610298573d6000803e3d6000fd5b505050506040513d601f19601f820116820180604052508101906102bc91906109b2565b905090565b600080516020610a15833981519152546001600160a01b0316336001600160a01b0316146103295760405162461bcd60e51b815260206004820152601560248201527429b0b332ab30bab63a1d1037b7363c9037bbb732b960591b60448201526064016101fd565b600480546001600160a01b0319166001600160a01b0392909216919091179055565b600080516020610a15833981519152546001600160a01b0316336001600160a01b0316146103b35760405162461bcd60e51b815260206004820152601560248201527429b0b332ab30bab63a1d1037b7363c9037bbb732b960591b60448201526064016101fd565b816001600160a01b031663a9059cbb6103d8600080516020610a158339815191525490565b6040516001600160e01b031960e084901b1681526001600160a01b039091166004820152602481018490526044016020604051808303816000875af1158015610425573d6000803e3d6000fd5b505050506040513d601f19601f8201168201806040525081019061044991906109cb565b505050565b6104566108d8565b6004546001600160a01b031633146104d65760405162461bcd60e51b815260206004820152603960248201527f536166655661756c743a206f6e6c79207361666520746f6b656e20697320616c60448201527f6c6f77656420746f2072656d6f7665206c69717569646974790000000000000060648201526084016101fd565b600081116105415760405162461bcd60e51b815260206004820152603260248201527f536166655661756c743a20616d6f756e7420746f2072656d6f7665206d75737460448201527102062652067726561746572207468616e20360741b60648201526084016101fd565b6001546040516370a0823160e01b815230600482015282916001600160a01b0316906370a0823190602401602060405180830381865afa158015610589573d6000803e3d6000fd5b505050506040513d601f19601f820116820180604052508101906105ad91906109b2565b10156106215760405162461bcd60e51b815260206004820152603860248201527f536166655661756c743a207661756c742062616c616e6365206973206c65737360448201527f207468616e20616d6f756e7420746f207769746864726177000000000000000060648201526084016101fd565b60015460405163a9059cbb60e01b81526001600160a01b038481166004830152602482018490529091169063a9059cbb906044016020604051808303816000875af1158015610674573d6000803e3d6000fd5b505050506040513d601f19601f8201168201806040525081019061069891906109cb565b5060405181815233907f884edad9ce6fa2440d8a54cc123490eb96d2768479d49ff9c7366125a94243649060200160405180910390a26106d86001600055565b5050565b6106e46108d8565b600081116107505760405162461bcd60e51b815260206004820152603360248201527f536166655661756c743a20616d6f756e7420746f206465706f736974206d75736044820152720742062652067726561746572207468616e203606c1b60648201526084016101fd565b6004546001600160a01b031633146107a05733600090815260036020526040812080548392906107819084906109ed565b92505081905550806002600082825461079a91906109ed565b90915550505b6001546040516323b872dd60e01b8152336004820152306024820152604481018390526001600160a01b03909116906323b872dd906064016020604051808303816000875af11580156107f7573d6000803e3d6000fd5b505050506040513d601f19601f8201168201806040525081019061081b91906109cb565b5060405181815233907fe1fffcc4923d04b559f4d29a8bfc6cda04eb5b0d3c460751c2402c5c5cc9109c9060200160405180910390a261024c6001600055565b6000610873600080516020610a158339815191525490565b90506001600160a01b0381166108a0576001600160a01b03600080516020610a15833981519152556108b5565b336001600160a01b038216146108b557600080fd5b50600180546001600160a01b0319166001600160a01b0392909216919091179055565b60026000540361092a5760405162461bcd60e51b815260206004820152601f60248201527f5265656e7472616e637947756172643a207265656e7472616e742063616c6c0060448201526064016101fd565b6002600055565b80356001600160a01b038116811461094857600080fd5b919050565b60006020828403121561095f57600080fd5b61096882610931565b9392505050565b6000806040838503121561098257600080fd5b61098b83610931565b946020939093013593505050565b6000602082840312156109ab57600080fd5b5035919050565b6000602082840312156109c457600080fd5b5051919050565b6000602082840312156109dd57600080fd5b8151801515811461096857600080fd5b80820180821115610a0e57634e487b7160e01b600052601160045260246000fd5b9291505056feb53127684a568b3173ae13b9f8a6016e243e63b6e8ee1178d6a717850b5d6103a264697066735822122063f6d164d1ea794fe21a375a8acd4091bee3661586fc562f4173c27003b60d2464736f6c63430008110033b53127684a568b3173ae13b9f8a6016e243e63b6e8ee1178d6a717850b5d6103",
  "linkReferences": {},
  "deployedLinkReferences": {}
}